:100000000C941B0F0C94480F0C94480F0C94480F41
:100010000C94480F0C94480F0C94480F0C94480F04
:100020000C94480F0C94480F0C94480F0C94480FF4
:100030000C94480F0C94C8C30C94480F0C94480FB0
:100040000C94480F0C94FF7D0C94480F0C94480FAF
:100050000C94480F0C94480F0C94DC860C9415C03B
:100060000C94480F0C944B270C94480F0C94480F99
:100070000C94480F0C94480F0C94480F0C94480FA4
:100080000C94480F0C94480F0C94480F0C94480F94
:100090000C94480F0C94480F0C94480F0C949CBC83
:1000A0000C94480F0C94480F0C94480F0C94480F74
:1000B0000C94480F0C94480F0C94480F0C94480F64
:1000C0000C94480F0C94480F0C94480F0C94480F54
:1000D0000C94480F0C94480F0C94480F0C94480F44
:1000E0000C94480F084AD73B3BCE016E84BCBFFD41
:1000F000C12F3D6C74319ABD56833DDA3D00C77FF8
:1001000011BED9E4BB4C3E916BAAAABE0000008090
:100110003F05A84CCDB2D44EB93836A9020C50B91F
:10012000918688083CA6AAAA2ABE000000803F4DFE
:10013000383420582059205A2045006563686F3AAA
:100140000043616E6E6F7420656E74657220737506
:10015000626469723A20004D3234004D32332025FA
:1001600073006175746F25692E67004572726F7236
:100170003A006572726F722077726974696E6720D7
:10018000746F2066696C65004E6F74205344207054
:1001900072696E74696E67002F0053442070726933
:1001A0006E74696E67206279746520002E00446564
:1001B0006C6574696F6E206661696C65642C20469D
:1001C000696C653A200046696C652064656C6574ED
:1001D00065643A002E006F70656E206661696C651B
:1001E000642C2046696C653A200057726974696E08
:1001F0006720746F2066696C653A20002E006F706E
:10020000656E206661696C65642C2046696C653A90
:1002100020002E006F70656E206661696C65642C2D
:100220002046696C653A200046696C652073656CF0
:100230006563746564002053697A653A20004669F5
:100240006C65206F70656E65643A20002E006F70DB
:10025000656E206661696C65642C2046696C653A40
:1002600020004E6F772066726573682066696C6542
:100270003A20004E6F7720646F696E672066696C64
:10028000653A20002220706F730022207061726531
:100290006E743A2200535542524F5554494E4520F0
:1002A00043414C4C207461726765743A2200747249
:1002B00079696E6720746F2063616C6C207375625E
:1002C0002D67636F64652066696C65732077697458
:1002D0006820746F6F206D616E79206C6576656C37
:1002E000732E204D4158206C6576656C2069733AF9
:1002F0000053442063617264206F6B006F70656E01
:10030000526F6F74206661696C656400766F6C75FE
:100310006D652E696E6974206661696C6564005351
:100320004420696E6974206661696C006563686F5A
:100330003A0048617264636F646564204465666175
:10034000756C742053657474696E6773204C6F61AB
:10035000646564002044002049002020204D333093
:10036000312050005049442073657474696E67737E
:100370003A00205A0020590020204D3230362058B3
:1003800000486F6D65206F666673657420286D6D1B
:10039000293A00204500205A002058002042002021
:1003A000540020204D323035205300416476616E78
:1003B000636564207661726961626C65733A20538B
:1003C0003D4D696E20666565647261746520286DB7
:1003D0006D2F73292C20543D4D696E207472617607
:1003E000656C20666565647261746520286D6D2F8B
:1003F00073292C20423D6D696E696D756D207365A2
:10040000676D656E742074696D6520286D73292C85
:1004100020583D6D6178696D756D205859206A6569
:10042000726B20286D6D2F73292C20205A3D6D6131
:1004300078696D756D205A206A65726B20286D6D24
:100440002F73292C2020453D6D6178696D756D20D5
:1004500045206A65726B20286D6D2F73290020542A
:100460000020204D323034205300416363656C65B9
:10047000726174696F6E3A20533D616363656C65A8
:10048000726174696F6E2C20543D72657472616381
:100490007420616363656C65726174696F6E0020BE
:1004A0004500205A0020590020204D32303120587C
:1004B000004D6178696D756D20416363656C65728F
:1004C0006174696F6E20286D6D2F7332293A002098
:1004D0004500205A0020590020204D32303320584A
:1004E000004D6178696D756D206665656472617433
:1004F000657320286D6D2F73293A00204500205A1E
:100500000020590020204D39322058005374657066
:10051000732070657220756E69743A006563686F48
:100520003A004572726F723A0053544F505045442E
:100530002E20005072696E7465722073746F707033
:1005400065642064756520746F206572726F7273C4
:100550002E2046697820746865206572726F72205B
:10056000616E6420757365204D39393920746F20B0
:10057000726573746172742E202854656D70657293
:1005800061747572652069732072657365742E20BD
:100590005365742069742061667465722072657396
:1005A00074617274696E6729004B494C4C45442E46
:1005B00020005072696E7465722068616C746564A5
:1005C0002E206B696C6C28292063616C6C6564213A
:1005D00000526573656E643A20002200556E6B6EA2
:1005E0006F776E20636F6D6D616E643A20220042FA
:1005F0006C6F636B73206F6E652072656164790048
:100600005072696E74696E672E2E2E00506175737C
:10061000696E672E2E2E007A5F6D696E3A20007922
:100620005F6D696E3A2000785F6D696E3A20002038
:100630005A3A0020593A0020436F756E7420583A98
:10064000200020453A00205A3A0020593A00583AF2
:10065000004649524D574152455F4E414D453A4D36
:1006600061726C696E2056313B20537072696E74F2
:1006700065722F6772626C206D6173687570206699
:100680006F722067656E36204649524D574152457C
:100690005F55524C3A687474703A2F2F7777772EE3
:1006A000626C6F636B73746563686E6F6C6F677990
:1006B0002E636F6D2050524F544F434F4C5F564541
:1006C0005253494F4E3A312E30204D414348494E06
:1006D000455F545950453A426C6F636B73204F6EBF
:1006E000652045585452554445525F434F554E542A
:1006F0003A3120555549443A30303030303030307E
:100700002D303030302D303030302D303030302DF5
:100710003030303030303030303030300A00426CE1
:100720006F636B73204F6E65204F66662E00426CC0
:100730006F636B73204F6E652072656164792E0064
:1007400042656420646F6E652E0020423A002045A9
:100750003A00543A004265642048656174696E67E6
:100760002E005072696E74696E672E2E2E004865D9
:100770006174696E6720646F6E652E0020573A00C1
:1007800020453A00543A0048656174696E672E2E20
:100790002E002042403A0020403A00202F003A002C
:1007A000205400202F0020423A00202F006F6B20A1
:1007B000543A002569206D696E2C202569207365E7
:1007C00063005072696E74696E672E2E2E0050722F
:1007D00065737320746F20726573756D6500456E67
:1007E000642066696C65206C697374004265676992
:1007F0006E2066696C65206C697374004E6F206DA5
:100800006F76652E005072696E74696E672E2E2E9B
:10081000005761697420666F7220757365722E2EA1
:100820002E00536C6565702E2E2E00FFFFFF00001A
:10083000484300004843000048430000A040000037
:10084000A040000000400000000000000000000088
:100850000000000000000000000000000000000098
:1008600048430000484300004843256920686F75ED
:100870007273202569206D696E7574657300446F0D
:100880006E65207072696E74696E672066696C654A
:100890000053544F505045442E20005072696E74DE
:1008A00065722073746F7070656420647565207460
:1008B0006F206572726F72732E204669782074689B
:1008C00065206572726F7220616E64207573652099
:1008D0004D39393920746F20726573746172742ECA
:1008E000202854656D706572617475726520697336
:1008F0002072657365742E205365742069742061BD
:10090000667465722072657374617274696E6729AA
:10091000006F6B004E6F204C696E65204E756D62E6
:100920006572207769746820636865636B73756DA1
:100930002C204C617374204C696E653A20004E6F18
:1009400020436865636B73756D2077697468206CEC
:10095000696E65206E756D6265722C204C617374D2
:10096000204C696E653A2000636865636B73756D32
:10097000206D69736D617463682C204C6173742001
:100980004C696E653A20004C696E65204E756D624B
:100990006572206973206E6F74204C617374204CF3
:1009A000696E65204E756D6265722B312C204C612D
:1009B0007374204C696E653A20004D31313000442B
:1009C0006F6E6520736176696E672066696C652E4F
:1009D000006F6B004D3239004D363030004D3235EE
:1009E000004D363030002020506C616E6E657242D2
:1009F000756666657242797465733A2000204672A6
:100A00006565204D656D6F72793A200041707220E6
:100A10003137203230313700436F6D70696C656457
:100A20003A200028426C6F636B73204F6E6529007B
:100A3000207C20417574686F723A200041707220EA
:100A4000313720323031372031313A31383A343889
:100A500000204C61737420557064617465643A20A1
:100A600000312E302E30004D61726C696E002053C3
:100A70006F667477617265205265736574002057E4
:100A800061746368646F6720526573657400204207
:100A9000726F776E206F75742052657365740020D5
:100AA00045787465726E616C205265736574005090
:100AB0006F776572557000737461727400220065FF
:100AC0006E717565696E672022002200656E717512
:100AD00065696E672022006563686F3A0020636F66
:100AE0006C6420657874727573696F6E20707265BE
:100AF00076656E746564007C3C3E5E2B3D3F2F5BEB
:100B00005D3B2C2A225C0045313A200045303A20DA
:100B1000005A3A2000593A2000583A20004D5331EB
:100B20002C4D53322050696E730A0024F404D920EE
:100B30001BC40C5C0E9804C4095F0265077101F4C4
:100B400005F900FB04B30048048700C1036900589D
:100B500003550003034500BE023A008402310053EE
:100B6000022A002902250004022000E4011C00C81A
:100B7000011900AF011700980114008401130071DE
:100B80000110006101100051010E0043010D0036FB
:100B9000010B002B010B0020010B00150109000CBB
:100BA00001090003010800FB000800F3000800EB46
:100BB000000700E4000600DE000600D8000600D2B0
:100BC000000600CC000500C7000500C2000500BDFE
:100BD000000400B9000400B5000400B1000400AD39
:100BE000000400A9000400A5000300A20003009F68
:100BF0000004009B0003009800030095000200938E
:100C0000000300900003008D0002008B00030088A9
:100C10000002008600020084000300810002007FC1
:100C20000002007D0002007B0002007900020077D4
:100C300000010076000200740002007200010071E1
:100C40000002006F0002006D0001006C0002006AEB
:100C500000010069000200670001006600010065F4
:100C600000010064000200620001006100010060F8
:100C70000001005F0002005D0001005C0001005BFC
:100C80000001005A000100590001005800010057FE
:100C900000010056000100550001005400010053FE
:100CA00000000053000100520001005100010050FB
:100CB0000001004F0001004E0000004E0001004DF9
:100CC0000001004C0001004B0000004B0001004AF5
:100CD00000010049000100480000004800010047F1
:100CE00000010046000000460001004500000045EC
:100CF00000010044000100430000004300010042E5
:100D000000000042000100410000004100010040DD
:100D10000001003F0000003F0001003E0000003ED7
:100D20000001003D0000003D0001003C0000003CCF
:100D30000000003C0001003B0000003B0001003AC5
:100D40000000003A000100390000003900010038BD
:100D500000000038000000380001003700000037B4
:100D600000010036000000360000003600010035AA
:100D700000000035000000350001003400000034A0
:100D80000000003400010033000000330000003395
:100D9000000100320000003200000032000100318A
:100DA0000000003100000031000100300000003080
:100DB000000000300001002F0000002F0000002F75
:100DC0000000002F0001002E0000002E0000002E69
:100DD0000001002D0000002D0000002D0000002D5E
:100DE0000001002C0000002C0000002C0000002C52
:100DF0000001002B0000002B0000002B0000002B46
:100E00000001002A0000002A0000002A0000002A39
:100E1000000100290000002900000029000000292D
:100E20000000002900010028000000280000002820
:100E30000000002800000028000100270000002713
:100E40000000002700000027000000270001002606
:100E500000000026000000260000002600000026FA
:100E600000010025000000250000002500000025ED
:100E700000000025000000250001002400000024DF
:100E800000000024000000240000002400010023D2
:100E900000000023000000230000002300000023C6
:100EA00000000023000000230001002200000022B7
:100EB00000000022000000220000002200000022AA
:100EC000000100210000002100000021000000219D
:100ED000000000210000002100000021000100208E
:100EE0000000002000000020000000200000002082
:100EF0000000002000000020000000200001001F72
:100F00000000001F0000001F0000001F0000001F65
:100F10000000001F0000001F0001001E0000001E56
:100F20000000001E0000001E00000024F4D4305019
:100F3000C38E20C2A24017828B7011127A910D814C
:100F40006CD90AA861E108C7586607615143061EBB
:100F50004B5D05C145A7041A411104093D98037171
:100F60003931034036DB0265339102D430540280BC
:100F70002E1D02632CEE01752AC501B028A00110B8
:100F80002781018F2564012B244B01E0223401AC21
:100F9000211F018D200D01801FFC00841EED009794
:100FA0001DDF00B81CD200E61BC600201BBC00647D
:100FB0001AB200B219A8000A19A0006A189900D143
:100FC00017910040178B00B516840031167E00B3D0
:100FD0001579003A157300C7146F0058146A00EEB3
:100FE0001366008813630025135E00C7125B006C54
:100FF00012570015125400C111510070114F0021F9
:10100000114B00D61049008D1047004610440002D5
:10101000104200C00F4000800F3E00420F3C00060F
:101020000F3B00CB0E3800930E37005C0E350027C7
:101030000E3400F30D3200C10D3100900D30006010
:101040000D2E00320D2D00050D2C00D90C2B00AEFD
:101050000C2900850C29005C0C2700350C27000E9C
:101060000C2600E80B2400C40B2400A00B23007DF9
:101070000B23005A0B2100390B2100180B2000F81C
:101080000A1F00D90A1E00BB0A1E009D0A1D00800F
:101090000A1D00630A1C00470A1B002C0A1B0011D2
:1010A0000A1A00F7091A00DD091900C4091900AB72
:1010B000091900920917007B091800630917004CF1
:1010C00009160036091600200916000A091500F550
:1010D000081500E0081400CC081400B8081400A497
:1010E000081400900813007D0812006B08130058C4
:1010F00008120046081200340811002308110012DB
:1011000008110001081100F0071000E0071000D0DE
:10111000071000C0071000B0070F00A107100091D2
:10112000070E0083070F0074070F0065070E0057B6
:10113000070E0049070E003B070D002E070E00208A
:10114000070D0013070D0006070D00F9060C00ED52
:10115000060D00E0060C00D4060C00C8060C00BC0E
:10116000060C00B0060C00A4060B0099060C008DBE
:10117000060B0082060B0077060B006C060B006165
:10118000060A0057060B004C060A0042060A003801
:10119000060A002E060A0024060A001A060A001093
:1011A00006090007060A00FD050900F4050900EB21
:1011B000050900E2050900D9050900D0050900C7A5
:1011C000050900BE050900B5050800AD050800A524
:1011D0000509009C050800940508008C050800849A
:1011E0000508007C050800740508006C050700650B
:1011F0000508005D050700560508004E0507004775
:101200000507004005080038050700310507002ADA
:10121000050700230507001C050600160507000F3B
:101220000507000805060002050700FB040600F597
:10123000040700EE040600E8040600E2040700DBF1
:10124000040600D5040600CF040600C9040600C346
:10125000040600BD040600B7040600B1040500AC96
:10126000040600A6040600A00405009B04060095E1
:10127000040500900406008A04050085040500802A
:101280000406007A04050075040500700405006B6F
:1012900004050066040500610405005C04050057B0
:1012A000040500520405004D0405004804050043F0
:1012B0000405003E0404003A04050035040500302E
:1012C0000404002C04050027040400230405001E68
:1012D0000404001A04040016040500110404000D9F
:1012E000040400090405000404040000040400FCD4
:1012F000030400F8030400F4030400F0030400EC0A
:10130000030400E8030400E4030400E0030400DC39
:10131000030400D8030400D4030400D0030400CC69
:10132000030400C8030300C50303006563686F3A44
:1013300000656E6473746F7073206869743A205A24
:1013400000205A3A00656E6473746F707320686988
:10135000743A20590020593A00656E6473746F70B6
:1013600073206869743A20580020583A00656E640A
:1013700073746F7073206869743A20004572726FDD
:10138000723A004572723A204D415854454D5020F2
:101390004245440054656D706572617475726520D4
:1013A000686561746564206265642073776974633D
:1013B000686564206F66662E204D415854454D5037
:1013C0002074726967676572656420212100457227
:1013D000723A204D494E54454D50003A204578749C
:1013E0007275646572207377697463686564206FD1
:1013F00066662E204D494E54454D502074726967E3
:1014000067657265642021004572723A204D41582B
:1014100054454D50003A20457874727564657220C9
:101420007377697463686564206F66662E204D412A
:101430005854454D50207472696767657265642021
:101440002100202D20496E76616C696420657874D6
:101450007275646572206E756D6265722021007010
:10146000012C0190012701B0012201C0011D01F0F2
:101470000118011002130130020E016002090190EF
:10148000020401C002FF000003FA004003F50080DF
:1014900003F000D003EB002004E6007004E100E05C
:1014A00004DC004005D700C005D2004006CD00D0C6
:1014B00006C8008007C3003008BE00F008B900C0AD
:1014C00009B400B00AAF00B00BAA00D00CA5000010
:1014D0000EA000500F9B00C010960050129100000B
:1014E000148C00C0158700B0178200B0197D00D0A1
:1014F0001B7800001E730040206E0090226900F0EF
:1015000024640040275F0090295A00E02B5500100A
:101510002E500020304B0010324600E03341009046
:10152000353C001037370070383200A0392D00B03C
:101530003A2800A03B2300603C1E00103D1900909B
:101540003D1400103E0F00703E0A00C03E05000032
:101550003F00006563686F3A0048656174696E67B3
:10156000206661696C65642100546865726D616C08
:101570002072756E617761792100544845524D4162
:101580004C2052554E4157415900546865726D6167
:101590006C2052756E617761792C20737973746554
:1015A0006D2073746F707065642120486561746587
:1015B000725F49443A2000504944204175746F7469
:1015C000756E652066696E69736865642120507563
:1015D0007420746865206C617374204B702C204BF0
:1015E0006920616E64204B6420636F6E7374616E5A
:1015F00074732066726F6D2061626F766520696E0C
:10160000746F20436F6E66696775726174696F6E7F
:101610002E6800504944204175746F74756E6520C2
:101620006661696C6564212074696D656F7574000D
:1016300020403A006F6B20543A006F6B20423A0012
:10164000504944204175746F74756E6520666169F8
:101650006C6564212054656D706572617475726586
:1016600020746F6F206869676800204B643A20001F
:10167000204B693A2000204B703A200020436C61D7
:10168000737369632050494420002054753A200048
:10169000204B753A2000206D61783A2000206D695A
:1016A0006E3A200020643A200020626961733A207B
:1016B000001000AA03F0013A019002220130031049
:1016C00001D00302017004F7001005ED00B005E53C
:1016D000005006DD00F006D7009007D1003008CC9E
:1016E00000D008C7007009C300100ABE00B00ABBD2
:1016F00000500BB700F00BB300900CB000D00DAA57
:1017000000100FA5005010A00090119B00D0129661
:1017100000B014900090168B0070188500501A804D
:1017200000301C7B00B01E750030216F00B02369B3
:10173000003026640010285F00902A5A00702C5553
:1017400000F02E4F0070314800B0324500F03341B8
:101750000070363900103737005038330090392D7B
:1017600000D03A2700B03C1C00503D1700F03D115E
:1017700000903E0900D03FE5FF2D2D3A2D2D002D84
:101780002D2D00534400012000012000436F6E7492
:10179000726F6C004C6576656C20706C61746500CE
:1017A00046696C616D656E740053706565640046D2
:1017B000616E2073706565640046616E20737065AC
:1017C00065640042656400426564004E6F7A7A6C1D
:1017D00065004E6F7A7A6C65004368616E676520BC
:1017E00066696C616D656E74004E6F2053442063B2
:1017F000617264005072696E742066726F6D20535E
:10180000440053746F70207072696E740052657377
:10181000756D65207072696E740050617573652016
:101820007072696E74004261636B0054656D70651F
:10183000726174757265004D383400446973616279
:101840006C65207374657070657273004D6F76659A
:10185000206178697300473238004175746F2068E1
:101860006F6D65004261636B00436F6F6C646F77EF
:101870006E0046616E2073706565640046616E207F
:1018800073706565640042656400426564004E6F74
:101890007A7A6C65004E6F7A7A6C65004261636B90
:1018A000004A6F67004D38340044697361626C65AB
:1018B000207374657070657273004732380041752B
:1018C000746F20686F6D65004261636B004D6F76C9
:1018D0006520302E316D6D004D6F766520316D6D58
:1018E000004D6F76652031306D6D004261636B0095
:1018F0004578747275646572004D6F7665205A0084
:101900004D6F76652059004D6F7665205800426115
:10191000636B004578747275646572005A005900F3
:10192000580043616E63656C00596573004E6F002B
:10193000436C65616E206E6F7A7A6C653F00436C14
:1019400065616E206E6F7A7A6C652E2E00202020E5
:10195000507265737320746F2061626F727400013E
:10196000200054656D703A0048656174696E6720A7
:101970006E6F7A7A6C652E2E00202020507265736F
:101980007320746F2061626F7274000120005465CF
:101990006D703A0048656174696E67206265642EF7
:1019A0002E00556E6C6F6164004C6F6164004C6F6B
:1019B0006164284C6F616465642129004261636B36
:1019C000004D3730320001200048656174696E6750
:1019D0002E2E2E004E6F7A7A6C65004E6F7A7A6CDE
:1019E00065004261636B004D3730310001200048D3
:1019F000656174696E672E2E2E004E6F7A7A6C6563
:101A0000004E6F7A7A6C650041626F727400537099
:101A10006565640050617573696E672E2E2E000532
:101A20002E2E004261636B004D3234004731205A44
:101A3000313000473238004D323320257300426C7C
:101A40006F636B73204F6E652072656164792E0041
:101A50004D383420582059205A204500473238202C
:101A60005820590050617573696E672E2E2E004301
:101A70006172642072656D6F7665640043617264A3
:101A800020696E7365727465640076312E31004290
:101A90006C6F636B73204F6E650046696C616D659A
:101AA0006E7420756E6C6F6164656421006E6F7A70
:101AB0007A6C6520686561742075702E2E00576100
:101AC000697420666F72006368616E67652066697D
:101AD0006C616D656E742E00507265737320746F47
:101AE00000556E6C6F6164696E672066696C616D2C
:101AF000656E742E2E00506C656173652077616988
:101B0000742E0046696C616D656E74206C6F616443
:101B10006564210066696C616D656E742070757214
:101B20006765642E00507265737320616674657218
:101B3000004C6F6164696E672066696C616D656EEB
:101B4000742E2E00506C6561736520776169742E68
:101B500000616E6420707265737320627574746FB7
:101B60006E2E00496E736572742066696C616D65D6
:101B70006E740020506C617465206C6576656C65D0
:101B800064210020202020204973206974206F6B7D
:101B90003F202020202020202020507265737320B9
:101BA000746F20656E640041646A75737420666F9B
:101BB0007572746820706F696E7420202026205022
:101BC000726573732074686520627574746F6E003B
:101BD00041646A75737420746869726420706F69F7
:101BE0006E742020202620507265737320746865FF
:101BF00020627574746F6E0041646A75737420732B
:101C000065636F6E6420706F696E742020262050AB
:101C1000726573732074686520627574746F6E00EA
:101C20002041646A75737420666972737420706FE2
:101C3000696E742020262050726573732074686565
:101C400020627574746F6E0020204C6576656C6937
:101C50006E6720706C6174652E2E2E20202020501F
:101C60007265737320746F20737461727420202006
:101C700000202020507265737320746F2061626FA2
:101C800072740001200054656D703A00436F6F6CF0
:101C9000696E672E2E2E004D3730300020202050E8
:101CA0007265737320746F2061626F72740001201B
:101CB0000054656D703A0048656174696E67206212
:101CC00065642E2E004D373031004D373030000026
:101CD000002100240027002A002D003000330001DD
:101CE000010000040107010A01000022002500286C
:101CF000002B002E00310034000201000005010815
:101D0000010B01000020002300260029002C002FD9
:101D1000003200000100000301060109010505056C
:101D200005070508080808020202020A0A08080452
:101D30000404040101010101010101030303030380
:101D4000030303040707070C0C0C0C0C0C0C0C020F
:101D500002020206060606060606060B0B0B0B0B16
:101D60000B0B0B010210202008081020401020400F
:101D7000800201020108040201010204081020404F
:101D8000808040201008040201800402018040206D
:101D90001008040201080402010102040810204096
:101DA0008001020408102040800000090A02080B8C
:101DB0000C0D0706030401000000000000000000F5
:101DC0000000000000000000000000000000000013
:101DD000000000000011100F0000000000000000D3
:101DE00000000000000000000000000000000002F1
:101DF000494E46494E4954594E414ECDCCCC3D0AF0
:101E0000D7233C17B7D13877CC2B329595E6241FD2
:101E1000B14F0A000020410000C84200401C46208B
:101E2000BCBE4CCA1B0E5AAEC59D7400DF278C2A5F
:101E3000ABAB0BBC872A11241FBECFEFD1E2DEBFB4
:101E4000CDBF00E00CBF15E0A0E0B2E0E0E0F9E9B2
:101E500001E00BBF02C007900D92A839B107D9F776
:101E60001BBE14E1A8E9B5E001C01D92AB39B10772
:101E7000E1F71EE1C4E3DEE104C02297FE010E9407
:101E800026CCCC32D107C9F70E9422C30C9474CC63
:101E90000C940000A0E0B0E0E0E5FFE00C9443CC3F
:101EA000EC015B016115710519F0FB0191838083E1
:101EB000F9908F2D90E00E942ACC892BC9F7FDE282
:101EC000FF1621F4F990EE24E39405C02BE2F216FC
:101ED00009F4F990EE248E0101501040C80160EF22
:101EE0007DE143E050E069D2892BF9F48E010E5F69
:101EF0001F4FC80163EF7DE145E050E05ED2892BC2
:101F000019F48E01095F1F4FA114B10419F0F501F6
:101F100011830083E0FC04C070E090E080E813C00F
:101F200070E090E080E86FEF07C1C80168EF7DE1E5
:101F300043E050E042D2892B69F4A114B10429F4A2
:101F400070E090E080EC6FE7F7C02296F501D18356
:101F5000C083F6CF8824992440E050E060E070E030
:101F6000EF2DE053EA30A0F5F2E0EF2A8E2D90E05D
:101F70009C0128703070E2FE06C0232B79F508948E
:101F8000811C911C2BC0232B19F008948108910807
:101F9000DB01CA0112E0880F991FAA1FBB1F1A9507
:101FA000D1F7480F591F6A1F7B1F440F551F661F2B
:101FB000771F4E0F511D611D711D483929E95207C8
:101FC00029E9620729E1720748F084E0E82A06C09F
:101FD000EE3F31F4E3FC39C098E0E92AF990C0CF34
:101FE000E53311F0E53189F529912D3219F4E0E15D
:101FF000EE2A05C02B3219F081E090E003C0299150
:1020000082E090E0E22FE053EA3018F0C81BD90BD1
:102010001CC020E030E0FCE020383F075CF4C90140
:10202000880F991F880F991F280F391F220F331F00
:102030002E0F311DE991E053EA3068F3E4FE03C04E
:10204000309521953F4F820E931ECE2CDD24E1FE6C
:1020500007C0A114B10421F02197F501D183C083F9
:10206000CB01BA010E948FC87B018C01F3E0CF2223
:10207000DD2423E0C216D10421F417FB109517F9D3
:10208000109557016801C801B70120E030E040E039
:1020900050E00E94EFC7882309F44AC097FE0DC0A4
:1020A0002FE0E22E2EE1F22E9094819491089394E9
:1020B000C0E2D0E000E010E012C097E2E92E9EE11D
:1020C000F92EF6CFF7012591359145915491C6012E
:1020D000B5010E94CFCA5B016C018C1A9D0A8C1657
:1020E0009D0684F7D595C7950F5F1F4F06301105E4
:1020F00029F08CEF9FEFE80EF91EF1CFC501D60154
:102100007C018D018C2D880F8D2D881F8F3F51F004
:10211000C601B50120E030E040E050E00E94EFC78A
:10212000882331F482E290E090939A14809399147A
:102130007E2D9F2D802F612F272F392F482F562F2F
:10214000B901CA01CDB7DEB7ECE00C945FCC2F9299
:102150003F925F926F927F928F929F92AF92BF92C7
:10216000CF92DF92EF92FF920F931F93CF93DF9363
:102170008C011B01EA016115710519F0FB019183C6
:102180008083209749F0CE010297839728F020E0C2
:1021900030E040E050E0F6C0F801A1908F018A2DB8
:1021A00090E00E942ACC892BB9F7FDE2AF1631F4FA
:1021B000F801A1908F015524539407C0FBE2AF169C
:1021C00019F4F801A1908F015524209719F0C0311E
:1021D000D105C1F4F0E3AF1679F4F80180818837B6
:1021E00011F0883549F4F801A1800E5F1F4FF2E02D
:1021F0005F2AC0E1D0E006C0209721F480E3A81652
:10220000E9F427C0C830D10531F1C930D10524F433
:10221000C230D10531F50CC0CA30D10589F0C031CA
:10222000D105F9F4C12CD12CE12CB8E0FB2E28C04B
:10223000C12CD12CE12CA0E4FA2E22C0CAE0D0E0BF
:10224000FCECCF2EFCECDF2EFCECEF2EFCE0FF2EA6
:1022500017C0C8E0D0E0C12CD12CE12CE0E1FE2E6B
:102260000FC09E01442737FD4095542F60E070E079
:1022700080E090E80E94E7CBC901DA016C017D01A2
:1022800020E030E040E050E060E03E01882477FC50
:102290008094982C70EDB72EBA0CE9E0EB1570F431
:1022A0008A2D81548A3118F499ECB92E06C08A2DF2
:1022B00081568A3150F589EAB82EBA0C8B2D90E000
:1022C0008C179D0714F56F3FE1F0C216D306E406A4
:1022D000F506B0F0CA01B901A40193010E94A1CB97
:1022E0009B01AC012B0D311D411D511D2130F0E032
:1022F0003F07F0E04F07F0E85F0710F461E001C02E
:102300006FEFF801A1908F01C5CF2114310481F046
:10231000662331F001501040F1011183008308C0A1
:1023200051FE1AC002501040F1011183008314C005
:1023300067FF12C050FC05C02FEF3FEF4FEF5FE784
:1023400004C020E030E040E050E882E290E090936A
:102350009A148093991416C050FE08C05095409569
:10236000309521953F4F4F4F5F4F0CC057FF0AC02C
:1023700082E290E090939A14809399142FEF3FEFAC
:102380004FEF5FE7B901CA01DF91CF911F910F9124
:10239000FF90EF90DF90CF90BF90AF909F908F9085
:1023A0007F906F905F903F902F900895FB01DC012C
:1023B00005900D920020E1F70895FB01DC014150EA
:1023C000504088F08D9181341CF08B350CF4805E88
:1023D000659161341CF06B350CF4605E861B6111F5
:1023E00071F3990B0895881BFCCFFB01DC01415070
:1023F000504048F005900D920020C9F701C01D9291
:1024000041505040E0F70895FB0155915523A9F044
:10241000BF01DC014D9145174111E1F759F4CD01A0
:102420000590002049F04D9140154111C9F3FB0181
:102430004111EFCF81E090E001970895FB01DC01AD
:1024400004C08D910190801921F441505040C8F78B
:10245000881B990B0895FB01DC0102C001900D92CD
:1024600041505040D8F70895FB01DC010D90002049
:10247000E9F7119701900D920020E1F70895FC0112
:102480008191861721F08823D9F7992708953197EC
:10249000CF010895FB01DC0101900D920020E1F7CE
:1024A0000895FB01DC014150504030F08D910190C6
:1024B000801919F40020B9F7881B990B0895FB01C6
:1024C000DC014150504048F001900D920020C9F7C6
:1024D00001C01D9241505040E0F70895AEE0B0E0D9
:1024E000E4E7F2E10C944BCC0E891F898EE08C83DB
:1024F0001A8309838FEF9FE79E838D839E01265E5B
:102500003F4FCE010196688D798DA9010AD02F81A8
:102510003885020F131FF80110822E96E4E00C9408
:1025200067CCABE0B0E0E7E9F2E10C943DCC3C01D4
:102530002B015A01FC0117821682838181FD03C0A1
:102540006FEF7FEFB9C19AE0892E1E010894211C1C
:10255000311CF3012381F20123FD859123FF819139
:102560002F01882309F4A5C1853239F423FD859113
:1025700023FF81912F01853221F490E0B301B7D17F
:10258000E8CF982FFF24EE249924FFE1FF15D0F027
:102590009B3269F09C3228F4903259F0933291F4D6
:1025A0000EC09D3249F0903369F441E024C052E0FE
:1025B000F52A84E0F82A28C098E0F92A25C0E0E14D
:1025C000FE2A22C0F7FC29C0892F80538A3070F47C
:1025D000F6FE05C0989C902C1124980E15C0E89C1E
:1025E000E02C1124E80EF0E2FF2A0EC09E3229F4FE
:1025F000F6FC5FC140E4F42A07C09C3619F450E8A9
:10260000F52A02C0983649F4F20123FD959123FF83
:1026100091912F01992309F0B8CF892F85548330E8
:1026200018F08052833038F444E050E0A40EB51E18
:102630005FE359830FC0933631F0933779F09335C8
:1026400009F052C01FC0F5018081898342E050E04B
:10265000A40EB51E610101E010E011C0F501C080BB
:10266000D180F6FC03C06FEF7FEF02C0692D70E0F0
:1026700042E050E0A40EB51EC6012ED18C015FE7EA
:10268000F52213C0F501C080D180F6FC03C06FEFC6
:102690007FEF02C0692D70E042E050E0A40EB51E4D
:1026A000C6010FD18C0150E8F52AF3FE06C018C010
:1026B00080E290E0B3011BD1EA948E2D90E00817E0
:1026C0001907B0F30DC0F601F7FC8591F7FE819173
:1026D0006F0190E0B3010BD1E110EA94015010407A
:1026E0000115110581F7E2C0943611F0993661F5B4
:1026F000F7FE08C0F501208131814281538184E0D9
:1027000090E00AC0F501808191819C01442737FD4A
:102710004095542F82E090E0A80EB91E9FE6F92262
:1027200057FF09C050954095309521953F4F4F4F29
:102730005F4FE0E8FE2ACA01B901A1012AE030E0BA
:1027400002D1D82ED2183FC0953729F41F2D1F7EF5
:102750002AE030E01DC01F2D197F9F3661F09037B1
:1027600020F4983509F0A5C00FC0903739F098379C
:1027700009F09FC004C028E030E00AC0106114FDD9
:10278000146020E130E004C014FD166020E132E066
:1027900017FF08C0F501608171818281938144E057
:1027A00050E008C0F50180819181BC0180E090E09B
:1027B00042E050E0A40EB51EA101C5D0D82ED2181B
:1027C0008FE7F82EF122F6FE0BC05EEFF522D9144A
:1027D00038F4F4FE07C0F2FC05C08FEEF82202C008
:1027E0001D2D01C0192DF4FE0DC0FE01ED0DF11DD2
:1027F0008081803319F499EEF92208C01F5FF2FE40
:1028000005C003C08F2D867809F01F5F0F2DF3FCE4
:1028100013C0F0FE0EC01E1510F09D2C0AC09D2C9A
:102820009E0C911A1E2D05C080E290E0B3015FD08E
:102830001F5F1E15C8F304C01E1510F4E11A01C075
:10284000EE2404FF0EC080E390E0B30150D002FFFD
:102850001BC001FD03C088E790E00EC088E590E052
:102860000BC0802F867881F001FF02C08BE201C08F
:1028700080E2F7FC8DE290E0B30139D005C080E33F
:1028800090E0B30134D09A94D914C8F3DA94F101EA
:10289000ED0DF11D808190E0B30129D0DD20B1F76D
:1028A00005C080E290E0B30122D0EA94EE20C9F79F
:1028B00050CEF30166817781CB012B96E2E10C9437
:1028C00059CCFC010590615070400110D8F78095FB
:1028D00090958E0F9F1F0895FC01615070400190EC
:1028E0000110D8F7809590958E0F9F1F08950F9334
:1028F0001F93CF93DF938C01EB018B8181FF1BC072
:1029000082FF0DC02E813F818C819D812817390760
:1029100064F4E881F9810193F983E88306C0E885CE
:10292000F985802F1995892B31F48E819F8101962D
:102930009F838E8302C00FEF1FEFC801DF91CF91FD
:102940001F910F910895FA01AA27283051F12031E3
:1029500081F1E8946F936E7F6E5F7F4F8F4F9F4F33
:10296000AF4FB1E03ED0B4E03CD0670F781F891F75
:102970009A1FA11D680F791F8A1F911DA11D6A0F43
:10298000711D811D911DA11D20D009F468943F91F6
:102990002AE0269F11243019305D3193DEF6CF01F5
:1029A0000895462F4770405D4193B3E00FD0C9F7BB
:1029B000F6CF462F4F70405D4A3318F0495D31FD28
:1029C0004052419302D0A9F7EACFB4E0A69597957B
:1029D000879577956795BA95C9F700976105710551
:1029E00008959B01AC010A2E06945795479537959B
:1029F0002795BA95C9F7620F731F841F951FA01DF5
:102A00000895FC01128213820895FC0183818823BA
:102A100011F081E082830895CF93DF93DC01FC0104
:102A2000EB55FE4F808191810097C9F10197918309
:102A30008083ED01CC5ADF4FFD01ED58FF4F8BE154
:102A4000019009928150E1F7FD01EE5AFF4FAF5816
:102A5000BF4F8D919C911197A157B0409183808376
:102A6000FD01ED58FF4F20E030E0AD014B555E4FCA
:102A700010C02F5F3F4FEF01DF015F968BE10D909C
:102A800009928150E1F7858D968D329791838083ED
:102A9000B196DA018D919C912817390750F3DF9197
:102AA000CF910895FC0180E395E091838083878135
:102AB000882321F0CF0104960C9423700895CF92BF
:102AC000DF92EF92FF920F931F93DF93CF93CDB7D7
:102AD000DEB76F970FB6F894DEBF0FBECDBF8C0187
:102AE0006B01095A1F4FD8018C910755104088235C
:102AF00021F42FE2E22EF12C03C090E5E92EF12C17
:102B0000E00EF11E80E395E09A8389831C821B828C
:102B100018861D82B7016C5F7F4FCE010596A60116
:102B200021E00E940F77882391F5EBE3F1E0949187
:102B300008C08091C00085FFFCCF9093C6003196FD
:102B400094919923B1F7E1E4F1E0949108C0809168
:102B5000C00085FFFCCF9093C600319694919923D5
:102B6000B1F709C08091C00085FFFCCF0894C11C5B
:102B7000D11C9093C600F6019081992399F780911A
:102B8000C00085FFFCCF8AE08093C6005AC0F801E0
:102B9000EB55FE4F208131812A30310508F040C0CD
:102BA0002F5F3F4F3183208321503040F90185E072
:102BB000EE0FFF1F8A95E1F7E21BF30BED58FF4F75
:102BC000E00FF11F13C0AF01415E5F4FBF018BE10A
:102BD000DB010D90BD01DA010D92AD018150C1F70D
:102BE000929182913296968F858F7F9721503040B7
:102BF000BFEF2E3F3B0739F7D801AD58BF4FF70164
:102C000034968BE101900D928150E1F70F581F4FE0
:102C1000F70182819381D8018D939C9301571040D5
:102C2000D801AC5ABF4FFE0135968BE101900D9251
:102C30008150E1F70E5A1F4F8B819C81F8019183DF
:102C40008083CE0101962EDF6F960FB6F894DEBF1B
:102C50000FBECDBFCF91DF911F910F91FF90EF90ED
:102C6000DF90CF900895EF92FF920F931F938C0106
:102C70003EECE32E31E0F32EE80EF91EC7010E9470
:102C8000D66FC7010E942370F801108211821F9134
:102C90000F91FF90EF900895CF92DF92EF92FF9205
:102CA0000F931F93CF93DF937C016B01DB010D909A
:102CB0000020E9F78D0101501040061B170BEEECC8
:102CC000F1E0EE0EFF1ED7011C92E2E3FEEFEE0EE6
:102CD000FF1ECB016EE470E0D2DBEC01009731F413
:102CE000F8013197EC0DFD1D86010CC060E270E02B
:102CF000C6DB8C010F5F1F4FCE016AE270E0BFDBC5
:102D0000FC0131978DE081838AE082831382C701C1
:102D100086539E4FB8010E9408788EEC91E0E80E31
:102D2000F91ED7018C91882319F1EBE6F1E094911B
:102D300008C08091C00085FFFCCF9093C6003196FB
:102D400094919923B1F7E2E7F1E0949108C0809162
:102D5000C00085FFFCCF9093C600319694919923D3
:102D6000B1F78091C00085FFFCCF8AE08093C60058
:102D7000DF91CF911F910F91FF90EF90DF90CF9057
:102D80000895CF93DF93EC018B81882309F43BC036
:102D9000EAE9F1E0949108C08091C00085FFFCCF82
:102DA0009093C600319694919923B1F7CD57DD4F9A
:102DB000488159816A817B81C358D2408CE196E079
:102DC0002AE030E00E947828E8E9F1E0949108C018
:102DD0008091C00085FFFCCF9093C60031969491FE
:102DE0009923B1F7C558DD4F488159816A817B81AC
:102DF0008CE196E02AE030E00E9478288091C000C3
:102E000085FFFCCF12C0E8E8F1E0949108C0809102
:102E1000C00085FFFCCF9093C60031969491992312
:102E2000B1F78091C00085FFFCCF8AE08093C60097
:102E3000DF91CF9108952F923F924F925F926F92C0
:102E40007F928F929F92AF92BF92CF92DF92EF923A
:102E5000FF920F931F93DF93CF93CDB7DEB7AC975D
:102E60000FB6F894DEBF0FBECDBF5C014B01FC0175
:102E70008381882309F434C1C50182539E4F0E9487
:102E80002370F50112821A8A1D8A198A188A80E332
:102E900095E09F878E875EE4C52ED12CCA0CDB1C83
:102EA0002FE230E0A20EB31EF601B182A08221ED26
:102EB0003FEFA20EB31EF40180818F3209F08DC066
:102EC000C4016FE270E0DBDA7C010894E11CF11CC4
:102ED0003E010894611C711C260142E1242E312C14
:102EE0002C0E3D1E75C0C7016FE270E0C8DA6C01A0
:102EF000009709F480C0E816F90608F07CC08C0140
:102F00000E191F09C301B701A801D9DA060D171D53
:102F1000F8011082F30107C08091C00085FFFCCF4B
:102F200031969093C60090819923B1F78091C000AB
:102F300085FFFCCFFAE0F093C600F2016081718159
:102F40006115710519F460E070E002C06C5F7F4F9D
:102F5000C101A30121E00E940F77882371F5E6EDFE
:102F6000F1E0949108C08091C00085FFFCCF909360
:102F7000C600319694919923B1F7FE01319607C0AE
:102F80008091C00085FFFCCF31969093C600908160
:102F90009923B1F7E4EDF1E0949108C08091C0006D
:102FA00085FFFCCF9093C600319694919923B1F799
:102FB0008091C00085FFFCCF8DC02EE030E02C0F4B
:102FC0003D1FF2013183208376010894E11CF11C3E
:102FD000E114F10409F087CF0BC080E590E0A80E62
:102FE000B91EF601B182A08220EB3FEFA20EB31E04
:102FF000D82C092D02C0DE2C0F2D8EE490E0A80EF7
:10300000B91EF5018081918122EB3FEFA20EB31E24
:10301000009719F480E090E001C004966D2D702FA8
:103020000E94DB77882339F1E6ECF1E0949108C047
:103030008091C00085FFFCCF9093C600319694919B
:103040009923B1F78D2D902F9C01F90107C0809134
:10305000C00085FFFCCF31969093C60090819923E4
:10306000B1F783E892E0A80EB91EF5011082118233
:103070001282138232C0EEEAF1E0949108C080918E
:10308000C00085FFFCCF9093C600319694919923A0
:10309000B1F78D2D902F9C01F90107C08091C000E0
:1030A00085FFFCCF31969093C60090819923B1F7AC
:1030B000ECEAF1E0949108C08091C00085FFFCCF5C
:1030C0009093C600319694919923B1F78091C000F6
:1030D00085FFFCCF8AE08093C600CE010E96E2DC2D
:1030E000AC960FB6F894DEBF0FBECDBFCF91DF9187
:1030F0001F910F91FF90EF90DF90CF90BF90AF9016
:103100009F908F907F906F905F904F903F902F9007
:103110000895BF92CF92DF92EF92FF920F931F9389
:10312000CF93DF938C01EB018FE28993EE24E3943C
:10313000FF2475EAC72E71E0D72EC00ED11E6FE1B5
:10314000B62E14C0FB9CC00111248D589F4F800FD8
:10315000911FBE010E94337002C02196E3948881C2
:10316000882319F08CE88E15C0F7F3942F2D30E0EA
:10317000F601808191812817390720F3E7FC07C009
:10318000C80182539E4FBE010E94337001C0188255
:10319000DF91CF911F910F91FF90EF90DF90CF9033
:1031A000BF9008952F923F924F925F926F927F92BD
:1031B0008F929F92AF92BF92CF92DF92EF92FF9247
:1031C0000F931F93DF93CF93CDB7DEB7AD970FB6B5
:1031D000F894DEBF0FBECDBF6C014B014DA7DC01E3
:1031E00013968C91882309F448C3E1EDF1E0CE0EEB
:1031F000DF1ED6018C91EFE2FEEFCE0EDF1E88239C
:1032000009F418C1222309F0E0C029EE31E0C20E12
:10321000D31ED6018C91E7E1FEEFCE0EDF1E882390
:1032200071F1EBE6F1E0949108C08091C00085FF58
:10323000FCCF9093C600319694919923B1F7EEEAB2
:10324000F2E0949108C08091C00085FFFCCF90937C
:10325000C600319694919923B1F78CE196E061E034
:1032600070E04AE050E00E94C7288091C00085FFCE
:10327000FCCF8AE08093C6000E94DF2AFEC2EBE307
:10328000F1E0949108C08091C00085FFFCCF90933D
:10329000C600319694919923B1F7E5E9F2E0949153
:1032A00008C08091C00085FFFCCF9093C600319686
:1032B00094919923B1F7F40107C08091C00085FF74
:1032C000FCCF31969093C60090819923B1F7EAE83C
:1032D000F2E0949108C08091C00085FFFCCF9093EC
:1032E000C600319694919923B1F7C6012EEE31E0D4
:1032F000C20ED31EB6010DDF4BEF5FEFC40ED51E1D
:10330000D6019C91E7E1FEEFCE0EDF1E8DE8989F7F
:10331000F0011124E251FE4FEC0DFD1D07C080911C
:10332000C00085FFFCCF31969093C6009081992311
:10333000B1F7E4E8F2E0949108C08091C00085FF05
:10334000FCCF9093C600319694919923B1F723E86E
:1033500032E0C20ED31ED6014D915D916D917C91EC
:10336000EDE7FDEFCE0EDF1E8CE196E02AE030E0C7
:103370000E9478288091C00085FFFCCF8AE080936E
:10338000C600A60147515E4FDA012C91E22FF0E012
:10339000EE0FFF1FEE0FFF1FEC0DFD1DE651FE4F60
:1033A00083E892E0C80ED91ED6014D905D906D90D5
:1033B0007C908DE79DEFC80ED91E408251826282BB
:1033C00073822F5FDA012C932FC0EBE3F1E094912D
:1033D00008C08091C00085FFFCCF9093C600319655
:1033E00094919923B1F7E3E7F2E0949108C08091BA
:1033F000C00085FFFCCF9093C6003196949199232D
:10340000B1F7F40107C08091C00085FFFCCF319671
:103410009093C60090819923B1F78091C00085FFF9
:10342000FCCF8AE08093C600C60182539E4F0E9463
:10343000237039C0E9EEF1E0CE0EDF1ED6011C92FA
:10344000E7E1FEEFCE0EDF1EEBE3F1E0949108C062
:103450008091C00085FFFCCF9093C6003196949177
:103460009923B1F7E2E6F2E0949108C08091C000A0
:1034700085FFFCCF9093C600319694919923B1F7C4
:10348000F40107C08091C00085FFFCCF3196909376
:10349000C60090819923B1F78091C00085FFFCCFD1
:1034A0008AE08093C600D60112961C921A8A1D8A61
:1034B000198A188A80E395E09F878E87FEE4AF2EF5
:1034C000B12CAC0CBD1CEFE2F0E0CE0EDF1ED5013E
:1034D000CD92DC92E1EDFFEFCE0EDF1ED4018C9198
:1034E0008F3209F090C0C4016FE270E00E943F1279
:1034F0007C010894E11CF11C3E010894611C711CC4
:103500002501E2E12E2E312C2C0E3D1E77C0C70185
:103510006FE270E00E943F125C01009709F481C0E5
:10352000E816F90608F07DC08C010E191F09C301C9
:10353000B701A8010E945F12060D171DF801108245
:10354000F30107C08091C00085FFFCCF31969093B6
:10355000C60090819923B1F78091C00085FFFCCF10
:10356000FAE0F093C600D2016D917C91611571056E
:1035700019F460E070E002C06C5F7F4FC101A301ED
:1035800021E00E940F77882371F5EEE4F2E0949138
:1035900008C08091C00085FFFCCF9093C600319693
:1035A00094919923B1F7FE01319607C08091C00034
:1035B00085FFFCCF31969093C60090819923B1F797
:1035C000ECE4F2E0949108C08091C00085FFFCCF4C
:1035D0009093C600319694919923B1F78091C000E1
:1035E00085FFFCCF1BC12EE030E02C0F3D1FF20108
:1035F0003183208375010894E11CF11CE114F1046E
:1036000009F085CF0BC040E550E0C40ED51ED501B2
:10361000CD92DC92E0EBFFEFCE0EDF1E082DF92CF1
:1036200001C00E2DF601E25BFF4F2DA5222309F408
:10363000B1C0608171816115710519F460E070E0BD
:1036400002C06C5F7F4FC60182539E4F402F5F2D9B
:1036500021E00E940F77882309F46CC04FED51E000
:10366000C40ED51ED6014D915D916D917C91ECE912
:10367000F0E0CE0EDF1ED6014D935D936D937C93EB
:103680001397E5E8FDEFCE0EDF1EEEE3F2E0949136
:1036900008C08091C00085FFFCCF9093C600319692
:1036A00094919923B1F7802F9F2D9C01F90107C0B8
:1036B0008091C00085FFFCCF31969093C600908129
:1036C0009923B1F7E6E3F2E0949108C08091C0003D
:1036D00085FFFCCF9093C600319694919923B1F762
:1036E0008CE196E02AE030E00E9478288091C000CA
:1036F00085FFFCCF8AE08093C60023E832E0C20E4B
:10370000D31ED6011D921D921D921C921397E8E2C2
:10371000F2E0949108C08091C00085FFFCCF9093A7
:10372000C600319694919923B1F78091C00085FF2E
:10373000FCCF99C0E4E1F2E0949108C08091C00010
:1037400085FFFCCF9093C600319694919923B1F7F1
:10375000802F9F2D9C01F90107C08091C00085FF3B
:10376000FCCF31969093C60090819923B1F7E2E1A6
:10377000F2E0949108C08091C00085FFFCCF909347
:10378000C600319694919923B1F78091C00085FFCE
:10379000FCCF44C0608171816115710519F460E04E
:1037A00070E002C06C5F7F4FC60182539E4F402F76
:1037B0005F2D26E50E940F77882309F033C0EEEFD6
:1037C000F1E0949108C08091C00085FFFCCF9093F8
:1037D000C600319694919923B1F7802F9F2D9C01BB
:1037E000F90107C08091C00085FFFCCF319690930E
:1037F000C60090819923B1F7ECEFF1E0949108C0F5
:103800008091C00085FFFCCF9093C60031969491C3
:103810009923B1F78091C00085FFFCCF8AE08093A7
:10382000C60028C081E0F6018083EAEEF1E09491C1
:1038300008C08091C00085FFFCCF9093C6003196F0
:1038400094919923B1F7F40107C08091C00085FFDE
:10385000FCCF31969093C60090819923B1F7809167
:10386000C00085FFFCCF8AE08093C600802F9F2D8B
:103870000E94E0ABCE010E9615D9AD960FB6F89426
:10388000DEBF0FBECDBFCF91DF911F910F91FF9093
:10389000EF90DF90CF90BF90AF909F908F907F90F0
:1038A0006F905F904F903F902F900895EF92FF920E
:1038B0000F931F93CF93DF93EC010E94DE7D8E0167
:1038C00007511E4FD8018C919EECE92E91E0F92E04
:1038D000EC0EFD1E882399F1C7010E942370F801A8
:1038E0006081615060838DE8689FB001112462514E
:1038F0007E4F6C0F7D1FCE0141E021E053DCD801EB
:10390000EC91F0E0EE0FFF1FEE0FFF1FEC0FFD1F1D
:10391000E651FE4F4081518162817381CD57DD4F69
:10392000488359836A837B83C358D240C7010E946E
:103930000C6F8B81882389F181E08A832EC00E94DD
:10394000BB7DC7010E9423701A828FE291E00E9422
:10395000363680918F0B882301F110928F0B809166
:10396000DC08C82FD0E0CC0FDD1FCD52DD4E6881C2
:103970007981882777FD8095982F0E9491C82091A2
:1039800080043091810440918204509183040E940C
:10399000FDC9181614F419821882DF91CF911F9176
:1039A0000F91FF90EF900895FC0181E08183CF019A
:1039B00040E021E0F7CBEF92FF920F931F93CF935C
:1039C000DF938C01FC01138286A9882321F0C801B2
:1039D000C3960E94237027EAE22E21E0F22EE00E29
:1039E000F11EC70160E045E30E94D26D882309F50E
:1039F000EBE3F1E0949108C08091C00085FFFCCF1B
:103A00009093C600319694919923B1F7EFE1F3E0DA
:103A1000949108C08091C00085FFFCCF9093C600B0
:103A2000319694919923B1F78091C00085FFFCCF26
:103A30007DC0E801C455DE4FCE01B70141E00E94D0
:103A40009978882341F5CE01B70140E00E9499782A
:103A5000882309F5EBE6F1E0949108C08091C0005D
:103A600085FFFCCF9093C600319694919923B1F7CE
:103A7000ECE0F3E0949108C08091C00085FFFCCF9A
:103A80009093C600319694919923B1F78091C0002C
:103A900085FFFCCF4BC0C801C396BE010E941573C1
:103AA000882309F5EBE6F1E0949108C08091C0000D
:103AB00085FFFCCF9093C600319694919923B1F77E
:103AC000ECEFF2E0949108C08091C00085FFFCCF3C
:103AD0009093C600319694919923B1F78091C000DC
:103AE00085FFFCCF23C081E0F8018383EBE3F1E0A5
:103AF000949108C08091C00085FFFCCF9093C600D0
:103B0000319694919923B1F7E1EFF2E0949108C0D6
:103B10008091C00085FFFCCF9093C60031969491B0
:103B20009923B1F78091C00085FFFCCF8AE0809394
:103B3000C600D801AC5ABF4FF801F3968BE1019053
:103B40000D928150E1F7F80181A992A90E5A1F4FF9
:103B5000F8019183808302551040C8018F96025B63
:103B60001F4FF80191838083DF91CF911F910F91B7
:103B7000FF90EF9008952F923F924F925F926F9235
:103B80007F929F92AF92BF92CF92DF92EF92FF927D
:103B90000F931F93DF93CF93CDB7DEB7CC55D040B3
:103BA0000FB6F894DEBF0FBECDBF6C01662311F5D2
:103BB00027E832E0C20ED31ED6018C91E9E7FDEF73
:103BC000CE0EDF1E882309F4E3C02FE732E0C20ED9
:103BD000D31ED601ED90FD900D911C91E1E8FDEF13
:103BE000CE0EDF1E0E945DC0E616F7060807190715
:103BF00008F4CEC027E832E0C20ED31ED6011C92D4
:103C0000E9E7FDEFCE0EDF1ED60113968C918823D7
:103C100039F4C601D0DEF6018381882309F4B8C0E7
:103C200000D000D0EDB7FEB731967E010894E11CBC
:103C3000F11CADB7BEB71296FC92EE92119782E6D8
:103C400091E093838283D6019D968D919C919E975E
:103C5000958384830E946E128701EDB7FEB7369676
:103C60000FB6F894FEBF0FBEEDBF57010AC0D801D2
:103C70008C91992787FD90950E9432CCF801819311
:103C80008F01F50101900020E9F73197EA19FB094E
:103C9000802F8E198E175CF363E3A62EB12CAC0C2B
:103CA000BD1CC50140E050E060E070E00E940C6F78
:103CB00099245DE3E52EF12CEC0EFD1E2E010894F7
:103CC000411C511C4FE1642E712C6C0E7D1E3BE596
:103CD000232E31E0332E42C0D8018C9190E00E9417
:103CE00032CCF80181938F01D7010D900020E9F7C4
:103CF0001197AE19BF09802F8E198A176CF327967A
:103D00008FAD27978E3751F1C701B20145E050E0E2
:103D10000E945112009711F500D000D0EDB7FEB708
:103D20003196ADB7BEB712967C926E9211973382E0
:103D30002282558244820E946E12EDB7FEB73696FB
:103D40000FB6F894FEBF0FBEEDBFC3010E94A2558F
:103D500087E591E00E94363699249394C501B70116
:103D600040E050E00E943472181614F48701BCCF72
:103D7000992041F48FEF9FEFD6019E969C938E93EE
:103D80009D9706C0F60185A596A5019696A785A7DD
:103D9000C45ADF4F0FB6F894DEBF0FBECDBFCF9130
:103DA000DF911F910F91FF90EF90DF90CF90BF9028
:103DB000AF909F907F906F905F904F903F902F902B
:103DC00008952F923F924F925F926F927F928F92BF
:103DD0009F92AF92BF92CF92DF92EF92FF920F939A
:103DE0001F93DF93CF93CDB7DEB7CF58D0400FB638
:103DF000F894DEBF0FBECDBF8C013B016A0184E0A9
:103E000090E0C80ED91EF8017196C757DF4FF983AD
:103E1000E883C958D040C8010496CA57DF4F998338
:103E20008883C658D040C857DF4F1882C858D04042
:103E3000B6E6EB2EF12CEC0EFD1EF7013B96C557B6
:103E4000DF4FF983E883CB58D040A8E88A2EA2E060
:103E50009A2E800E911EFAE8AF2EF2E0BF2EA00E31
:103E6000B11EEEE02E2E312C2C0E3D1E77E4472E97
:103E7000512C4C0E5D1EC2010496C357DF4F99832F
:103E80008883CD58D040EBE3F1E09491C157DF4FE8
:103E90009883CF58D0404EC1F7018385482F50E01A
:103EA000BA01687170706031710509F051C1F40197
:103EB000208131812130310509F44AC12230310598
:103EC00009F446C1F701DE0111969081903239F074
:103ED0008E2F8E19883011F48EE28D939D9331963A
:103EE000C557DF4F88819981CB58D040E817F90733
:103EF00061F71C921E86F3018081882329F4C10199
:103F000060E072E00E943412C101B3010E943412D9
:103F1000C101BE016F5F7F4F0E943412C10160E09A
:103F200072E00E9434121CA61FA61BA61AA680E3EC
:103F300095E099A788A7CE018C96B601AE014F5F98
:103F40005F4F21E00E940F77882309F03FC0F40102
:103F500080819181892BD1F5C157DF4F9881CF584E
:103F6000D040EBE3F1E008C08091C00085FFFCCFBA
:103F70009093C600319694919923B1F7E2E0F2E074
:103F800007C08091C00085FFFCCF31969093C6009A
:103F900090819923B1F78091C00085FFFCCFFAE0B2
:103FA000F093C600FE01319607C08091C00085FFE6
:103FB000FCCF31969093C60090819923B1F7809100
:103FC000C00085FFFCCF8AE08093C600C357DF4F57
:103FD000A881B981CD58D040FE01BC968BE10190FB
:103FE0000D928150E1F78AA59BA5F201938382830C
:103FF00080E395E091838083C801B101A201E1DEF5
:10400000C2010E945215CE0188960E94521592C09C
:10401000953E09F48FC09E3209F48CC09F3509F497
:1040200089C0F8019189992331F09E3209F482C048
:104030009F3509F47FC043FD7DC080E0603171058C
:1040400009F481E0F80184A7882349F4F701808509
:10405000873409F06FC081858E3709F46BC0CA5769
:10406000DF4FA881B981C658D040F70180818032E6
:1040700041F08E2F8E19883011F48EE28D9380815D
:104080008D933196C557DF4F88819981CB58D040A9
:10409000E817F90759F71C92F40180819181009784
:1040A00029F5F30107C08091C00085FFFCCF319650
:1040B0009093C60090819923B1F7CA57DF4FE881EA
:1040C000F981C658D04007C08091C00085FFFCCF61
:1040D00031969093C60090819923B1F78091C000EA
:1040E00085FFFCCFFAE0F093C60024C08130910533
:1040F00039F4F501808191810196918380831AC002
:104100000297C1F4C857DF4FF881C858D0402F2F0D
:1041100030E0F5018081918128173907F1F0C85707
:10412000DF4FF881C858D040FF5FC857DF4FF88392
:10413000C858D040C601B701C757DF4F48815981E1
:10414000C958D0400E94347218160CF4A5CE05C090
:10415000F7019081992309F05BCFC157DF4F0FB66C
:10416000F894DEBF0FBECDBFCF91DF911F910F91AD
:10417000FF90EF90DF90CF90BF90AF909F908F9087
:104180007F906F905F904F903F902F900895EF92A7
:10419000FF920F931F93DF93CF93CDB7DEB76F9747
:1041A0000FB6F894DEBF0FBECDBF7C018C01025B61
:1041B0001F4F805B9F4FF8019183808328E832E096
:1041C000E20EF31E21E030E0F701219331937F01ED
:1041D0001182108226E73DEFE20EF31E049640E0C6
:1041E00050E060E070E00E940C6FF80120813181A6
:1041F000DE011596F90134968BE101900D92815004
:10420000E1F7F901828193819C838B8380E395E0C0
:104210009A838983C70165E172E08E010F5F1F4FAA
:10422000A801CFDDC8010E945215F701E657FD4FE6
:10423000808191816F960FB6F894DEBF0FBECDBF1F
:10424000CF91DF911F910F91FF90EF900895EF9222
:10425000FF920F931F93DF93CF93CDB7DEB76F9786
:104260000FB6F894DEBF0FBECDBF7C018C01025BA0
:104270001F4F805B9F4FF8019183808328E832E0D5
:10428000E20EF31E22E030E0F7013183208328E7BD
:104290003DEFE20EF31EF701E657FD4F60831182FA
:1042A000049640E050E060E070E00E940C6FF8017E
:1042B00020813181DE011596F90134968BE1019060
:1042C0000D928150E1F7F901828193819C838B8368
:1042D00080E395E09A838983C70165E172E08E01EE
:1042E0000F5F1F4FA8016DDDC8010E9452156F9628
:1042F0000FB6F894DEBF0FBECDBFCF91DF911F91F7
:104300000F91FF90EF900895EF92FF920F931F93FC
:10431000DF93CF93CDB7DEB76F970FB6F894DEBFBC
:104320000FBECDBF7C0188E892E0E80EF91EF701D0
:104330001182108288E79DEFE80EF91E87010D5C5F
:104340001F4FC80140E050E060E070E00E940C6F39
:10435000DE011596F8018BE101900D928150E1F795
:10436000F70181A992A99C838B8380E395E09A83CE
:104370008983C70165E172E08E010F5F1F4FA801BD
:1043800020DDC8010E9452156F960FB6F894DEBF6B
:104390000FBECDBFCF91DF911F910F91FF90EF9096
:1043A00008950F931F93CF93DF93DC01D3961C9254
:1043B000D397D6961C92D697D2961C921E92D197DE
:1043C00080E395E0D0969C938E939F97AC5ABF4F15
:1043D0001C9213961C92A755B040FD01E05BFF4F65
:1043E000AE5ABF4F11961C921E92A255B0409183B7
:1043F0008083ED01C159DF4FFE0120E030E0482FFE
:10440000148217821382128240839183215E3F4F70
:104410007F9681E02633380799F7A855BE4F89E18A
:104420008C9313961C9258961C921B961C92139672
:104430001C92A15DB140FD01E653FE4FA453BE4F57
:1044400011961C921E9240839183A155BF4F1D92DD
:104450001D921D921C92139718961D921D921D92EB
:104460001C921397A358B24012961C92129713965F
:104470001C9213971C9211961C9211978D01015852
:104480001D4FF8011082118212821382AB55BE4F6C
:1044900011961C921E92AC5BBF4F1C92FE01C9018B
:1044A00011920197E9F7A256BF4F81E08C93A7586C
:1044B000B2409E961C921E929D970E945DC06857C6
:1044C0007C4E8F4F9F4FF80160837183828393836B
:1044D000DF91CF911F910F910895DF93CF93CDB7C7
:1044E000DEB7E0970FB6F894DEBF0FBECDBFDE019A
:1044F0001196E0EEF4E080E101900D928150E1F739
:10450000DE015196E0EDF4E080E101900D928150E2
:10451000E1F7DE019196E0ECF4E080E101900D928C
:104520008150E1F789819A81AB81BC818093330B03
:104530009093340BA093350BB093360B89899A89ED
:10454000AB89BC898093230B9093240BA093250BFC
:10455000B093260B89A19AA1ABA1BCA18093430B78
:104560009093440BA093450BB093460B8D819E8195
:10457000AF81B8858093370B9093380BA093390B9C
:10458000B0933A0B8D899E89AF89B88D8093270BA4
:104590009093280BA093290BB0932A0B8DA19EA179
:1045A000AFA1B8A58093470B9093480BA093490BFC
:1045B000B0934A0B89859A85AB85BC8580933B0B6C
:1045C00090933C0BA0933D0BB0933E0B898D9A8D3D
:1045D000AB8DBC8D80932B0B90932C0BA0932D0B4C
:1045E000B0932E0B89A59AA5ABA5BCA580934B0BC8
:1045F00090934C0BA0934D0BB0934E0B8D859E85E5
:10460000AF85B88980933F0B9093400BA093410BEB
:10461000B093420B8D8D9E8DAF8DB8A180932F0BE3
:104620009093300BA093310BB093320B8DA59EA5C8
:10463000AFA5B8A980934F0B9093500BA093510B4B
:10464000B093520B0E94C65A80E090E0AAEFB4E407
:104650008093570B9093580BA093590BB0935A0B20
:1046600080E090E0AAE7B4E480935B0B90935C0B4E
:10467000A0935D0BB0935E0B20E030E040E050E093
:104680002093530B3093540B4093550B5093560B80
:1046900080E29EE4A0E0B0E080931F0B9093200B9B
:1046A000A093210BB093220B20936B0B30936C0BD8
:1046B00040936D0B50936E0B80E090E0A0E2B1E46C
:1046C00080935F0B9093600BA093610BB093620B90
:1046D0008DEC9CECACECBEE38093630B9093640B8D
:1046E000A093650BB093660B80E090E0A0EAB0E485
:1046F0008093670B9093680BA093690BB0936A0B40
:104700002093C9083093CA084093CB085093CC0833
:104710002093C5083093C6084093C7085093C80833
:104720002093C1083093C2084093C3085093C40833
:1047300088EC90E0909345138093441310924713B4
:104740001092461310924913109248138CED90E08A
:1047500090934B1380934A138AE590E090934D1306
:1047600080934C1310924F1310924E138AE999E9DB
:10477000A1EBB1E48093910490939204A0939304ED
:10478000B093940461E77DE38AE89FE30E940B867F
:104790006093950470939604809397049093980483
:1047A00060E070E084EE92E40E94178660939904C2
:1047B00070939A0480939B0490939C040E941D859F
:1047C00080E090E0A0E8BFE380939D0490939E0476
:1047D000A0939F04B093A004ECE2F3E0949108C08E
:1047E0008091C00085FFFCCF9093C60031969491D4
:1047F0009923B1F7E2E3F3E0949108C08091C000FF
:1048000085FFFCCF9093C600319694919923B1F720
:104810008091C00085FFFCCF8AE08093C600E096BF
:104820000FB6F894DEBF0FBECDBFCF91DF910895D4
:10483000CF93DF93CCE2D3E0FE01949108C0809146
:10484000C00085FFFCCF9093C600319694919923C8
:10485000B1F7ECE0F5E0949108C08091C00085FFCD
:10486000FCCF9093C600319694919923B1F7809133
:10487000C00085FFFCCF8AE08093C600FE019491C2
:10488000ECE2F3E008C08091C00085FFFCCF90937C
:10489000C600319694919923B1F74091330B509112
:1048A000340B6091350B7091360B84E095E00E94DB
:1048B000F22E4091370B5091380B6091390B70916B
:1048C0003A0B81E095E00E94F22E40913B0B509113
:1048D0003C0B60913D0B70913E0B8EEF94E00E947B
:1048E000F22E40913F0B5091400B6091410B709123
:1048F000420B8BEF94E00E94F22EE6E1F2E007C05B
:104900008091C00085FFFCCF31969093C6009081C6
:104910009923B1F78091C00085FFFCCF8AE0809396
:10492000C600FE019491ECE2F3E008C08091C00063
:1049300085FFFCCF9093C600319694919923B1F7EF
:10494000E1EEF4E0949108C08091C00085FFFCCFB7
:104950009093C600319694919923B1F78091C0004D
:1049600085FFFCCF8AE08093C600FE019491ECE2C3
:10497000F3E008C08091C00085FFFCCF9093C60093
:10498000319694919923B1F74091230B5091240BC8
:104990006091250B7091260B88ED94E00E94F22E19
:1049A0004091270B5091280B6091290B70912A0B95
:1049B00085ED94E00E94F22E40912B0B50912C0B30
:1049C00060912D0B70912E0B82ED94E00E94F22EDF
:1049D00040912F0B5091300B6091310B7091320B45
:1049E0008FEC94E00E94F22EE6E1F2E007C08091A5
:1049F000C00085FFFCCF31969093C600908199232B
:104A0000B1F78091C00085FFFCCF8AE08093C6009B
:104A1000FE019491ECE2F3E008C08091C00085FFB4
:104A2000FCCF9093C600319694919923B1F7E1EBB6
:104A3000F4E0949108C08091C00085FFFCCF909372
:104A4000C600319694919923B1F78091C00085FFFB
:104A5000FCCF8AE08093C600FE019491ECE2F3E083
:104A600008C08091C00085FFFCCF9093C6003196AE
:104A700094919923B1F74091430B5091440B60916D
:104A8000450B7091460B88EA94E00E94042F4091F8
:104A9000470B5091480B6091490B70914A0B85EA86
:104AA00094E00E94042F40914B0B50914C0B60916D
:104AB0004D0B70914E0B82EA94E00E94042F4091BE
:104AC0004F0B5091500B6091510B7091520B8FE92D
:104AD00094E00E94042FE6E1F2E007C08091C0005C
:104AE00085FFFCCF31969093C60090819923B1F752
:104AF0008091C00085FFFCCF8AE08093C600FE0154
:104B00009491ECE2F3E008C08091C00085FFFCCFF7
:104B10009093C600319694919923B1F7EAE6F4E0B8
:104B2000949108C08091C00085FFFCCF9093C6008F
:104B3000319694919923B1F78091C00085FFFCCF05
:104B40008AE08093C600FE019491ECE2F3E008C095
:104B50008091C00085FFFCCF9093C6003196949160
:104B60009923B1F74091570B5091580B6091590B15
:104B700070915A0B81E694E00E94F22E40915B0BFB
:104B800050915C0B60915D0B70915E0B8EE594E033
:104B90000E94F22EE6E1F2E007C08091C00085FF9E
:104BA000FCCF31969093C60090819923B1F7809104
:104BB000C00085FFFCCF8AE08093C600FE0194917F
:104BC000ECE2F3E008C08091C00085FFFCCF909339
:104BD000C600319694919923B1F7EBEAF3E09491F2
:104BE00008C08091C00085FFFCCF9093C60031962D
:104BF00094919923B1F78091C00085FFFCCF8AE0A2
:104C00008093C600FE019491ECE2F3E008C080912D
:104C1000C00085FFFCCF9093C600319694919923F4
:104C2000B1F74091530B5091540B6091550B70911B
:104C3000560B82EA93E00E94F22E40916B0B50914A
:104C40006C0B60916D0B70916E0B8FE993E00E947D
:104C5000F22E40911F0B5091200B6091210B70910F
:104C6000220B8CE993E00E94042F40915F0B50913E
:104C7000600B6091610B7091620B89E993E00E9477
:104C8000F22E4091630B5091640B6091650B709113
:104C9000660B86E993E00E94F22E4091670B5091DB
:104CA000680B6091690B70916A0B83E993E00E9435
:104CB000F22EE6E1F2E007C08091C00085FFFCCF54
:104CC00031969093C60090819923B1F78091C000EE
:104CD00085FFFCCF8AE08093C600FE019491ECE250
:104CE000F3E008C08091C00085FFFCCF9093C60020
:104CF000319694919923B1F7E1E8F3E0949108C0DB
:104D00008091C00085FFFCCF9093C60031969491AE
:104D10009923B1F78091C00085FFFCCF8AE0809392
:104D2000C600FE019491ECE2F3E008C08091C0005F
:104D300085FFFCCF9093C600319694919923B1F7EB
:104D40004091C1085091C2086091C3087091C40895
:104D500088E793E00E94F22E4091C5085091C60862
:104D60006091C7087091C80885E793E00E94F22E11
:104D70004091C9085091CA086091CB087091CC0845
:104D800082E793E00E94F22EE6E1F2E007C0809114
:104D9000C00085FFFCCF31969093C6009081992387
:104DA000B1F78091C00085FFFCCF8AE08093C600F8
:104DB000FE019491ECE2F3E008C08091C00085FF11
:104DC000FCCF9093C600319694919923B1F7E4E615
:104DD000F3E0949108C08091C00085FFFCCF9093D0
:104DE000C600319694919923B1F78091C00085FF58
:104DF000FCCF8AE08093C600FE019491ECE2F3E0E0
:104E000008C08091C00085FFFCCF9093C60031960A
:104E100094919923B1F7409191045091920460913B
:104E20009304709194048AE593E0DCD76091950433
:104E30007091960480919704909198040E94118635
:104E4000AB01BC0187E593E0CDD7609199047091E7
:104E50009A0480919B0490919C040E941D86AB0152
:104E6000BC0184E593E0BED7E6E1F2E007C08091A3
:104E7000C00085FFFCCF31969093C60090819923A6
:104E8000B1F78091C00085FFFCCF8AE08093C60017
:104E9000DF91CF9108951F920F920FB60F920BB62C
:104EA0000F9211242F933F934F938F939F93EF93E0
:104EB000FF934091C600E0911806F09119063196D3
:104EC0009F012F773070319780911A0690911B06C1
:104ED0002817390739F0E856FA4F408330931906FE
:104EE00020931806FF91EF919F918F914F913F91E1
:104EF0002F910F900BBE0F900FBE0F901F90189523
:104F00009A01AB01203081EE380780E0480780E04D
:104F1000580749F182E08093C00060E079E08DE3BA
:104F200090E00E9409CC2150304040405040CA01DE
:104F3000B90122E030E040E050E00E9409CC30931B
:104F4000C5002093C4008091C10080618093C1009E
:104F50008091C10088608093C1008091C100806809
:104F60008093C10008951092C00020E130E0E7CFA7
:104F700020911A0630911B0680911806909119060F
:104F80008217930719F42FEF3FEF0EC0F901E8568F
:104F9000FA4F80812F5F3F4F2F77307030931B0681
:104FA00020931A06282F30E0C901089580911A062F
:104FB00090911B0690931906809318060895089502
:104FC0002F923F924F925F926F927F928F929F9219
:104FD000AF92BF92CF92DF92EF92FF920F931F9307
:104FE000DF93CF93CDB7DEB7A0970FB6F894DEBFAF
:104FF0000FBECDBF1C016A017B0141155105610542
:10500000710541F440E350E060E070E020E030E002
:105010008BD055C0882499245401422E55246624EF
:10502000772401E010E00C0F1D1F080D191DC701AA
:10503000B601A30192010E94E7CBF80160830894B6
:10504000811C911CA11CB11CC701B601A3019201D6
:105050000E94E7CBC901DA016C017D01C114D104C2
:10506000E104F104F1F681E0E82EF12CEC0EFD1ED6
:10507000E80CF91C3E010894611C711CD501C401A7
:105080000197A109B1096C01C818D90815C0F6012A
:10509000EE0DFF1D40814A3010F4405D01C0495CB7
:1050A000552747FD5095652F752FC10120E030E051
:1050B0003BD00894E108F1086E147F0441F7A096F4
:1050C0000FB6F894DEBF0FBECDBFCF91DF911F9119
:1050D0000F91FF90EF90DF90CF90BF90AF909F9097
:1050E0008F907F906F905F904F903F902F9008959A
:1050F0002115310539F48091C00085FFFCCF409324
:10510000C60008955DCFEF92FF920F931F939A010F
:10511000E62EFF2400E010E0B801A701E9DF1F91AF
:105120000F91FF90EF900895EF92FF920F931F93CE
:10513000CF93DF93EC017A018B012115310539F40E
:105140008091C00085FFFCCFE092C60019C02A30D4
:105150003105A9F477FF0FC04DE250E060E070E048
:1051600020E030E0E1DF10950095F094E094E11C40
:10517000F11C011D111DCE01B801A7012AE020DF9D
:10518000DF91CF911F910F91FF90EF900895EF92D3
:10519000FF920F931F937B019A010027F7FC009564
:1051A000102FB801A701C0DF1F910F91FF90EF9062
:1051B00008950F931F938C014DE050E060E070E084
:1051C00020E030E0B1DFC8014AE050E060E070E08C
:1051D00020E030E0A9DF1F910F910895CF92DF9278
:1051E000EF92FF920F931F938C019A016B01EE24B3
:1051F000FF24B701A6017CDFC801DBDF1F910F91FF
:10520000FF90EF90DF90CF9008959F92AF92BF9262
:10521000CF92DF92EF92FF920F931F93CF93DF9382
:10522000EC017A018B01922ECB01BA0120E030E033
:1052300040E050E00E94EFC7882364F4CE014DE2C5
:1052400050E060E070E020E030E06EDF17FB10958A
:1052500017F9109520E030E040E05FE3AA240BC08E
:10526000CA01B90120E030E040E251E40E94F6C7F3
:105270009B01AC01A394A91498F3C801B7010E9443
:1052800016C77B018C010E9463C85B016C010E9400
:105290008FC89B01AC01C801B7010E9415C77B01F3
:1052A0008C01CE01B601A5012AE030E021DF992072
:1052B00099F1E7E1F2E007C08091C00085FFFCCFE3
:1052C00031969093C60090819923B1F725C0C8010B
:1052D000B70120E030E040E251E40E94CFCA7B01F8
:1052E0008C010E945EC85B016C01CC24B7FCC094A9
:1052F000DC2CCE01B601A5012AE030E015DFC601A5
:10530000B5010E9491C89B01AC01C801B7010E9480
:1053100015C77B018C019A949920C9F6DF91CF9132
:105320001F910F91FF90EF90DF90CF90BF90AF90C3
:105330009F9008956ACF0895EF92FF920F931F9365
:10534000CF93DF93EC01E090CD08F090CE08009170
:10535000CF081091D008688179818A819B81A8014A
:1053600097010E94EFC7882324F4E882F9820A8318
:105370001B83E090D108F090D2080091D3081091DF
:10538000D4086C817D818E819F81A80197010E9444
:10539000EFC7882324F4EC82FD820E831F83E09004
:1053A000D508F090D6080091D7081091D8086885E4
:1053B00079858A859B85A80197010E94EFC788237C
:1053C00024F4E886F9860A871B87E0906904F09048
:1053D0006A0400916B0410916C04688179818A8160
:1053E0009B81A80197010E94FDC9181624F4E88248
:1053F000F9820A831B83E0906D04F0906E040091A3
:105400006F04109170046C817D818E819F81A80151
:1054100097010E94FDC9181624F4EC82FD820E83C8
:105420001F83E0907104F090720400917304109156
:105430007404688579858A859B85A80197010E94F7
:10544000FDC9181624F4E886F9860A871B87DF91C0
:10545000CF911F910F91FF90EF9008958091EB08ED
:1054600008950F931F93CF93DF938130910549F4F3
:105470006F5F7F4F09F046C08DE196E00E94D12119
:1054800041C0892B09F03EC06F5F7F4FD9F580E3A3
:1054900095E09093E8078093E7078091EE078823D3
:1054A00021F08BEE97E00E942370C3EAD7E000E37F
:1054B00015E005C06F9786E0CD36D80751F0198307
:1054C00008838F818823B1F3CE0104960E94237054
:1054D000F1CF80E395E0998388838F81882321F041
:1054E000CE0104960E94237080E395E090934D06D0
:1054F00080934C0680915306882321F080E596E046
:105500000E942370DF91CF911F910F91089580E049
:1055100090E06FEF7FEFA5CF81E090E06FEF7FEF3E
:10552000A0CF0E94EF851092D6121092D5128091D2
:10553000EB08882309F03CC081E08093EB08809160
:10554000EE089091EF08A091F008B091F1088093D7
:10555000F2089093F308A093F408B093F508E2E200
:10556000F5E0949108C08091C00085FFFCCF909336
:10557000C600319694919923B1F7E3E3F5E0949155
:1055800008C08091C00085FFFCCF9093C600319683
:1055900094919923B1F78091C00085FFFCCF8AE0F8
:1055A0008093C60089E295E00E94BEAB0C9438AEB1
:1055B000089589E260E00E940EC2A09A0895F894CE
:1055C0000E94EF855F9A1092D9088A9A1092DA08A1
:1055D0008FB7F894909108019160909308018FBF64
:1055E0001092DB08129A8CE060E00E940EC2E2E2A8
:1055F000F5E0949108C08091C00085FFFCCF9093A6
:10560000C600319694919923B1F7E2EBF5E09491BD
:1056100008C08091C00085FFFCCF9093C6003196F2
:1056200094919923B1F78091C00085FFFCCF8AE067
:105630008093C60089EA95E00E94CDABFFCF0E941F
:105640005DC06093F7087093F8088093F908909311
:10565000FA0808956F927F928F929F92AF92BF92B5
:10566000CF92DF92EF92FF920F931F93F82E6091EB
:105670000309709104098091050990910609209110
:105680000709309108094091090950910A090E94BF
:105690000ACA3B014C0100D000D00DB71EB70F5F06
:1056A0001F4F6091610470916204882777FD809597
:1056B000982F0E9491C820917704309178044091EE
:1056C000790450917A040E94CFCA20E030E040E78C
:1056D00052E40E94F6C720E030E048EC52E40E9419
:1056E000F6C75B016C01F80160827182828293824D
:1056F000F4828091DC08858381EB98E06FE079E0AB
:1057000043E059E020E001E032E0E32E0E941B5626
:1057100080910F0990911009A0911109B09112097F
:105720008093B1089093B208A093B308B093B408E3
:105730008091130990911409A0911509B09116094F
:105740008093B5089093B608A093B708B093B808B3
:105750008091170990911809A0911909B0911A091F
:105760008093B9089093BA08A093BB08B093BC0883
:1057700080911B0990911C09A0911D09B0911E09EF
:105780008093BD089093BE08A093BF08B093C00853
:105790008DB79EB706960FB6F8949EBF0FBE8DBF0D
:1057A0000E945DC06093F7087093F8088093F90831
:1057B0009093FA081F910F91FF90EF90DF90CF9098
:1057C000BF90AF909F908F907F906F900895CF92F1
:1057D000DF92EF92FF920F931F938FE099E0ACDD81
:1057E0000E945DC06093F7087093F8088093F908F1
:1057F0009093FA086091B1087091B2088091B30853
:105800009091B40820910F0930911009409111092D
:10581000509112090E94EFC7882309F07AC0609165
:10582000B5087091B6088091B7089091B80820919A
:1058300013093091140940911509509116090E94DD
:10584000EFC7882309F065C06091770470917804F0
:105850008091790490917A0420E030E040E752E4AE
:105860000E94F6C77B018C018FE099E063E179E04B
:1058700047E159E02BE139E0ECEDCE2EE8E0DE2EF9
:105880000E94516080910F0990911009A091110917
:10589000B09112098093B1089093B208A093B30815
:1058A000B093B4088091130990911409A09115093F
:1058B000B09116098093B5089093B608A093B708E5
:1058C000B093B8088091170990911809A09119090F
:1058D000B0911A098093B9089093BA08A093BB08B5
:1058E000B093BC0880911B0990911C09A0911D09DF
:1058F000B0911E098093BD089093BE08A093BF0885
:10590000B093C0081F910F91FF90EF90DF90CF9060
:1059100008956091610470916204882777FD8095F5
:10592000982F0E9491C8209177043091780440917B
:10593000790450917A040E94CFCA20E030E040E719
:1059400052E40E94F6C720E030E048EC52E488CFF1
:105950008CE196E02BDBE1EDF5E0949108C08091BD
:10596000C00085FFFCCF9093C60031969491992397
:10597000B1F74091EE085091EF086091F0087091F6
:10598000F1084F5F5F4F6F4F7F4F8CE196E02AE049
:1059900030E0CADB8091C00085FFFCCF8AE08093B5
:1059A000C60008956F927F928F929F92AF92BF929E
:1059B000CF92DF92EF92FF920F931F936090770444
:1059C000709078048090790490907A040F2EF0E023
:1059D000AF2EF0E0BF2EFAEFCF2EF5E4DF2EF02D44
:1059E000A0927704B0927804C0927904D0927A049D
:1059F000E1EBF8E06093B1087093B2088093B308CC
:105A00009093B4082093B5083093B6084093B70834
:105A10005093B808AF01485F5F4FE092B908F09229
:105A2000BA080093BB081093BC089F01245F3F4F46
:105A3000CF013496BF010F2EF5E5EF2EF5E5FF2ED1
:105A4000F5E00F2FF3E41F2FF02DFCEDCF2EF8E043
:105A5000DF2E0E9451600E94DE7D6092770470927A
:105A600078048092790490927A041F910F91FF90AC
:105A7000EF90DF90CF90BF90AF909F908F907F90EE
:105A80006F9008952F923F924F925F926F927F9204
:105A90008F929F92AF92BF92CF92DF92EF92FF923E
:105AA0000F931F93DF93CF93CDB7DEB728970FB631
:105AB000F894DEBF0FBECDBF98878F8383309105EA
:105AC00008F056C1FC01E55DF74FD4903C01660C2F
:105AD000771C660C771C93012F54374F3A83298328
