:100000000C94F8100C9425110C9425110C942511C6
:100010000C9425110C9425110C9425110C94251188
:100020000C9425110C9425110C9425110C94251178
:100030000C9425110D94E2060C9425110C942511B5
:100040000C9425110C942AB60C9425110C942511AE
:100050000C9425110C9425110C94FDBE0D942D03C8
:100060000C9425110C94FA2D0C9425110C94251147
:100070000C9425110C9425110C9425110C94251128
:100080000C94AAB40C9425110C9425110C942511F0
:100090000C9425110C9425110C9425110C947FFEC1
:1000A0000C9425110C9425110C947DB40C942511FD
:1000B0000C9425110C9425110C9425110C9450B41A
:1000C0000C9425110C9425110C9425110C942511D8
:1000D0000C9425110C9425110C9425110C942511C8
:1000E0000C942511A2E5ABE5B4E5BDE5C6E5CFE589
:1000F000D8E5E1E5F4E507E62EE65BE66EE681E6A7
:1001000094E6BDE6D0E601E7084AD73B3BCE016E58
:1001100084BCBFFDC12F3D6C74319ABD56833DDA5E
:100120003D00C77F11BED9E4BB4C3E916BAAAABE6D
:10013000000000803F05A84CCDB2D44EB93836A996
:10014000020C50B9918688083CA6AAAA2ABE0000D3
:1001500000803F4D383420582059205A2045004314
:10016000616E6E6F7420656E746572207375626463
:1001700069723A20004D3234004D3233202573002D
:100180006175746F25692E67006572726F722077D2
:10019000726974696E6720746F2066696C65004EC1
:1001A0006F74205344207072696E74696E67002FFB
:1001B000005344207072696E74696E6720627974AE
:1001C0006520002E0044656C6574696F6E20666161
:1001D000696C65642C2046696C653A200046696C40
:1001E000652064656C657465643A002E006F706507
:1001F0006E206661696C65642C2046696C653A20E6
:100200000057726974696E6720746F2066696C6547
:100210003A20002E006F70656E206661696C65641F
:100220002C2046696C653A20002E006F70656E20A8
:100230006661696C65642C2046696C653A200046ED
:10024000696C652073656C6563746564002053692F
:100250007A653A200046696C65206F70656E65644A
:100260003A20002E006F70656E206661696C6564CF
:100270002C2046696C653A20004E6F7720667265C7
:1002800073682066696C653A20004E6F7720646F52
:10029000696E672066696C653A20002220706F7372
:1002A000002220706172656E743A220053554252EA
:1002B0004F5554494E452043414C4C207461726760
:1002C00065743A2200747279696E6720746F2063D6
:1002D000616C6C207375622D67636F64652066695D
:1002E0006C6573207769746820746F6F206D616E20
:1002F00079206C6576656C732E204D4158206C65B5
:1003000076656C2069733A005344206361726420FF
:100310006F6B006F70656E526F6F74206661696CF1
:10032000656400766F6C756D652E696E6974206604
:1003300061696C656400534420696E69742066616C
:10034000696C0048617264636F646564204465662B
:1003500061756C742053657474696E6773204C6F9B
:10036000616465640053746F7265642073657474AE
:10037000696E6773207265747269657665640020C2
:1003800044002049002020204D33303120500050BF
:1003900049442073657474696E67733A00205A008B
:1003A00020590020204D323036205800486F6D65AE
:1003B000206F666673657420286D6D293A002045AC
:1003C00000205A0020580020420020540020204DD8
:1003D000323035205300416476616E636564207667
:1003E00061726961626C65733A20533D4D696E209C
:1003F000666565647261746520286D6D2F73292CA4
:1004000020543D4D696E2074726176656C2066657E
:1004100065647261746520286D6D2F73292C2042EC
:100420003D6D696E696D756D207365676D656E7480
:100430002074696D6520286D73292C20583D6D61ED
:1004400078696D756D205859206A65726B20286D2A
:100450006D2F73292C20205A3D6D6178696D756D63
:10046000205A206A65726B20286D6D2F73292C200D
:1004700020453D6D6178696D756D2045206A657216
:100480006B20286D6D2F73290020540020204D32E1
:100490003034205300416363656C65726174696F29
:1004A0006E3A20533D616363656C65726174696F78
:1004B0006E2C20543D7265747261637420616363B5
:1004C000656C65726174696F6E00204500205A008A
:1004D00020590020204D3230312058004D6178697C
:1004E0006D756D20416363656C65726174696F6ED3
:1004F00020286D6D2F7332293A00204500205A00C4
:1005000020590020204D3230332058004D61786949
:100510006D756D2066656564726174657320286D04
:100520006D2F73293A00204500205A0020590020E1
:10053000204D3932205800537465707320706572F5
:1005400020756E69743A0053657474696E67732020
:1005500053746F726564004572726F723A0065631E
:10056000686F3A0053544F505045442E200050724B
:10057000696E7465722073746F7070656420647541
:100580006520746F206572726F72732E20466978D1
:1005900020746865206572726F7220616E642075C8
:1005A0007365204D39393920746F20726573746119
:1005B00072742E202854656D706572617475726551
:1005C0002069732072657365742E205365742069E9
:1005D00074206166746572207265737461727469E7
:1005E0006E6729004B494C4C45442E2000507269DF
:1005F0006E7465722068616C7465642E206B696C22
:100600006C28292063616C6C656421006F6B00525B
:100610006573656E643A20002200556E6B6E6F77CD
:100620006E20636F6D6D616E643A202200507269B6
:100630006E74696E672E2E2E005A204F66667365A3
:1006400074203A20007A5F6D61783A20007A5F6DFD
:10065000696E3A20005A204F6666736574005A200E
:100660004F6666736574206F6B007A5F6D696E3AD2
:100670002000795F6D696E3A2000785F6D696E3A8F
:100680002000205A3A0020593A0020436F756E74BA
:1006900020583A200020453A00205A3A0020593A82
:1006A00000583A004649524D574152455F4E414D20
:1006B000453A4D61726C696E20312E302E322B20FE
:1006C000446576656C6F706D656E742046726F6DF3
:1006D000204172636869766520534F555243455FE8
:1006E000434F44455F55524C3A687474703A2F2F0B
:1006F0007777772E626C6F636B737465632E636FAD
:100700006D2050524F544F434F4C5F564552534902
:100710004F4E3A312E30204D414348494E455F54AB
:100720005950453A426C6F636B73206F6E6520457C
:10073000585452554445525F434F554E543A312018
:10074000555549443A30303030303030302D30302B
:1007500030302D303030302D303030302D303030A2
:100760003030303030303030300A00426C6F636BE4
:1007700073206F6E65204F66662E00426C6F636B50
:1007800073206F6E652072656164792E0042656426
:1007900020646F6E652E0020423A0020453A0054D6
:1007A0003A004265642048656174696E672E0048AE
:1007B000656174696E6720646F6E652E0020573A1C
:1007C0000020453A00543A0048656174696E672E0E
:1007D0002E2E002042403A0020403A00202F003ABE
:1007E00000205400202F0020423A00202F006F6B81
:1007F00020543A000A0A005374616E6461726420E6
:10080000446576696174696F6E3A20000A004D652F
:10081000616E3A20000A002020207A3A20000079F8
:100820003A2000783A20003F537065636966696535
:1008300064206E756D626572206F66206C656773EB
:1008400020696E206D6F76656D656E74206E6F74B5
:1008500020706C61757361626C652E0A003F537085
:1008600065636966696564205920706F736974698E
:100870006F6E206F7574206F662072616E67652ED3
:100880000A003F537065636966696564205820708B
:100890006F736974696F6E206F7574206F66207254
:1008A000616E67652E0A003F53706563696669650E
:1008B000642073616D706C652073697A65206E6F5A
:1008C0007420706C61757361626C652E0A004675E8
:1008D0006C6C20737570706F72742061743A20684C
:1008E0007474703A2F2F33647072696E74626F6122
:1008F00072642E636F6D2F666F72756D2E706870E7
:100900000A004D3438205A2D50726F6265205265AE
:10091000706561746162696C69747920746573745F
:100920002E20202056657273696F6E20322E303073
:100930000A003F566572626F7365204C6576656C80
:10094000206E6F7420706C61757361626C652E0A25
:10095000002569206D696E2C202569207365630070
:100960005072696E74696E672E2E2E005072657318
:100970007320746F20726573756D6500456E642019
:1009800066696C65206C69737400426567696E20E6
:1009900066696C65206C697374004E6F206D6F76AC
:1009A000652E00426C6F636B73206F6E65207265FD
:1009B0006164792E00526573756D696E672070727F
:1009C000696E74005761697420666F722075736573
:1009D000722E2E2E000A00205A3A200020593A206A
:1009E0000020583A20004265640020643A2000202C
:1009F000623A200045716E20636F656666696369BF
:100A0000656E74733A20613A2000486F6D65205816
:100A10002F59206265666F7265205A00486F6D65B8
:100A200020582F59206265666F7265205A005A203F
:100A300070726F6265206F75742E20626564005A53
:100A40002070726F6265206F75742E20626564007D
:100A5000486F6D6520582F59206265666F7265205A
:100A60005A00486F6D6520582F59206265666F7275
:100A700065205A00536C6565702E2E2E00FFFFFF17
:100A80000A00207A3A200020793A200020783A2083
:100A900000426564000000A0400000A0400000404B
:100AA0004000004843000048430000484300000065
:100AB0000000000000000000000000000000000036
:100AC00000000000000000484300004843000048C8
:100AD00043256920686F757273202569206D696EE2
:100AE0007574657300446F6E65207072696E746909
:100AF0006E672066696C650053544F505045442E14
:100B000020005072696E7465722073746F70706526
:100B1000642064756520746F206572726F72732E25
:100B20002046697820746865206572726F72206152
:100B30006E6420757365204D39393920746F2072C9
:100B40006573746172742E202854656D70657261CE
:100B5000747572652069732072657365742E2053F5
:100B6000657420697420616674657220726573749F
:100B7000617274696E6729004E6F204C696E652042
:100B80004E756D626572207769746820636865636D
:100B90006B73756D2C204C617374204C696E653AD3
:100BA00020004E6F20436865636B73756D20776915
:100BB0007468206C696E65206E756D6265722C209C
:100BC0004C617374204C696E653A200063686563FC
:100BD0006B73756D206D69736D617463682C204C47
:100BE000617374204C696E653A20004C696E652013
:100BF0004E756D626572206973206E6F74204C6152
:100C00007374204C696E65204E756D6265722B3170
:100C10002C204C617374204C696E653A20004D3174
:100C2000313000446F6E6520736176696E672066AF
:100C3000696C652E006F6B004D3239004D363030D7
:100C4000004D3235002020506C616E6E6572427529
:100C50006666657242797465733A20002046726553
:100C600065204D656D6F72793A20004D61792031B4
:100C700030203230313700436F6D70696C65643AF3
:100C8000200028426C6F636B732C206F6E652031DF
:100C90002E322900207C20417574686F723A200042
:100CA0004D617920313020323031372031323A34C1
:100CB000373A303800204C61737420557064617489
:100CC00065643A200020312E302E322B004D6172A7
:100CD0006C696E0020536F6674776172652052658F
:100CE00073657400205761746368646F6720526590
:100CF000736574002042726F776E206F7574205296
:100D000065736574002045787465726E616C20525D
:100D10006573657400506F77657255700073746108
:100D20007274002200656E717565696E672022001D
:100D30002200656E717565696E6720220020636F01
:100D40006C6420657874727573696F6E207072655B
:100D500076656E746564007C3C3E5E2B3D3F2F5B88
:100D60005D3B2C2A225C0045303A20005A3A200094
:100D7000593A2000583A20004D53312C4D5332201F
:100D800050696E730A0024F404D9201BC40C5C0E55
:100D90009804C4095F0265077101F405F900FB04BA
:100DA000B30048048700C1036900580355000303DA
:100DB0004500BE023A008402310053022A00290293
:100DC000250004022000E4011C00C8011900AF0145
:100DD00017009801140084011300710110006101D3
:100DE000100051010E0043010D0036010B002B01D4
:100DF0000B0020010B00150109000C010900030183
:100E00000800FB000800F3000800EB000700E40006
:100E10000600DE000600D8000600D2000600CC0066
:100E20000500C7000500C2000500BD000400B900B0
:100E30000400B5000400B1000400AD000400A900E6
:100E40000400A5000300A20003009F0004009B0013
:100E50000300980003009500020093000300900037
:100E600003008D0002008B00030088000200860052
:100E7000020084000300810002007F0002007D0068
:100E800002007B000200790002007700010076007A
:100E900002007400020072000100710002006F0085
:100EA00002006D0001006C0002006A000100690090
:100EB0000200670001006600010065000100640097
:100EC00002006200010061000100600001005F009B
:100ED00002005D0001005C0001005B0001005A009F
:100EE00001005900010058000100570001005600A0
:100EF00001005500010054000100530000005300A0
:100F000001005200010051000100500001004F009B
:100F100001004E0000004E0001004D0001004C0099
:100F200001004B0000004B0001004A000100490095
:100F30000100480000004800010047000100460091
:100F4000000046000100450000004500010044008B
:100F50000100430000004300010042000000420085
:100F600001004100000041000100400001003F007D
:100F700000003F0001003E0000003E0001003D0077
:100F800000003D0001003C0000003C0000003C006F
:100F900001003B0000003B0001003A0000003A0065
:100FA000010039000000390001003800000038005D
:100FB0000000380001003700000037000100360053
:100FC000000036000000360001003500000035004A
:100FD000000035000100340000003400000034003F
:100FE0000100330000003300000033000100320034
:100FF000000032000000320001003100000031002A
:10100000000031000100300000003000000030001E
:1010100001002F0000002F0000002F0000002F0013
:1010200001002E0000002E0000002E0001002D0007
:1010300000002D0000002D0000002D0001002C00FC
:1010400000002C0000002C0000002C0001002B00F0
:1010500000002B0000002B0000002B0001002A00E4
:1010600000002A0000002A0000002A0001002900D8
:1010700000002900000029000000290000002900CC
:1010800001002800000028000000280000002800BF
:1010900000002800010027000000270000002700B2
:1010A00000002700000027000100260000002600A5
:1010B0000000260000002600000026000100250098
:1010C000000025000000250000002500000025008C
:1010D000000025000100240000002400000024007E
:1010E0000000240000002400010023000000230071
:1010F0000000230000002300000023000000230064
:101100000000230001002200000022000000220055
:101110000000220000002200000022000100210047
:10112000000021000000210000002100000021003B
:10113000000021000000210001002000000020002C
:10114000000020000000200000002000000020001F
:10115000000020000000200001001F0000001F0010
:1011600000001F0000001F0000001F0000001F0003
:1011700000001F0001001E0000001E0000001E00F5
:1011800000001E00000024F4D43050C38E20C2A200
:101190004017828B7011127A910D816CD90AA86167
:1011A000E108C7586607615143061E4B5D05C145FE
:1011B000A7041A411104093D9803713931034036DF
:1011C000DB0265339102D4305402802E1D02632C61
:1011D000EE01752AC501B028A001102781018F25D5
:1011E00064012B244B01E0223401AC211F018D202E
:1011F0000D01801FFC00841EED00971DDF00B81C50
:10120000D200E61BC600201BBC00641AB200B21953
:10121000A8000A19A0006A189900D1179100401778
:101220008B00B516840031167E00B31579003A158F
:101230007300C7146F0058146A00EE136600881319
:10124000630025135E00C7125B006C125700151275
:101250005400C111510070114F0021114B00D610E4
:1012600049008D1047004610440002104200C00F94
:101270004000800F3E00420F3C00060F3B00CB0EAB
:101280003800930E37005C0E3500270E3400F30D46
:101290003200C10D3100900D3000600D2E00320D76
:1012A0002D00050D2C00D90C2B00AE0C2900850C4F
:1012B00029005C0C2700350C27000E0C2600E80BDB
:1012C0002400C40B2400A00B23007D0B23005A0B29
:1012D0002100390B2100180B2000F80A1F00D90A41
:1012E0001E00BB0A1E009D0A1D00800A1D00630A25
:1012F0001C00470A1B002C0A1B00110A1A00F709E0
:101300001A00DD091900C4091900AB091900920976
:1013100017007B091800630917004C0916003609ED
:101320001600200916000A091500F5081500E00846
:101330001400CC081400B8081400A4081400900885
:1013400013007D0812006B081300580812004608AD
:1013500012003408110023081100120811000108BE
:101360001100F0071000E0071000D0071000C007C0
:101370001000B0070F00A107100091070E008307AF
:101380000F0074070F0065070E0057070E0049078E
:101390000E003B070D002E070E0020070D0013075F
:1013A0000D0006070D00F9060C00ED060D00E00625
:1013B0000C00D4060C00C8060C00BC060C00B006DD
:1013C0000C00A4060B0099060C008D060B0082068B
:1013D0000B0077060B006C060B0061060A0057062F
:1013E0000B004C060A0042060A0038060A002E06C8
:1013F0000A0024060A001A060A0010060900070659
:101400000A00FD050900F4050900EB050900E205E5
:101410000900D9050900D0050900C7050900BE0566
:101420000900B5050800AD050800A50509009C05E3
:101430000800940508008C050800840508007C0558
:101440000800740508006C050700650508005D05C7
:101450000700560508004E05070047050700400530
:10146000080038050700310507002A050700230595
:1014700007001C050600160507000F0507000805F4
:10148000060002050700FB040600F5040700EE0451
:101490000600E8040600E2040700DB040600D504A9
:1014A0000600CF040600C9040600C3040600BD04FC
:1014B0000600B7040600B1040500AC040600A6044B
:1014C0000600A00405009B04060095040500900496
:1014D00006008A04050085040500800406007A04DD
:1014E000050075040500700405006B040500660422
:1014F0000500610405005C04050057040500520462
:1015000005004D04050048040500430405003E04A1
:1015100004003A04050035040500300404002C04DE
:10152000050027040400230405001E0404001A0417
:10153000040016040500110404000D04040009044D
:1015400005000404040000040400FC030400F80384
:101550000400F4030400F0030400EC030400E803B7
:101560000400E4030400E0030400DC030400D803E7
:101570000400D4030400D0030400CC030400C80317
:101580000300C5030300656E6473746F7073206895
:1015900069743A205A00205A3A00656E6473746F79
:1015A0007073206869743A20590020593A00656EBA
:1015B0006473746F7073206869743A2058002058FF
:1015C0003A00656E6473746F7073206869743A20B2
:1015D000004572723A204D415854454D50204245C5
:1015E000440054656D70657261747572652068653C
:1015F00061746564206265642073776974636865EB
:1016000064206F66662E204D415854454D5020741D
:101610007269676765726564202121004572723ABC
:10162000204D494E54454D50003A2045787472750E
:10163000646572207377697463686564206F666699
:101640002E204D494E54454D502074726967676590
:101650007265642021004572723A204D415854450C
:101660004D50003A20457874727564657220737726
:10167000697463686564206F66662E204D41585416
:10168000454D50207472696767657265642021005A
:10169000544845524D414C2052554E4157415900F6
:1016A00062656400546865726D616C2052756E618C
:1016B0007761792C2073797374656D2073746F7002
:1016C00070656421204865617465725F49443A2001
:1016D00000202D20496E76616C69642065787472F3
:1016E00075646572206E756D626572202100100050
:1016F000AA03F0013A019002220130031001D00345
:1017000002017004F7001005ED00B005E500500679
:10171000DD00F006D7009007D1003008CC00D008DB
:10172000C7007009C300100ABE00B00ABB00500B0E
:10173000B700F00BB300900CB000D00DAA00100F52
:10174000A5005010A00090119B00D0129600B0147C
:10175000900090168B0070188500501A8000301C85
:101760007B00B01E750030216F00B0236900302669
:10177000640010285F00902A5A00702C5500F02E4B
:101780004F0070314800B0324500F03341007036F0
:101790003900103737005038330090392D00D03AD7
:1017A0002700B03C1C00503D1700F03D1100903E5A
:1017B0000900D03FE5FF70012C0190012701B00125
:1017C0002201C0011D01F0011801100213013002B5
:1017D0000E016002090190020401C002FF00000333
:1017E000FA004003F5008003F000D003EB00200472
:1017F000E6007004E100E004DC004005D700C0050D
:10180000D2004006CD00D006C8008007C3003008D3
:10181000BE00F008B900C009B400B00AAF00B00BB8
:10182000AA00D00CA500000EA000500F9B00C01015
:1018300096005012910000148C00C0158700B0175C
:101840008200B0197D00D01B7800001E730040207C
:101850006E0090226900F024640040275F00902908
:101860005A00E02B5500102E500020304B00103253
:101870004600E033410090353C00103737007038A7
:101880003200A0392D00B03A2800A03B2300603C74
:101890001E00103D1900903D1400103E0F00703ED8
:1018A0000A00C03E0500003F000048656174696E93
:1018B00067206661696C6564005049442041757415
:1018C0006F74756E652066696E6973686564212042
:1018D00050757420746865206C617374204B702C93
:1018E000204B6920616E64204B6420636F6E7374BB
:1018F000616E74732066726F6D2061626F76652011
:10190000696E746F20436F6E666967757261746982
:101910006F6E2E6800504944204175746F74756E67
:1019200065206661696C6564212074696D656F75F9
:10193000740020403A006F6B20543A006F6B2042D5
:101940003A00504944204175746F74756E65206685
:1019500061696C6564212054656D70657261747590
:10196000726520746F6F206869676800204B643A65
:101970002000204B693A2000204B703A2000204381
:101980006C61737369632050494420002054753A98
:101990002000204B753A2000206D61783A2000200D
:1019A0006D696E3A200020643A20002062696173FC
:1019B0003A20002D2D3A2D2D002D2D2D00534400C1
:1019C000012000012000436F6E74726F6C004C6543
:1019D00076656C20706C6174650046696C616D653C
:1019E0006E7400537065656400466C6F7700466CDA
:1019F0006F770046616E2073706565640046616EA6
:101A00002073706565640042656400426564004E41
:101A10006F7A7A6C65004E6F7A7A6C650043686104
:101A20006E67652066696C616D656E74004E6F202F
:101A300053442063617264005072696E7420667250
:101A40006F6D2053440053746F70207072696E7410
:101A500000526573756D65207072696E7400506117
:101A6000757365207072696E74004261636B005417
:101A7000656D7065726174757265004D383400442F
:101A8000697361626C652073746570706572730050
:101A90004D6F766520617869730047323800417573
:101AA000746F20686F6D65004261636B00436F6FF8
:101AB0006C646F776E0046616E20737065656400BC
:101AC00046616E207370656564004265640042651E
:101AD00064004E6F7A7A6C65004E6F7A7A6C65009E
:101AE000436F6E74726F6C004D6F766520302E31CF
:101AF0006D6D004D6F766520316D6D004D6F7665B3
:101B00002031306D6D0050726570617265004578EE
:101B1000747275646572004D6F7665205A004D6F62
:101B200076652059004D6F76652058004D6F7665BB
:101B30002061786973004578747275646572005A23
:101B400000590058004D6F76652061786973004D2B
:101B500038300053776974636820706F776572203E
:101B60006F6E004D38310053776974636820706F71
:101B7000776572206F666600436F6F6C646F776E77
:101B8000005072656865617420414253005072656F
:101B90006865617420504C410053657420686F6D16
:101BA00065206F666673657473004732380041754F
:101BB000746F20686F6D65004D383400446973613F
:101BC000626C65207374657070657273004D616935
:101BD0006E00507265686561742041425320426511
:101BE0006400507265686561742041425320310081
:101BF000507265706172650050726568656174202D
:101C0000504C4120426564005072656865617420E3
:101C1000504C412031005072657061726500436123
:101C20006E63656C00596573004E6F00436C6561AF
:101C30006E206E6F7A7A6C653F00776974682074E5
:101C40007765657A6572732E2E00436C65616E2030
:101C50006E6F7A7A6C650020202050726573732055
:101C6000746F2061626F72740001200054656D70A2
:101C70003A0048656174696E67206E6F7A7A6C65A8
:101C80002E2E00202020507265737320746F206107
:101C9000626F72740001200054656D703A004865EF
:101CA0006174696E67206265642E2E00556E6C6FDC
:101CB0006164004C6F6164004C6F616420284C6F5C
:101CC000616465642129004261636B004D373032E5
:101CD0000001200048656174696E672E2E2E004E4B
:101CE0006F7A7A6C65004E6F7A7A6C650042616338
:101CF0006B004D3730310001200048656174696E1A
:101D0000672E2E2E004E6F7A7A6C65004E6F7A7AAF
:101D10006C650041626F72740053706565640050B9
:101D2000617573696E672E2E2E00052E2E004D6193
:101D3000696E004D3234004D323320257300473137
:101D4000205A350047323800426C6F636B73206F46
:101D50006E652072656164792E0047323820582004
:101D6000590050617573696E672E2E2E00436172A3
:101D7000642072656D6F76656400436172642069EA
:101D80006E7365727465640076312E3200426C6F3A
:101D9000636B73206F6E6500616E64207072657393
:101DA0007320627574746F6E2E0069732070757283
:101DB00067656420616E64005761697420756E7494
:101DC000696C2066696C616D656E74005072657334
:101DD0007320746F207265686561742E00436F6FA5
:101DE0006C696E67206E6F7A7A6C652E2E0074694E
:101DF0006D6564206F75742E004368616E676520A1
:101E000066696C616D656E74007072696E742070C5
:101E1000617573652E2E005761697420666F7200BC
:101E200046696C616D656E7420756E6C6F6164657A
:101E30006421006E6F7A7A6C652068656174207524
:101E4000702E2E005761697420666F72006368619E
:101E50006E67652066696C616D656E742E005072E8
:101E600065737320746F00556E6C6F6164696E6783
:101E70002066696C616D656E742E2E00506C656114
:101E8000736520776169742E0046696C616D656EBB
:101E900074206C6F616465642100616E64207072EF
:101EA00065737320627574746F6E2E004772616281
:101EB00020626C6F622028747765657A6572732979
:101EC000006973207075726765642E0057616974CC
:101ED00020756E74696C2066696C616D656E740046
:101EE0004C6F6164696E672066696C616D656E74C4
:101EF0002E2E00506C6561736520776169742E0029
:101F0000616E6420707265737320627574746F6E95
:101F10002E00496E73657274206E65772066696C59
:101F2000616D656E740020506C617465206C65761F
:101F3000656C65642100202020202049732069748D
:101F4000206F6B3F20202020202020202050726511
:101F5000737320746F20656E640041646A757374D6
:101F600020666F7572746820706F696E742020200F
:101F700026205072657373207468652062757474CE
:101F80006F6E0041646A75737420746869726420AE
:101F9000706F696E74202020262050726573732044
:101FA00074686520627574746F6E0041646A75733D
:101FB00074207365636F6E6420706F696E74202087
:101FC000262050726573732074686520627574747E
:101FD0006F6E002041646A75737420666972737451
:101FE00020706F696E7420202620507265737320F4
:101FF00074686520627574746F6E0020204C65767D
:10200000656C696E6720706C6174652E2E2E2020C1
:102010002020507265737320746F20737461727422
:1020200020202000202020507265737320746F20C0
:1020300061626F72740001200054656D703A004354
:102040006F6F6C696E672E2E2E004D373030004D4D
:1020500033303020533639382050323030004D3351
:10206000303020533635392050323030000A0020CD
:10207000000A00207A3A200020793A200020783A9D
:10208000200000002100240027002A002D0030003D
:10209000330001010000040107010A0100002200D1
:1020A000250028002B002E00310034000201000022
:1020B000050108010B010000200023002600290073
:1020C0002C002F003200000100000301060109016D
:1020D00005050505070508080808020202020A0AA4
:1020E00008080404040401010101010101010303C2
:1020F000030303030303040707070C0C0C0C0C0C6D
:102100000C0C0202020206060606060606060B0B69
:102110000B0B0B0B0B0B01021020200808102040AA
:10212000102040800201020108040201010204089B
:102130001020408080402010080402018004020129
:102140008040201008040201080402010102040872
:102150001020408001020408102040800000090A7D
:1021600002080B0C0D07060304010000000000002C
:10217000000000000000000000000000000000005F
:10218000000000000000000011100F00000000001F
:10219000000000000000000000000000000000003F
:1021A000000002494E46494E4954594E414ECDCC4D
:1021B000CC3D0AD7233C17B7D13877CC2B32959535
:1021C000E6241FB14F0A000020410000C842004031
:1021D0001C4620BCBE4CCA1B0E5AAEC59D740D9445
:1021E0004A060D94B9008E2E623111E5EEFD5D3187
:1021F00011241FBECFEFD1E2DEBFCDBF00E00CBF88
:1022000015E0A0E0B2E0E8EAF2E202E00BBF02C0B3
:1022100007900D92A43EB107D9F71BBE15E1A4EEBD
:10222000B5E001C01D92A530B107E1F711E2CEEE95
:10223000D1E204C02297FE010F94FA10C63ED107E6
:10224000C9F70F943B060D9448110C940000A0E0D0
:10225000B0E0EDE2F1E10D941711EC015B016115C5
:10226000710519F0FB0191838083F9908F2D90E027
:102270000F94FE10892BC9F7FDE2FF1621F4F990A7
:10228000EE24E39405C02BE2F21609F4F990EE2453
:102290008E0101501040C80163EA71E243E050E052
:1022A00069D2892BF9F48E010E5F1F4FC80166EACF
:1022B00071E245E050E05ED2892B19F48E01095F8E
:1022C0001F4FA114B10419F0F50111830083E0FC44
:1022D00004C070E090E080E813C070E090E080E817
:1022E0006FEF07C1C8016BEA71E243E050E042D2F0
:1022F000892B69F4A114B10429F470E090E080EC1A
:102300006FE7F7C02296F501D183C083F6CF88240A
:10231000992440E050E060E070E0EF2DE053EA30B7
:10232000A0F5F2E0EF2A8E2D90E09C01287030702D
:10233000E2FE06C0232B79F50894811C911C2BC06A
:10234000232B19F0089481089108DB01CA0112E0DF
:10235000880F991FAA1FBB1F1A95D1F7480F591F45
:102360006A1F7B1F440F551F661F771F4E0F511D9D
:10237000611D711D483929E9520729E9620729E1E0
:10238000720748F084E0E82A06C0EE3F31F4E3FC2F
:1023900039C098E0E92AF990C0CFE53311F0E53172
:1023A00089F529912D3219F4E0E1EE2A05C02B328E
:1023B00019F081E090E003C0299182E090E0E22FE3
:1023C000E053EA3018F0C81BD90B1CC020E030E005
:1023D000FCE020383F075CF4C901880F991F880F83
:1023E000991F280F391F220F331F2E0F311DE9911E
:1023F000E053EA3068F3E4FE03C0309521953F4F87
:10240000820E931ECE2CDD24E1FE07C0A114B10480
:1024100021F02197F501D183C083CB01BA010F943C
:10242000570D7B018C01F3E0CF22DD2423E0C2169F
:10243000D10421F417FB109517F910955701680185
:10244000C801B70120E030E040E050E00F94B70C45
:10245000882309F44AC097FE0DC022ECE22E21E247
:10246000F22E9094819491089394C0E2D0E000E021
:1024700010E012C09AEDE92E91E2F92EF6CFF701A5
:102480002591359145915491C601B5010F94970F4F
:102490005B016C018C1A9D0A8C169D0684F7D595FC
:1024A000C7950F5F1F4F0630110529F08CEF9FEF86
:1024B000E80EF91EF1CFC501D6017C018D018C2DEE
:1024C000880F8D2D881F8F3F51F0C601B50120E088
:1024D00030E040E050E00F94B70C882331F482E202
:1024E00090E090930415809303157E2D9F2D802FEF
:1024F000612F272F392F482F562FB901CA01CDB789
:10250000DEB7ECE00D9433112F923F925F926F9201
:102510007F928F929F92AF92BF92CF92DF92EF9273
:10252000FF920F931F93CF93DF938C011B01EA015E
:102530006115710519F0FB0191838083209749F0A3
:10254000CE010297839728F020E030E040E050E091
:10255000F6C0F801A1908F018A2D90E00F94FE1033
:10256000892BB9F7FDE2AF1631F4F801A1908F0184
:102570005524539407C0FBE2AF1619F4F801A1905B
:102580008F015524209719F0C031D105C1F4F0E333
:10259000AF1679F4F8018081883711F0883549F455
:1025A000F801A1800E5F1F4FF2E05F2AC0E1D0E08A
:1025B00006C0209721F480E3A816E9F427C0C830AC
:1025C000D10531F1C930D10524F4C230D10531F53E
:1025D0000CC0CA30D10589F0C031D105F9F4C12C45
:1025E000D12CE12CB8E0FB2E28C0C12CD12CE12C41
:1025F000A0E4FA2E22C0CAE0D0E0FCECCF2EFCEC26
:10260000DF2EFCECEF2EFCE0FF2E17C0C8E0D0E080
:10261000C12CD12CE12CE0E1FE2E0FC09E014427FD
:1026200037FD4095542F60E070E080E090E80F9413
:10263000BB10C901DA016C017D0120E030E040E00F
:1026400050E060E03E01882477FC8094982C70ED87
:10265000B72EBA0CE9E0EB1570F48A2D81548A315B
:1026600018F499ECB92E06C08A2D81568A3150F59E
:1026700089EAB82EBA0C8B2D90E08C179D0714F5C3
:102680006F3FE1F0C216D306E406F506B0F0CA01CA
:10269000B901A40193010F9469109B01AC012B0DAA
:1026A000311D411D511D2130F0E03F07F0E04F0783
:1026B000F0E85F0710F461E001C06FEFF801A1904E
:1026C0008F01C5CF2114310481F0662331F0015010
:1026D0001040F1011183008308C051FE1AC002505E
:1026E0001040F1011183008314C067FF12C050FC39
:1026F00005C02FEF3FEF4FEF5FE704C020E030E071
:1027000040E050E882E290E0909304158093031536
:1027100016C050FE08C050954095309521953F4F0A
:102720004F4F5F4F0CC057FF0AC082E290E090937A
:102730000415809303152FEF3FEF4FEF5FE7B901CB
:10274000CA01DF91CF911F910F91FF90EF90DF9021
:10275000CF90BF90AF909F908F907F906F905F9041
:102760003F902F900895FB01DC0105900D92002011
:10277000E1F70895FB01DC014150504088F08D9154
:1027800081341CF08B350CF4805E659161341CF053
:102790006B350CF4605E861B611171F3990B089523
:1027A000881BFCCFFB01DC014150504048F00590F4
:1027B0000D920020C9F701C01D9241505040E0F732
:1027C0000895FB0155915523A9F0BF01DC014D91FE
:1027D00045174111E1F759F4CD010590002049F06A
:1027E0004D9140154111C9F3FB014111EFCF81E03B
:1027F00090E001970895FB01DC0104C08D910190E8
:10280000801921F441505040C8F7881B990B089556
:10281000FB01DC0102C001900D9241505040D8F7FD
:102820000895FB01DC018D9181341CF08B350CF493
:10283000805E619161341CF06B350CF4605E861B28
:10284000611189F3990B0895FB01DC010D900020C3
:10285000E9F7119701900D920020E1F70895FC012E
:102860008191861721F08823D9F799270895319708
:10287000CF010895FB01DC018D91019080190110B9
:10288000D9F3990B0895FB01DC0101900D92002012
:10289000E1F70895FB01DC014150504030F08D918B
:1028A0000190801919F40020B9F7881B990B08953D
:1028B000FB01DC014150504048F001900D92002096
:1028C000C9F701C01D9241505040E0F70895AEE0B5
:1028D000B0E0EDE6F4E10D941F110E891F898EE042
:1028E0008C831A8309838FEF9FE79E838D839E01DC
:1028F000265E3F4FCE010196688D798DA9010AD0E1
:102900002F813885020F131FF80110822E96E4E004
:102910000D943B11ABE0B0E0E0E9F4E10D9411114E
:102920003C012B015A01FC0117821682838181FD33
:1029300003C06FEF7FEFB9C19AE0892E1E010894A2
:10294000211C311CF3012381F20123FD859123FF1A
:1029500081912F01882309F4A5C1853239F423FD23
:10296000859123FF81912F01853221F490E0B301FD
:10297000B7D1E8CF982FFF24EE249924FFE1FF156B
:10298000D0F09B3269F09C3228F4903259F09332A7
:1029900091F40EC09D3249F0903369F441E024C0B7
:1029A00052E0F52A84E0F82A28C098E0F92A25C0E8
:1029B000E0E1FE2A22C0F7FC29C0892F80538A302B
:1029C00070F4F6FE05C0989C902C1124980E15C04A
:1029D000E89CE02C1124E80EF0E2FF2A0EC09E32A3
:1029E00029F4F6FC5FC140E4F42A07C09C3619F4D0
:1029F00050E8F52A02C0983649F4F20123FD95917A
:102A000023FF91912F01992309F0B8CF892F855485
:102A1000833018F08052833038F444E050E0A40E44
:102A2000B51E5FE359830FC0933631F0933779F0C9
:102A3000933509F052C01FC0F5018081898342E0BF
:102A400050E0A40EB51E610101E010E011C0F501D7
:102A5000C080D180F6FC03C06FEF7FEF02C0692D0C
:102A600070E042E050E0A40EB51EC6012ED18C01EC
:102A70005FE7F52213C0F501C080D180F6FC03C0EA
:102A80006FEF7FEF02C0692D70E042E050E0A40ECE
:102A9000B51EC6010FD18C0150E8F52AF3FE06C021
:102AA00018C080E290E0B3011BD1EA948E2D90E033
:102AB00008171907B0F30DC0F601F7FC8591F7FE72
:102AC00081916F0190E0B3010BD1E110EA940150C4
:102AD00010400115110581F7E2C0943611F09936C6
:102AE00061F5F7FE08C0F5012081318142815381F3
:102AF00084E090E00AC0F501808191819C01442727
:102B000037FD4095542F82E090E0A80EB91E9FE655
:102B1000F92257FF09C050954095309521953F4FB8
:102B20004F4F5F4FE0E8FE2ACA01B901A1012AE038
:102B300030E002D1D82ED2183FC0953729F41F2D8E
:102B40001F7E2AE030E01DC01F2D197F9F3661F0E7
:102B5000903720F4983509F0A5C00FC0903739F0B0
:102B6000983709F09FC004C028E030E00AC0106127
:102B700014FD146020E130E004C014FD166020E173
:102B800032E017FF08C0F501608171818281938175
:102B900044E050E008C0F50180819181BC0180E0F3
:102BA00090E042E050E0A40EB51EA101C5D0D82EA1
:102BB000D2188FE7F82EF122F6FE0BC05EEFF52259
:102BC000D91438F4F4FE07C0F2FC05C08FEEF822E9
:102BD00002C01D2D01C0192DF4FE0DC0FE01ED0D2A
:102BE000F11D8081803319F499EEF92208C01F5F2E
:102BF000F2FE05C003C08F2D867809F01F5F0F2DF0
:102C0000F3FC13C0F0FE0EC01E1510F09D2C0AC080
:102C10009D2C9E0C911A1E2D05C080E290E0B30100
:102C20005FD01F5F1E15C8F304C01E1510F4E11A13
:102C300001C0EE2404FF0EC080E390E0B30150D049
:102C400002FF1BC001FD03C088E790E00EC088E5CD
:102C500090E00BC0802F867881F001FF02C08BE2EC
:102C600001C080E2F7FC8DE290E0B30139D005C0ED
:102C700080E390E0B30134D09A94D914C8F3DA9485
:102C8000F101ED0DF11D808190E0B30129D0DD202F
:102C9000B1F705C080E290E0B30122D0EA94EE20C3
:102CA000C9F750CEF30166817781CB012B96E2E123
:102CB0000D942D11FC010590615070400110D8F762
:102CC000809590958E0F9F1F0895FC016150704074
:102CD00001900110D8F7809590958E0F9F1F089551
:102CE0000F931F93CF93DF938C01EB018B8181FFB7
:102CF0001BC082FF0DC02E813F818C819D812817D2
:102D0000390764F4E881F9810193F983E88306C007
:102D1000E885F985802F1995892B31F48E819F8163
:102D200001969F838E8302C00FEF1FEFC801DF91D2
:102D3000CF911F910F910895FA01AA27283051F1E0
:102D4000203181F1E8946F936E7F6E5F7F4F8F4FDC
:102D50009F4FAF4FB1E03ED0B4E03CD0670F781F3B
:102D6000891F9A1FA11D680F791F8A1F911DA11D20
:102D70006A0F711D811D911DA11D20D009F4689459
:102D80003F912AE0269F11243019305D3193DEF601
:102D9000CF010895462F4770405D4193B3E00FD0B7
:102DA000C9F7F6CF462F4F70405D4A3318F0495DA2
:102DB00031FD4052419302D0A9F7EACFB4E0A69585
:102DC0009795879577956795BA95C9F700976105A7
:102DD000710508959B01AC010A2E069457954795FD
:102DE00037952795BA95C9F7620F731F841F951FF2
:102DF000A01D0895FC01128213820895FC018381B5
:102E0000882311F081E082830895CF93DF93DC0162
:102E1000FC01EB55FE4F808191810097C9F101972C
:102E200091838083ED01CC5ADF4FFD01ED58FF4FB8
:102E30008BE1019009928150E1F7FD01EE5AFF4FBD
:102E4000AF58BF4F8D919C911197A157B04091837E
:102E50008083FD01ED58FF4F20E030E0AD014B5580
:102E60005E4F10C02F5F3F4FEF01DF015F968BE198
:102E70000D9009928150E1F7858D968D329791835F
:102E80008083B196DA018D919C912817390750F310
:102E9000DF91CF910895FC018FE695E091838083C7
:102EA0008781882321F0CF0104960C94FDA4089516
:102EB000CF92DF92EF92FF920F931F93DF93CF9306
:102EC000CDB7DEB76F970FB6F894DEBF0FBECDBF9C
:102ED0008C016B01095A1F4FD8018C910755104086
:102EE000882321F42FE2E22EF12C03C090E5E92E95
:102EF000F12CE00EF11E8FE695E09A8389831C8207
:102F00001B8218861D82B7016C5F7F4FCE0105962C
:102F1000A60121E00E94E9AB882391F5EEE5F5E0FA
:102F2000949108C08091C00085FFFCCF9093C600AB
:102F3000319694919923B1F7EFE5F1E0949108C0AF
:102F40008091C00085FFFCCF9093C600319694918C
:102F50009923B1F709C08091C00085FFFCCF089488
:102F6000C11CD11C9093C600F6019081992399F75A
:102F70008091C00085FFFCCF8AE08093C6005AC0D4
:102F8000F801EB55FE4F208131812A30310508F0E0
:102F900040C02F5F3F4F3183208321503040F901E3
:102FA00085E0EE0FFF1F8A95E1F7E21BF30BED586A
:102FB000FF4FE00FF11F13C0AF01415E5F4FBF0134
:102FC0008BE1DB010D90BD01DA010D92AD01815065
:102FD000C1F7929182913296968F858F7F9721507B
:102FE0003040BFEF2E3F3B0739F7D801AD58BF4FF8
:102FF000F70134968BE101900D928150E1F70F5863
:103000001F4FF70182819381D8018D939C930157C3
:103010001040D801AC5ABF4FFE0135968BE10190AC
:103020000D928150E1F70E5A1F4F8B819C81F80160
:1030300091838083CE0101962EDF6F960FB6F894B0
:10304000DEBF0FBECDBFCF91DF911F910F91FF90DB
:10305000EF90DF90CF900895EF92FF920F931F9320
:103060008C013EECE32E31E0F32EE80EF91EC70191
:103070000E94B0A4C7010E94FDA4F8011082118231
:103080001F910F91FF90EF900895CF92DF92EF92F2
:10309000FF920F931F93CF93DF937C016B01DB01B2
:1030A0000D900020E9F78D0101501040061B170B11
:1030B000EEECF1E0EE0EFF1ED7011C92E2E3FEEF14
:1030C000EE0EFF1ECB016EE470E0C9DBEC01009751
:1030D00031F4F8013197EC0DFD1D86010CC060E262
:1030E00070E0BDDB8C010F5F1F4FCE016AE270E024
:1030F000B6DBFC0131978DE081838AE08283138205
:10310000C70186539E4FB8010E94FAAC8EEC91E045
:10311000E80EF91ED7018C91882319F1E7E5F5E057
:10312000949108C08091C00085FFFCCF9093C600A9
:10313000319694919923B1F7E9E8F1E0949108C0B0
:103140008091C00085FFFCCF9093C600319694918A
:103150009923B1F78091C00085FFFCCF8AE080936E
:10316000C600DF91CF911F910F91FF90EF90DF90FC
:10317000CF900895CF93DF93EC018B81882309F4DE
:103180003BC0E1EBF1E0949108C08091C00085FF65
:10319000FCCF9093C600319694919923B1F7CD5707
:1031A000DD4F488159816A817B81C358D24088E6CE
:1031B00096E02AE030E00E94272FEFEAF1E09491B8
:1031C00008C08091C00085FFFCCF9093C600319667
:1031D00094919923B1F7C558DD4F488159816A818F
:1031E0007B8188E696E02AE030E00E94272F8091DC
:1031F000C00085FFFCCF12C0EFE9F1E0949108C058
:103200008091C00085FFFCCF9093C60031969491C9
:103210009923B1F78091C00085FFFCCF8AE08093AD
:10322000C600DF91CF9108952F923F924F925F9207
:103230006F927F928F929F92AF92BF92CF92DF92C6
:10324000EF92FF920F931F93DF93CF93CDB7DEB72B
:10325000AC970FB6F894DEBF0FBECDBF5C014B013B
:10326000FC018381882309F43BC1C50182539E4F31
:103270000E94FDA4F50112821A8A1D8A198A188AF1
:103280008FE695E09F878E875EE4C52ED12CCA0C11
:10329000DB1C2FE230E0A20EB31EF601B182A08249
:1032A00021ED3FEFA20EB31EF40180818F3209F0B1
:1032B0008DC0C4016FE270E0D2DA7C010894E11C99
:1032C000F11C3E010894611C711C260142E1242E70
:1032D000312C2C0E3D1E75C0C7016FE270E0BFDAC5
:1032E0006C01009709F480C0E816F90608F07CC06C
:1032F0008C010E191F09C301B701A801D9DA060D07
:10330000171DF8011082F30107C08091C00085FFEE
:10331000FCCF31969093C60090819923B1F78091AC
:10332000C00085FFFCCFFAE0F093C600F201608197
:1033300071816115710519F460E070E002C06C5F85
:103340007F4FC101A30121E00E94E9AB882371F501
:10335000EDEEF1E0949108C08091C00085FFFCCFB4
:103360009093C600319694919923B1F7FE0131965E
:1033700007C08091C00085FFFCCF31969093C600B6
:1033800090819923B1F7EBEEF1E0949108C0809120
:10339000C00085FFFCCF9093C6003196949199238D
:1033A000B1F78091C00085FFFCCF94C02EE030E0E3
:1033B0002C0F3D1FF2013183208376010894E11C1C
:1033C000F11CE114F10409F087CF0BC080E590E017
:1033D000A80EB91EF601B182A08220EB3FEFA20E2B
:1033E000B31ED82C092D02C0DE2C0F2D8EE490E0E8
:1033F000A80EB91EF5018081918122EB3FEFA20E4C
:10340000B31E009719F480E090E001C004966D2D82
:10341000702F0E94B5AC882371F1EDEDF1E094912D
:1034200008C08091C00085FFFCCF9093C600319604
:1034300094919923B1F78D2D902F9C01F90107C02C
:103440008091C00085FFFCCF31969093C60090819B
:103450009923B1F78091C00085FFFCCF8AE080936B
:10346000C60083E892E0A80EB91EF5011082118211
:103470001282138232C0E5ECF1E0949108C0809191
:10348000C00085FFFCCF9093C6003196949199239C
:10349000B1F78D2D902F9C01F90107C08091C000DC
:1034A00085FFFCCF31969093C60090819923B1F7A8
:1034B000E3ECF1E0949108C08091C00085FFFCCF5F
:1034C0009093C600319694919923B1F78091C000F2
:1034D00085FFFCCF8AE08093C600CE010E96DBDC30
:1034E000AC960FB6F894DEBF0FBECDBFCF91DF9183
:1034F0001F910F91FF90EF90DF90CF90BF90AF9012
:103500009F908F907F906F905F904F903F902F9003
:103510000895BF92CF92DF92EF92FF920F931F9385
:10352000CF93DF938C01EB018FE28993EE24E39438
:10353000FF2475EAC72E71E0D72EC00ED11E6FE1B1
:10354000B62E14C0FB9CC00111248D589F4F800FD4
:10355000911FBE010E940DA502C02196E3948881AF
:10356000882319F08CE88E15C0F7F3942F2D30E0E6
:10357000F601808191812817390720F3E7FC07C005
:10358000C80182539E4FBE010E940DA501C0188242
:10359000DF91CF911F910F91FF90EF90DF90CF902F
:1035A000BF900895EF92FF920F931F93CF93DF93F5
:1035B0008C01FC01138286A9882321F0C801C396DF
:1035C0000E94FDA4E7EAEE2EE1E0FE2EE00EF11EE1
:1035D000C70160E045E30E94ACA2882309F5EEE54F
:1035E000F5E0949108C08091C00085FFFCCF9093D6
:1035F000C600319694919923B1F7E6E3F3E09491F4
:1036000008C08091C00085FFFCCF9093C600319622
:1036100094919923B1F78091C00085FFFCCF7DC0C4
:10362000E801C455DE4FCE01B70141E00E948BADE9
:10363000882341F5CE01B70140E00E948BAD88237D
:1036400009F5E7E5F5E0949108C08091C00085FF99
:10365000FCCF9093C600319694919923B1F7E3E2A1
:10366000F3E0949108C08091C00085FFFCCF909357
:10367000C600319694919923B1F78091C00085FFDF
:10368000FCCF4BC0C801C396BE010E94EFA78823A0
:1036900009F5E7E5F5E0949108C08091C00085FF49
:1036A000FCCF9093C600319694919923B1F7E3E152
:1036B000F3E0949108C08091C00085FFFCCF909307
:1036C000C600319694919923B1F78091C00085FF8F
:1036D000FCCF23C081E0F8018383EEE5F5E094910F
:1036E00008C08091C00085FFFCCF9093C600319642
:1036F00094919923B1F7E8E0F3E0949108C08091A8
:10370000C00085FFFCCF9093C60031969491992319
:10371000B1F78091C00085FFFCCF8AE08093C6009E
:10372000D801AC5ABF4FF801F3968BE101900D928E
:103730008150E1F7F80181A992A90E5A1F4FF801B3
:103740009183808302551040C8018F96025B1F4F02
:10375000F80191838083DF91CF911F910F91FF90AA
:10376000EF9008952F923F924F925F926F927F92C7
:103770009F92AF92BF92CF92DF92EF92FF920F9300
:103780001F93DF93CF93CDB7DEB7CC55D0400FB6A4
:10379000F894DEBF0FBECDBF6C01662311F527E89C
:1037A00032E0C20ED31ED6018C91E9E7FDEFCE0EBA
:1037B000DF1E882309F4E2C02FE732E0C20ED31ED9
:1037C000D601ED90FD900D911C91E1E8FDEFCE0E3C
:1037D000DF1E0F947503E616F7060807190708F4AD
:1037E000CDC027E832E0C20ED31ED6011C92E9E715
:1037F000FDEFCE0EDF1ED60113968C91882339F48F
:10380000C601D0DEF6018381882309F4B7C000D059
:1038100000D0EDB7FEB731967E010894E11CF11C93
:10382000ADB7BEB71296FC92EE92119780E891E088
:1038300093838283D6019D968D919C919E979583CB
:10384000848345D88701EDB7FEB736960FB6F89456
:10385000FEBF0FBEEDBF57010AC0D8018C9199275A
:1038600087FD90950F940611F80181938F01F50162
:1038700001900020E9F73197EA19FB09802F8E1992
:103880008E175CF313E3A12EB12CAC0CBD1CC5014B
:1038900040E050E060E070E00E94E6A39924BDE3C0
:1038A000EB2EF12CEC0EFD1E2E010894411C511C38
:1038B000AFE16A2E712C6C0E7D1EF9E72F2EF1E020
:1038C0003F2E42C0D8018C9190E00F940611F80170
:1038D00081938F01D7010D900020E9F71197AE1960
:1038E000BF09802F8E198A176CF327968FAD279703
:1038F0008E3751F1C701B20145E050E00E944A14F1
:10390000009711F500D000D0EDB7FEB73196ADB7F6
:10391000BEB712967C926E921197338222825582A4
:1039200044820E946714EDB7FEB736960FB6F8943E
:10393000FEBF0FBEEDBFC3010E943E7385E791E05D
:103940000E94207299249394C501B70140E050E091
:103950000E940EA7181614F48701BCCF992041F4D9
:103960008FEF9FEFD6019E969C938E939D9706C0F6
:10397000F60185A596A5019696A785A7C45ADF4F9F
:103980000FB6F894DEBF0FBECDBFCF91DF911F9170
:103990000F91FF90EF90DF90CF90BF90AF909F90EE
:1039A0007F906F905F904F903F902F9008952F924F
:1039B0003F924F925F926F927F928F929F92AF92BF
:1039C000BF92CF92DF92EF92FF920F931F93DF93FC
:1039D000CF93CDB7DEB7CF58D0400FB6F894DEBF47
:1039E0000FBECDBF8C012B016A01C757DF4F398352
:1039F0002883C958D04084E090E0C80ED91EF80151
:103A00007196C957DF4FF983E883C758D04044E027
:103A1000642E712C600E711ECA57DF4F1882C65873
:103A2000D04036E6E32EF12CEC0EFD1EC7010B96BE
:103A3000C557DF4F99838883CB58D04028E8822E22
:103A400022E0922E800E911E9AE8A92E92E0B92EC5
:103A5000A00EB11E87E4282E312C2C0E3D1EF10144
:103A60003496C357DF4FF983E883CD58D040EEE555
:103A7000F5E08491C157DF4F8883CF58D04053C1C0
:103A8000F7018385482F50E0BA016871707060318A
:103A9000710509F056C1F4012081318121303105D1
:103AA00009F44FC12230310509F44BC1F701DE01A1
:103AB00011969081903239F08E2F8E19883011F442
:103AC0008EE28D939D933196C557DF4F8881998102
:103AD000CB58D040E817F90761F71C921E86F20117
:103AE0008081882331F4CE010E9660E072E00E945E
:103AF0002414CE010E96B2010E942414CE010E961B
:103B0000BE016F5F7F4F0E942414CE010E9660E0CD
:103B100072E00E9424141CA61FA61BA61AA68FE6FC
:103B200095E099A788A7CE018C96B601AE014F5FAC
:103B30005F4F21E00E94E9AB882309F03FC0F40108
:103B400080819181892BD1F5C157DF4F9881CF5862
:103B5000D040EEE5F5E008C08091C00085FFFCCFC5
:103B60009093C600319694919923B1F7E2E0F2E088
:103B700007C08091C00085FFFCCF31969093C600AE
:103B800090819923B1F78091C00085FFFCCFFAE0C6
:103B9000F093C600FE01319607C08091C00085FFFA
:103BA000FCCF31969093C60090819923B1F7809114
:103BB000C00085FFFCCF8AE08093C600C357DF4F6B
:103BC000A881B981CD58D040FE01BC968BE101900F
:103BD0000D928150E1F78AA59BA5F1019383828321
:103BE0008FE695E091838083C801BE01625F7F4FBD
:103BF000A10120E030E0DBDEC1014DD9CE01889685
:103C00004AD991C09E3209F48EC09F3509F48BC009
:103C1000F80191899E3209F486C09F3509F483C06A
:103C200043FD81C080E06031710509F481E0F80155
:103C300084A7882349F4F7018085873409F073C08D
:103C400081858E3709F46FC0D301F70180818032FE
:103C500041F08E2F8E19883011F48EE28D93808181
:103C60008D933196C557DF4F88819981CB58D040CD
:103C7000E817F90759F71C92F401808191810097A8
:103C800001F5F20107C08091C00085FFFCCF31969D
:103C90009093C60090819923B1F7F30107C08091FA
:103CA000C00085FFFCCF31969093C6009081992388
:103CB000B1F78091C00085FFFCCFFAE0F093C60019
:103CC00032C08130910539F4F501808191810196EE
:103CD0009183808328C0029731F5C757DF4F8881D1
:103CE0009981C958D040009731F0B3010E94111456
:103CF000892B71F42BC0CA57DF4F9881C658D0402A
:103D0000292F30E0F5018081918128173907F1F0E2
:103D1000CA57DF4FF881C658D040FF5FCA57DF4F00
:103D2000F883C658D040C601B701C957DF4F488154
:103D30005981C758D0400E940EA718160CF4A0CE87
:103D400005C0F7019081992309F05CCFC157DF4F7F
:103D50000FB6F894DEBF0FBECDBFCF91DF911F919C
:103D60000F91FF90EF90DF90CF90BF90AF909F901A
:103D70008F907F906F905F904F903F902F9008951D
:103D8000EF92FF920F931F93DF93CF93CDB7DEB7E0
:103D90006F970FB6F894DEBF0FBECDBF7C018C01CC
:103DA000025B1F4F805B9F4FF8019183808328E85F
:103DB00032E0E20EF31E21E030E0F701219331936F
:103DC0007F011182108226E73DEFE20EF31E04967A
:103DD00040E050E060E070E00E94E6A3F80120813E
:103DE0003181DE011596F90134968BE101900D9237
:103DF0008150E1F7F901828193819C838B838FE667
:103E000095E09A838983C70165E172E08E010F5FB7
:103E10001F4FA80120E030E0CADDC8013CD8F701FF
:103E2000E657FD4F808191816F960FB6F894DEBF03
:103E30000FBECDBFCF91DF911F910F91FF90EF90FB
:103E40000895CF92DF92EF92FF920F931F93DF932B
:103E5000CF93CDB7DEB76F970FB6F894DEBF0FBE26
:103E6000CDBF7C016A018C01025B1F4F805B9F4FBD
:103E7000F8019183808328E832E0E20EF31E22E00D
:103E800030E0F701219331937F017183608326E74E
:103E90003DEFE20EF31E049640E050E060E070E07B
:103EA0000E94E6A3F80120813181DE011596F90117
:103EB00034968BE101900D928150E1F7F9018281F6
:103EC00093819C838B838FE695E09A838983C701D6
:103ED00065E172E08E010F5F1F4FA801960167DD5B
:103EE000C8010E944B176F960FB6F894DEBF0FBE45
:103EF000CDBFCF91DF911F910F91FF90EF90DF9099
:103F0000CF9008952F923F924F925F926F927F923F
:103F10008F929F92AF92BF92CF92DF92EF92FF92D9
:103F20000F931F93DF93CF93CDB7DEB7AD970FB647
:103F3000F894DEBF0FBECDBF7C013B014DA7DC0175
:103F400013968C91882309F450C3E1EDF1E0EE0E55
:103F5000FF1ED7018C91EFE2FEEFEE0EFF1E8823CD
:103F600009F418C1222309F0E0C029EE31E0E20E85
:103F7000F31ED7018C91E7E1FEEFEE0EFF1E8823C2
:103F800071F1E7E5F5E0949108C08091C00085FFEC
:103F9000FCCF9093C600319694919923B1F7E5EC4C
:103FA000F2E0949108C08091C00085FFFCCF90930F
:103FB000C600319694919923B1F788E696E061E0C6
:103FC00070E04AE050E00E94762F8091C00085FFAB
:103FD000FCCF8AE08093C6000E94F83106C3EEE56C
:103FE000F5E0949108C08091C00085FFFCCF9093CC
:103FF000C600319694919923B1F7ECEAF2E09491DE
:1040000008C08091C00085FFFCCF9093C600319618
:1040100094919923B1F7F30107C08091C00085FF07
:10402000FCCF31969093C60090819923B1F7E1EAD5
:10403000F2E0949108C08091C00085FFFCCF90937E
:10404000C600319694919923B1F7C7012EEE31E065
:10405000E20EF31EB7015DDA4BEF5FEFE40EF51EE3
:10406000D7019C91E7E1FEEFEE0EFF1E8DE8989FD1
:10407000F0011124E251FE4FEE0DFF1D07C08091AB
:10408000C00085FFFCCF31969093C60090819923A4
:10409000B1F7EBE9F2E0949108C08091C00085FF90
:1040A000FCCF9093C600319694919923B1F723E801
:1040B00032E0E20EF31ED7014D915D916D917C913E
:1040C000EDE7FDEFEE0EFF1E88E696E02AE030E019
:1040D0000E94272F8091C00085FFFCCF8AE080934B
:1040E000C600A70147515E4FDA012C91E22FF0E0A4
:1040F000EE0FFF1FEE0FFF1FEE0DFF1DE651FE4FEF
:1041000083E892E0E80EF91ED701AD90BD90CD9006
:10411000DC908DE79DEFE80EF91EA082B182C2828D
:10412000D3822F5FDA012C932FC0EEE5F5E0949156
:1041300008C08091C00085FFFCCF9093C6003196E7
:1041400094919923B1F7EAE8F2E0949108C0809144
:10415000C00085FFFCCF9093C600319694919923BF
:10416000B1F7F30107C08091C00085FFFCCF319605
:104170009093C60090819923B1F78091C00085FF8C
:10418000FCCF8AE08093C600C70182539E4F0E94F5
:10419000FDA439C0E9EEF1E0EE0EFF1ED7011C923E
:1041A000E7E1FEEFEE0EFF1EEEE5F5E0949108C0AC
:1041B0008091C00085FFFCCF9093C600319694910A
:1041C0009923B1F7E9E7F2E0949108C08091C0002B
:1041D00085FFFCCF9093C600319694919923B1F757
:1041E000F30107C08091C00085FFFCCF319690930A
:1041F000C60090819923B1F78091C00085FFFCCF64
:104200008AE08093C600D70112961C921A8A1D8AF2
:10421000198A188A8FE695E09F878E876EE4A62E0E
:10422000B12CAE0CBF1CEFE2F0E0EE0EFF1ED5018C
:10423000ED92FC92E1EDFFEFEE0EFF1ED3018C91AB
:104240008F3209F090C0C3016FE270E00E942F141A
:104250006C010894C11CD11C4E010894811C911C56
:10426000250152E1252E312C2C0E3D1E77C0C601B2
:104270006FE270E00E942F145C01009709F480C087
:10428000C816D90608F07CC08C010C191D09C401A0
:10429000B601A8010E945814080D191DF8011082DA
:1042A000F40107C08091C00085FFFCCF3196909348
:1042B000C60090819923B1F78091C00085FFFCCFA3
:1042C000FAE0F093C600D2016D917C916115710501
:1042D00019F460E070E002C06C5F7F4FC101A4017F
:1042E00021E00E94E9AB882371F5E5E6F2E09491C4
:1042F00008C08091C00085FFFCCF9093C600319626
:1043000094919923B1F7FE01319607C08091C000C6
:1043100085FFFCCF31969093C60090819923B1F729
:10432000E3E6F2E0949108C08091C00085FFFCCFE5
:104330009093C600319694919923B1F78091C00073
:1043400085FFFCCF23C12EE030E02C0F3D1FF20192
:104350003183208365010894C11CD11CC114D10490
:1043600009F085CF0BC040E550E0E40EF51ED50105
:10437000ED92FC92E0EBFFEFEE0EFF1E830101C019
:104380008601F701E25BFF4F2DA5222309F4BFC090
:10439000608171816115710519F460E070E002C0FF
:1043A0006C5F7F4FC70182539E4FA80121E00E949E
:1043B000E9AB882309F47EC04FED51E0E40EF51E11
:1043C000D7014D915D916D917C91ECE9F0E0EE0E9D
:1043D000FF1ED7014D935D936D937C931397E5E892
:1043E000FDEFEE0EFF1EE5E5F2E0949108C080912E
:1043F000C00085FFFCCF9093C6003196949199231D
:10440000B1F7F80107C08091C00085FFFCCF31965D
:104410009093C60090819923B1F7EDE4F2E0949176
:1044200008C08091C00085FFFCCF9093C6003196F4
:1044300094919923B1F788E696E02AE030E00E9453
:10444000272F8091C00085FFFCCF8AE08093C600B3
:1044500023E832E0E20EF31ED7011D921D921D9259
:104460001C921397EDE7FDEFEE0EFF1EEFE3F2E077
:10447000949108C08091C00085FFFCCF9093C60046
:10448000319694919923B1F78091C00085FFFCCFBC
:104490008AE08093C600C70160E070E0A801D1DC2B
:1044A000D70151968C91882309F498C087010F5E3B
:1044B0001F4F94C0EBE2F2E0949108C08091C000DD
:1044C00085FFFCCF9093C600319694919923B1F764
:1044D000F80107C08091C00085FFFCCF3196909312
:1044E000C60090819923B1F7E9E2F2E0949108C007
:1044F0008091C00085FFFCCF9093C60031969491C7
:104500009923B1F78091C00085FFFCCF3FC0608147
:1045100071816115710519F460E070E002C06C5F93
:104520007F4FC70182539E4FA80126E50E94E9AB49
:10453000882381F5E5E1F2E0949108C08091C00004
:1045400085FFFCCF9093C600319694919923B1F7E3
:10455000F80107C08091C00085FFFCCF3196909391
:10456000C60090819923B1F7E3E1F2E0949108C08D
:104570008091C00085FFFCCF9093C6003196949146
:104580009923B1F78091C00085FFFCCF8AE080932A
:10459000C60027C081E0F7018083E1E0F2E094915A
:1045A00008C08091C00085FFFCCF9093C600319673
:1045B00094919923B1F7F30107C08091C00085FF62
:1045C000FCCF31969093C60090819923B1F78091EA
:1045D000C00085FFFCCF8AE08093C600C8010E941E
:1045E00038E5CE010E960E944B17AD960FB6F894A3
:1045F000DEBF0FBECDBFCF91DF911F910F91FF9016
:10460000EF90DF90CF90BF90AF909F908F907F9072
:104610006F905F904F903F902F900895EF92FF9290
:104620000F931F93CF93DF93EC010E9408B68E0186
:1046300007511E4FD8018C91BEECEB2EB1E0FB2E42
:10464000EC0EFD1E882399F1C7010E94FDA4F8011C
:104650006081615060838DE8689FB00111246251D0
:104660007E4F6C0F7D1FCE0141E021E04BDCD80175
:10467000EC91F0E0EE0FFF1FEE0FFF1FEC0FFD1FA0
:10468000E651FE4F4081518162817381CD57DD4FEC
:10469000488359836A837B83C358D240C7010E94F1
:1046A000E6A38B81882389F181E08A832EC00E9452
:1046B000E6B5C7010E94FDA41A8283E591E00E943D
:1046C00020728091840B882301F11092840B8091D9
:1046D0002D09C82FD0E0CC0FDD1FC55CDC4E6881F2
:1046E0007981882777FD8095982F0F94590D209117
:1046F000B9043091BA044091BB045091BC040F94AA
:10470000C50E181614F419821882DF91CF911F91EB
:104710000F91FF90EF900895FC0181E08183CF011C
:1047200040E021E0EFCBEF92FF920F931F93DF93D6
:10473000CF93CDB7DEB76F970FB6F894DEBF0FBE3D
:10474000CDBF7C0188E892E0E80EF91EF7011182E6
:10475000108288E79DEFE80EF91E87010D5C1F4F60
:10476000C80140E050E060E070E00E94E6A3DE0196
:104770001596F8018BE101900D928150E1F7F70158
:1047800081A992A99C838B838FE695E09A83898384
:10479000C70165E172E08E010F5F1F4FA80120E0A5
:1047A00030E005D9C8010E944B176F960FB6F894F8
:1047B000DEBF0FBECDBFCF91DF911F910F91FF9054
:1047C000EF9008950F931F93CF93DF93DC01D3965F
:1047D0001C92D397D6961C92D697D2961C921E9274
:1047E000D1978FE695E0D0969C938E939F97AC5A85
:1047F000BF4F1C9213961C92A755B040FD01E05B81
:10480000FF4FAE5ABF4F11961C921E92A255B04058
:1048100091838083ED01C159DF4FFE0120E030E03C
:10482000482F148217821382128240839183215E63
:104830003F4F7F9681E02633380799F7A855BE4F42
:1048400089E18C9313961C9258961C921B961C928D
:1048500013961C92A15DB140FD01E653FE4FA45397
:10486000BE4F11961C921E9240839183A155BF4F5B
:104870001D921D921D921C92139718961D921D92C7
:104880001D921C921397A358B24012961C92129735
:1048900013961C9213971C9211961C9211978D01DE
:1048A00001581D4FF8011082118212821382AB55FC
:1048B000BE4F11961C921E92AC5BBF4F1C92FE0124
:1048C000C90111920197E9F7A256BF4F81E08C937D
:1048D000A758B2409E961C921E929D970F94750306
:1048E00068577C4E8F4F9F4FF8016083718382839E
:1048F0009383DF91CF911F910F910895DF93CF9311
:10490000CDB7DEB72A970FB6F894DEBF0FBECDBF86
:104910008091160290911702A0911802B09119028D
:104920008B839C83AD83BE83FE01339624E630E007
:104930008081F999FECF1FBA32BD21BD80BD0FB66F
:10494000F894FA9AF99A0FBE2F5F3F4F2836310537
:1049500011F03196EDCFE8E2FBE08081F999FECFCE
:104960001FBA32BD21BD80BD0FB6F894FA9AF99AEC
:104970000FBE2F5F3F4F2837310511F03196EDCF35
:10498000E8E1FBE08081F999FECF1FBA32BD21BD7D
:1049900080BD0FB6F894FA9AF99A0FBE2F5F3F4F79
:1049A0002838310511F03196EDCFE8E3FBE0808146
:1049B000F999FECF1FBA32BD21BD80BD0FB6F89464
:1049C000FA9AF99A0FBE2F5F3F4F2839310511F03F
:1049D0003196EDCFECE4FBE08081F999FECF1FBA70
:1049E00032BD21BD80BD0FB6F894FA9AF99A0FBE78
:1049F0002F5F3F4F2C39310511F03196EDCFE0E5B7
:104A0000FBE08081F999FECF1FBA32BD21BD80BD88
:104A10000FB6F894FA9AF99A0FBE2F5F3F4F203ADB
:104A2000310511F03196EDCFE8E4FBE08081F99992
:104A3000FECF1FBA32BD21BD80BD0FB6F894FA9AE1
:104A4000F99A0FBE2F5F3F4F243A310511F031968E
:104A5000EDCFE0E6FBE08081F999FECF1FBA32BDD1
:104A600021BD80BD0FB6F894FA9AF99A0FBE2F5F58
:104A70003F4F283A310511F03196EDCFE4E1FBE0EC
:104A80008081F999FECF1FBA32BD21BD80BD0FB61E
:104A9000F894FA9AF99A0FBE2F5F3F4F2C3A3105DE
:104AA00011F03196EDCFE4E5FBE08081F999FECF7E
:104AB0001FBA32BD21BD80BD0FB6F894FA9AF99A9B
:104AC0000FBE2F5F3F4F203B310511F03196EDCFE8
:104AD000E8E5FBE08081F999FECF1FBA32BD21BD28
:104AE00080BD0FB6F894FA9AF99A0FBE2F5F3F4F28
:104AF000243B310511F03196EDCFECE5FBE08081F0
:104B0000F999FECF1FBA32BD21BD80BD0FB6F89412
:104B1000FA9AF99A0FBE2F5F3F4F283B310511F0EB
:104B20003196EDCFEEE0F9E08081F999FECF1FBA22
:104B300032BD21BD80BD0FB6F894FA9AF99A0FBE26
:104B40002F5F3F4F243C310511F03196EDCFECEA59
:104B5000F3E18081F999FECF1FBA32BD21BD80BD3E
:104B60000FB6F894FA9AF99A0FBE2F5F3F4F263C82
:104B7000310511F03196EDCFEEEAF3E18081F9993C
:104B8000FECF1FBA32BD21BD80BD0FB6F894FA9A90
:104B9000F99A0FBE2F5F3F4F283C310511F0319637
:104BA000EDCFE0EBF3E18081F999FECF1FBA32BD82
:104BB00021BD80BD0FB6F894FA9AF99A0FBE2F5F07
:104BC0003F4F2A3C310511F03196EDCFE2EBF3E196
:104BD0008081F999FECF1FBA32BD21BD80BD0FB6CD
:104BE000F894FA9AF99A0FBE2F5F3F4F2C3C31058B
:104BF00011F03196EDCFE4EBF3E18081F999FECF2E
:104C00001FBA32BD21BD80BD0FB6F894FA9AF99A49
:104C10000FBE2F5F3F4F2E3C310511F03196EDCF87
:104C2000E6EBF3E18081F999FECF1FBA32BD21BDD9
:104C300080BD0FB6F894FA9AF99A0FBE2F5F3F4FD6
:104C4000203D310511F03196EDCFE9E2F9E08081A8
:104C5000F999FECF1FBA32BD21BD80BD0FB6F894C1
:104C6000FA9AF99A0FBE2F5F3F4F243D310511F09C
:104C70003196EDCFEAECF4E08081F999FECF1FBACE
:104C800032BD21BD80BD0FB6F894FA9AF99A0FBED5
:104C90002F5F3F4F283D310511F03196EDCFEEECFF
:104CA000F4E08081F999FECF1FBA32BD21BD80BDED
:104CB0000FB6F894FA9AF99A0FBE2F5F3F4F2C3D2A
:104CC000310511F03196EDCFE2EDF4E08081F999F4
:104CD000FECF1FBA32BD21BD80BD0FB6F894FA9A3F
:104CE000F99A0FBE2F5F3F4F203E310511F03196EC
:104CF000EDCF80E290E09A838983FE013196808136
:104D0000F999FECF1FBA32BD21BD80BD0FB6F89410
:104D1000FA9AF99A0FBE213E310521F0319621EE23
:104D200030E0EDCF2091FD08F999FECF1FBA82EE59
:104D300090E092BD81BD20BD0FB6F894FA9AF99A21
:104D40000FBEE4E6F4E083EE90E02081F999FECF17
:104D50001FBA92BD81BD20BD0FB6F894FA9AF99A98
:104D60000FBE863E910519F001963196EECF8091E7
:104D70001A0290911B02A0911C02B0911D028F8318
:104D80009887A987BA87FE01379684E690E020814C
:104D9000F999FECF1FBA92BD81BD20BD0FB6F89420
:104DA000FA9AF99A0FBE8736910519F00196319655
:104DB000EECFEEE5F5E0949108C08091C00085FF4C
:104DC000FCCF9093C600319694919923B1F7E7E414
:104DD000F5E0949108C08091C00085FFFCCF9093CE
:104DE000C600319694919923B1F78091C00085FF58
:104DF000FCCF8AE08093C6002A960FB6F894DEBFF7
:104E00000FBECDBFCF91DF910895DF93CF93CDB784
:104E1000DEB7E0970FB6F894DEBF0FBECDBFDE0160
:104E20001196EFE1F5E080E101900D928150E1F7FC
:104E3000DE015196EFE0F5E080E101900D928150A6
:104E4000E1F7DE019196EFEFF4E080E101900D9241
:104E50008150E1F789819A81AB81BC818093280BD5
:104E60009093290BA0932A0BB0932B0B89899A89D5
:104E7000AB89BC898093180B9093190BA0931A0BE4
:104E8000B0931B0B89A19AA1ABA1BCA18093380B55
:104E90009093390BA0933A0BB0933B0B8D819E817D
:104EA000AF81B88580932C0B90932D0BA0932E0B84
:104EB000B0932F0B8D899E89AF89B88D80931C0B81
:104EC00090931D0BA0931E0BB0931F0B8DA19EA161
:104ED000AFA1B8A580933C0B90933D0BA0933E0BE4
:104EE000B0933F0B89859A85AB85BC858093300B49
:104EF0009093310BA093320BB093330B898D9A8D25
:104F0000AB8DBC8D8093200B9093210BA093220B33
:104F1000B093230B89A59AA5ABA5BCA58093400BA4
:104F20009093410BA093420BB093430B8D859E85CC
:104F3000AF85B8898093340B9093350BA093360BD3
:104F4000B093370B8D8D9E8DAF8DB8A18093240BC0
:104F50009093250BA093260BB093270B8DA59EA5B0
:104F6000AFA5B8A98093440B9093450BA093460B33
:104F7000B093470B0E94797A80E090E0AAEFB4E406
:104F800080934C0B90934D0BA0934E0BB0934F0B13
:104F900080E090E0AAE7B4E48093500B9093510B2B
:104FA000A093520BB093530B20E030E040E050E070
:104FB0002093480B3093490B40934A0B50934B0B73
:104FC00080E29EE4A0E0B0E08093140B9093150B78
:104FD000A093160BB093170B2093600B3093610BCB
:104FE0004093620B5093630B80E090E0A0EAB1E441
:104FF0008093540B9093550BA093560BB093570B83
:105000008DEC9CECACECBEE38093580B9093590B69
:10501000A0935A0BB0935B0B80E090E0A0EAB0E461
:1050200080935C0B90935D0BA0935E0BB0935F0B32
:1050300020931609309317094093180950931909C2
:1050400020931209309313094093140950931509C2
:1050500020930E0930930F094093100950931109C2
:1050600084EB90E09093AD138093AC1386E490E0D2
:105070009093AF138093AE132FEF30E03093B113C2
:105080002093B01380EF90E09093B3138093B2130A
:1050900084E690E09093B5138093B4133093B713E4
:1050A0002093B61380E090E0A0E0B0E4809329095B
:1050B00090932A09A0932B09B0932C098AE999E9C6
:1050C000A1EBB1E48093CA049093CB04A093CC04E9
:1050D000B093CD0461E77DE38AE89FE30E942CBE94
:1050E0006093CE047093CF048093D0049093D10446
:1050F00060E070E084EE92E40E9438BE6093D204D7
:105100007093D3048093D4049093D5040E9444BD3B
:1051100080E090E0A0E8BFE38093D6049093D704AA
:10512000A093D804B093D9041092FD0880E090E0D9
:10513000A0E4B0E48093640490936504A0936604B3
:10514000B09367040E94A431EEE5F5E0949108C0A5
:105150008091C00085FFFCCF9093C600319694915A
:105160009923B1F7E3E4F3E0949108C08091C00083
:1051700085FFFCCF9093C600319694919923B1F7A7
:105180008091C00085FFFCCF8AE08093C600E09646
:105190000FB6F894DEBF0FBECDBFCF91DF9108955B
:1051A0000F931F93DF93CF93CDB7DEB72A970FB638
:1051B000F894DEBF0FBECDBF80911A0290911B0202
:1051C000A0911C02B0911D028F839887A987BA878E
:1051D000FE01339604E610E0F999FECF12BD01BD41
:1051E000F89A80B580830F5F1F4F0836110511F0C4
:1051F0003196F2CFCE010796BE016D5F7F4F43E03F
:1052000050E00E944A14009709F0B5C1E8E2FBE0C3
:10521000F999FECF12BD01BDF89A80B580830F5F6A
:105220001F4F0837110511F03196F2CFE8E1FBE08E
:10523000F999FECF12BD01BDF89A80B580830F5F4A
:105240001F4F0838110511F03196F2CFE8E3FBE06B
:10525000F999FECF12BD01BDF89A80B580830F5F2A
:105260001F4F0839110511F03196F2CF0E94797A5B
:10527000ECE4FBE0F999FECF12BD01BDF89A80B5D0
:1052800080830F5F1F4F0C39110511F03196F2CF5B
:10529000E0E5FBE0F999FECF12BD01BDF89A80B5BB
:1052A00080830F5F1F4F003A110511F03196F2CF46
:1052B000E8E4FBE0F999FECF12BD01BDF89A80B594
:1052C00080830F5F1F4F043A110511F03196F2CF22
:1052D000E0E6FBE0F999FECF12BD01BDF89A80B57A
:1052E00080830F5F1F4F083A110511F03196F2CFFE
:1052F000E4E1FBE0F999FECF12BD01BDF89A80B55B
:1053000080830F5F1F4F0C3A110511F03196F2CFD9
:10531000E4E5FBE0F999FECF12BD01BDF89A80B536
:1053200080830F5F1F4F003B110511F03196F2CFC4
:10533000E8E5FBE0F999FECF12BD01BDF89A80B512
:1053400080830F5F1F4F043B110511F03196F2CFA0
:10535000ECE5FBE0F999FECF12BD01BDF89A80B5EE
:1053600080830F5F1F4F083B110511F03196F2CF7C
:10537000EEE0F9E0F999FECF12BD01BDF89A80B5D3
:1053800080830F5F1F4F043C110511F03196F2CF5F
:10539000ECEAF3E1F999FECF12BD01BDF89A80B5B0
:1053A00080830F5F1F4F063C110511F03196F2CF3D
:1053B000EEEAF3E1F999FECF12BD01BDF89A80B58E
:1053C00080830F5F1F4F083C110511F03196F2CF1B
:1053D000E0EBF3E1F999FECF12BD01BDF89A80B57B
:1053E00080830F5F1F4F0A3C110511F03196F2CFF9
:1053F000E2EBF3E1F999FECF12BD01BDF89A80B559
:1054000080830F5F1F4F0C3C110511F03196F2CFD6
:10541000E4EBF3E1F999FECF12BD01BDF89A80B536
:1054200080830F5F1F4F0E3C110511F03196F2CFB4
:10543000E6EBF3E1F999FECF12BD01BDF89A80B514
:1054400080830F5F1F4F003D110511F03196F2CFA1
:10545000E9E2F9E0F999FECF12BD01BDF89A80B5F5
:1054600080830F5F1F4F043D110511F03196F2CF7D
:10547000EAECF4E0F999FECF12BD01BDF89A80B5CF
:1054800080830F5F1F4F083D110511F03196F2CF59
:10549000EEECF4E0F999FECF12BD01BDF89A80B5AB
:1054A00080830F5F1F4F0C3D110511F03196F2CF35
:1054B000E2EDF4E0F999FECF12BD01BDF89A80B596
:1054C00080830F5F1F4F003E110511F03196F2CF20
:1054D000FE013196F999FECF12BD01BDF89A80B553
:1054E0008083013E110521F0319601EE10E0F2CFEC
:1054F000F999FECF82EE90E092BD81BDF89A80B519
:105500008093FD08E4E6F4E023EE30E0F999FECF65
:1055100032BD21BDF89A80B58083263E310521F049
:105520002F5F3F4F3196F2CF0FD70E9444BDEEE57B
:10553000F5E0949108C08091C00085FFFCCF909366
:10554000C600319694919923B1F7E5E6F3E0949182
:1055500008C08091C00085FFFCCF9093C6003196B3
:1055600094919923B1F78091C00085FFFCCF8AE028
:105570008093C60001C049DC2A960FB6F894DEBFBE
:105580000FBECDBFCF91DF911F910F910895CF93A3
:10559000DF93CEE5D5E0FE01949108C08091C00074
:1055A00085FFFCCF9093C600319694919923B1F773
:1055B000E7E3F5E0949108C08091C00085FFFCCF3F
:1055C0009093C600319694919923B1F78091C000D1
:1055D00085FFFCCF8AE08093C600FE019491EEE542
:1055E000F5E008C08091C00085FFFCCF9093C60015
:1055F000319694919923B1F74091280B5091290B42
:1056000060912A0B70912B0B8FE295E00E94AE35D2
:1056100040912C0B50912D0B60912E0B70912F0B04
:105620008CE295E00E94AE354091300B5091310BE9
:105630006091320B7091330B89E295E00E94AE3598
:105640004091340B5091350B6091360B7091370BB4
:1056500086E295E00E94AE35EEE1F2E007C080916F
:10566000C00085FFFCCF31969093C60090819923AE
:10567000B1F78091C00085FFFCCF8AE08093C6001F
:10568000FE019491EEE5F5E008C08091C00085FF31
:10569000FCCF9093C600319694919923B1F7ECE03A
:1056A000F5E0949108C08091C00085FFFCCF9093F5
:1056B000C600319694919923B1F78091C00085FF7F
:1056C000FCCF8AE08093C600FE019491EEE5F5E000
:1056D00008C08091C00085FFFCCF9093C600319632
:1056E00094919923B1F74091180B5091190B609147
:1056F0001A0B70911B0B83E095E00E94AE35409130
:105700001C0B50911D0B60911E0B70911F0B80E0C4
:1057100095E00E94AE354091200B5091210B609195
:10572000220B7091230B8DEF94E00E94AE354091D7
:10573000240B5091250B6091260B7091270B8AEF5B
:1057400094E00E94AE35EEE1F2E007C08091C00027
:1057500085FFFCCF31969093C60090819923B1F7D5
:105760008091C00085FFFCCF8AE08093C600FE01D7
:105770009491EEE5F5E008C08091C00085FFFCCF74
:105780009093C600319694919923B1F7ECEDF4E033
:10579000949108C08091C00085FFFCCF9093C60013
:1057A000319694919923B1F78091C00085FFFCCF89
:1057B0008AE08093C600FE019491EEE5F5E008C012
:1057C0008091C00085FFFCCF9093C60031969491E4
:1057D0009923B1F74091380B5091390B60913A0BF6
:1057E00070913B0B83ED94E00E94533740913C0B4A
:1057F00050913D0B60913E0B70913F0B80ED94E01A
:105800000E9453374091400B5091410B6091420BE5
:105810007091430B8DEC94E00E9453374091440B00
:105820005091450B6091460B7091470B8AEC94E0C8
:105830000E945337EEE1F2E007C08091C00085FF7F
:10584000FCCF31969093C60090819923B1F7809157
:10585000C00085FFFCCF8AE08093C600FE019491D2
:10586000EEE5F5E008C08091C00085FFFCCF909385
:10587000C600319694919923B1F7E5E9F4E094914B
:1058800008C08091C00085FFFCCF9093C600319680
:1058900094919923B1F78091C00085FFFCCF8AE0F5
:1058A0008093C600FE019491EEE5F5E008C080917A
:1058B000C00085FFFCCF9093C60031969491992348
:1058C000B1F740914C0B50914D0B60914E0B709184
:1058D0004F0B8CE894E00E94AE354091500B5091F4
:1058E000510B6091520B7091530B89E894E00E9428
:1058F000AE35EEE1F2E007C08091C00085FFFCCF3D
:1059000031969093C60090819923B1F78091C000A1
:1059100085FFFCCF8AE08093C600FE019491EEE5FE
:10592000F5E008C08091C00085FFFCCF9093C600D1
:10593000319694919923B1F7E6EDF3E0949108C084
:105940008091C00085FFFCCF9093C6003196949162
:105950009923B1F78091C00085FFFCCF8AE0809346
:10596000C600FE019491EEE5F5E008C08091C0000C
:1059700085FFFCCF9093C600319694919923B1F79F
:105980004091480B5091490B60914A0B70914B0B21
:105990008DEC93E00E94AE354091600B5091610B0D
:1059A0006091620B7091630B8AEC93E00E94AE35BC
:1059B0004091140B5091150B6091160B7091170BC1
:1059C00087EC93E00E9453374091540B5091550B54
:1059D0006091560B7091570B84EC93E00E94AE35AA
:1059E0004091580B5091590B60915A0B70915B0B81
:1059F00081EC93E00E94AE3540915C0B50915D0BC1
:105A000060915E0B70915F0B8EEB93E00E94AE3560
:105A1000EEE1F2E007C08091C00085FFFCCF319637
:105A20009093C60090819923B1F78091C00085FFC3
:105A3000FCCF8AE08093C600FE019491EEE5F5E08C
:105A400008C08091C00085FFFCCF9093C6003196BE
:105A500094919923B1F7ECEAF3E0949108C0809116
:105A6000C00085FFFCCF9093C60031969491992396
:105A7000B1F78091C00085FFFCCF8AE08093C6001B
:105A8000FE019491EEE5F5E008C08091C00085FF2D
:105A9000FCCF9093C600319694919923B1F7409131
:105AA0000E0950910F09609110097091110983EA54
:105AB00093E00E94AE354091120950911309609114
:105AC00014097091150980EA93E00E94AE35409167
:105AD00016095091170960911809709119098DE9FB
