:100000000C94E30F0C9410100C9410100C9410101E
:100010000C9410100C9410100C9410100C941010E0
:100020000C9410100C9410100C9410100C941010D0
:100030000C9410100C940CD60C9410100C941010FE
:100040000C9410100C94728A0C9410100C941010D4
:100050000C9410100C9410100C9449930C9457D2DB
:100060000C9410100C94D32C0C9410100C941010B1
:100070000C9410100C9410100C9410100C94101080
:100080000C9411890C9410100C9410100C941010F6
:100090000C9410100C9410100C9410100C94A9CD0A
:1000A0000C9410100C9410100C94E4880C94101004
:1000B0000C9410100C9410100C9410100C94B78821
:1000C0000C9410100C9410100C9410100C94101030
:1000D0000C9410100C9410100C9410100C94101020
:1000E0000C94101088B991B99AB9A3B9ACB9B5B943
:1000F000BEB9C7B9DAB9EDB914BA41BA54BA67BAD8
:100100007ABAA3BAB6BAE7BA084AD73B3BCE016E71
:1001100084BCBFFDC12F3D6C74319ABD56833DDA5E
:100120003D00C77F11BED9E4BB4C3E916BAAAABE6D
:10013000000000803F05A84CCDB2D44EB93836A996
:10014000020C50B9918688083CA6AAAA2ABE0000D3
:1001500000803F4D383420582059205A2045004314
:10016000616E6E6F7420656E746572207375626463
:1001700069723A20004D3234004D3233202573002D
:100180006175746F25692E67006572726F722077D2
:10019000726974696E6720746F2066696C65004EC1
:1001A0006F74205344207072696E74696E67002FFB
:1001B000005344207072696E74696E6720627974AE
:1001C0006520002E0044656C6574696F6E20666161
:1001D000696C65642C2046696C653A200046696C40
:1001E000652064656C657465643A002E006F706507
:1001F0006E206661696C65642C2046696C653A20E6
:100200000057726974696E6720746F2066696C6547
:100210003A20002E006F70656E206661696C65641F
:100220002C2046696C653A20002E006F70656E20A8
:100230006661696C65642C2046696C653A200046ED
:10024000696C652073656C6563746564002053692F
:100250007A653A200046696C65206F70656E65644A
:100260003A20002E006F70656E206661696C6564CF
:100270002C2046696C653A20004E6F7720667265C7
:1002800073682066696C653A20004E6F7720646F52
:10029000696E672066696C653A20002220706F7372
:1002A000002220706172656E743A220053554252EA
:1002B0004F5554494E452043414C4C207461726760
:1002C00065743A2200747279696E6720746F2063D6
:1002D000616C6C207375622D67636F64652066695D
:1002E0006C6573207769746820746F6F206D616E20
:1002F00079206C6576656C732E204D4158206C65B5
:1003000076656C2069733A005344206361726420FF
:100310006F6B006F70656E526F6F74206661696CF1
:10032000656400766F6C756D652E696E6974206604
:1003300061696C656400534420696E69742066616C
:10034000696C0048617264636F646564204465662B
:1003500061756C742053657474696E6773204C6F9B
:10036000616465640053746F7265642073657474AE
:10037000696E6773207265747269657665640020C2
:1003800044002049002020204D33303120500050BF
:1003900049442073657474696E67733A00205A008B
:1003A00020590020204D323036205800486F6D65AE
:1003B000206F666673657420286D6D293A002045AC
:1003C00000205A0020580020420020540020204DD8
:1003D000323035205300416476616E636564207667
:1003E00061726961626C65733A20533D4D696E209C
:1003F000666565647261746520286D6D2F73292CA4
:1004000020543D4D696E2074726176656C2066657E
:1004100065647261746520286D6D2F73292C2042EC
:100420003D6D696E696D756D207365676D656E7480
:100430002074696D6520286D73292C20583D6D61ED
:1004400078696D756D205859206A65726B20286D2A
:100450006D2F73292C20205A3D6D6178696D756D63
:10046000205A206A65726B20286D6D2F73292C200D
:1004700020453D6D6178696D756D2045206A657216
:100480006B20286D6D2F73290020540020204D32E1
:100490003034205300416363656C65726174696F29
:1004A0006E3A20533D616363656C65726174696F78
:1004B0006E2C20543D7265747261637420616363B5
:1004C000656C65726174696F6E00204500205A008A
:1004D00020590020204D3230312058004D6178697C
:1004E0006D756D20416363656C65726174696F6ED3
:1004F00020286D6D2F7332293A00204500205A00C4
:1005000020590020204D3230332058004D61786949
:100510006D756D2066656564726174657320286D04
:100520006D2F73293A00204500205A0020590020E1
:10053000204D3932205800537465707320706572F5
:1005400020756E69743A0053657474696E67732020
:1005500053746F726564004572726F723A0065631E
:10056000686F3A0053544F505045442E200050724B
:10057000696E7465722073746F7070656420647541
:100580006520746F206572726F72732E20466978D1
:1005900020746865206572726F7220616E642075C8
:1005A0007365204D39393920746F20726573746119
:1005B00072742E202854656D706572617475726551
:1005C0002069732072657365742E205365742069E9
:1005D00074206166746572207265737461727469E7
:1005E0006E6729004B494C4C45442E2000507269DF
:1005F0006E7465722068616C7465642E206B696C22
:100600006C28292063616C6C656421006F6B00525B
:100610006573656E643A20002200556E6B6E6F77CD
:100620006E20636F6D6D616E643A202200507269B6
:100630006E74696E672E2E2E005A204F66667365A3
:1006400074203A20007A5F6D61783A20007A5F6DFD
:10065000696E3A20005A204F6666736574005A200E
:100660004F6666736574206F6B007A5F6D696E3AD2
:100670002000795F6D696E3A2000785F6D696E3A8F
:100680002000205A3A0020593A0020436F756E74BA
:1006900020583A200020453A00205A3A0020593A82
:1006A00000583A004649524D574152455F4E414D20
:1006B000453A4D61726C696E20312E302E322B20FE
:1006C000446576656C6F706D656E742046726F6DF3
:1006D000204172636869766520534F555243455FE8
:1006E000434F44455F55524C3A687474703A2F2F0B
:1006F0007777772E626C6F636B737465632E636FAD
:100700006D2050524F544F434F4C5F564552534902
:100710004F4E3A312E30204D414348494E455F54AB
:100720005950453A426C6F636B73206F6E6520457C
:10073000585452554445525F434F554E543A312018
:10074000555549443A30303030303030302D30302B
:1007500030302D303030302D303030302D303030A2
:100760003030303030303030300A00426C6F636BE4
:1007700073206F6E65204F66662E00426C6F636B50
:1007800073206F6E652072656164792E0042656426
:1007900020646F6E652E0020423A0020453A0054D6
:1007A0003A004265642048656174696E672E0048AE
:1007B000656174696E6720646F6E652E0020573A1C
:1007C0000020453A00543A0048656174696E672E0E
:1007D0002E2E002042403A0020403A00202F003ABE
:1007E00000205400202F0020423A00202F006F6B81
:1007F00020543A002569206D696E2C2025692073EC
:100800006563005072696E74696E672E2E2E0050FB
:100810007265737320746F20726573756D65004522
:100820006E642066696C65206C697374004265674C
:10083000696E2066696C65206C697374004E6F2068
:100840006D6F76652E00426C6F636B73206F6E6503
:100850002072656164792E00526573756D696E67EB
:10086000207072696E74005761697420666F72201F
:10087000757365722E2E2E00536C6565702E2E2EAC
:1008800000FFFFFF000048430000484300004843CA
:100890000000A0400000A040000040400000000018
:1008A0000000000000000000000000000000000048
:1008B0000000000000004843000048430000484397
:1008C000256920686F757273202569206D696E75C2
:1008D00074657300446F6E65207072696E74696E22
:1008E000672066696C650053544F505045442E2074
:1008F000005072696E7465722073746F70706564F5
:100900002064756520746F206572726F72732E207B
:1009100046697820746865206572726F7220616E16
:100920006420757365204D39393920746F207265E4
:1009300073746172742E202854656D7065726174D1
:100940007572652069732072657365742E20536516
:1009500074206974206166746572207265737461B5
:100960007274696E6729004E6F204C696E65204E67
:10097000756D626572207769746820636865636B62
:1009800073756D2C204C617374204C696E653A2030
:10099000004E6F20436865636B73756D20776974D3
:1009A00068206C696E65206E756D6265722C204CD6
:1009B000617374204C696E653A2000636865636BEF
:1009C00073756D206D69736D617463682C204C6163
:1009D0007374204C696E653A20004C696E65204E38
:1009E000756D626572206973206E6F74204C61733F
:1009F00074204C696E65204E756D6265722B312CCA
:100A0000204C617374204C696E653A20004D313181
:100A10003000446F6E6520736176696E6720666989
:100A20006C652E006F6B004D3239004D3630300052
:100A30004D3235002020506C616E6E6572427566D5
:100A400066657242797465733A2000204672656566
:100A5000204D656D6F72793A20004D6179203131FA
:100A6000203230313700436F6D70696C65643A2015
:100A70000028426C6F636B732C206F6E6520312EE3
:100A8000322E312900207C20417574686F723A2023
:100A9000004D617920313120323031372031323A06
:100AA00031313A343600204C6173742055706461E2
:100AB0007465643A200020312E302E322B004D61B7
:100AC000726C696E0020536F667477617265205294
:100AD0006573657400205761746368646F672052A2
:100AE00065736574002042726F776E206F75742095
:100AF0005265736574002045787465726E616C2070
:100B0000526573657400506F776572557000737429
:100B1000617274002200656E717565696E672022CE
:100B2000002200656E717565696E67202200206382
:100B30006F6C6420657874727573696F6E20707263
:100B40006576656E746564007C3C3E5E2B3D3F2F90
:100B50005B5D3B2C2A225C0045303A20005A3A204B
:100B600000593A2000583A20004D53312C4D533251
:100B70002050696E730A0024F404D9201BC40C5C55
:100B80000E9804C4095F0265077101F405F900FBC2
:100B900004B30048048700C10369005803550003EB
:100BA000034500BE023A008402310053022A0029A4
:100BB00002250004022000E4011C00C8011900AF56
:100BC00001170098011400840113007101100061E5
:100BD00001100051010E0043010D0036010B002BE6
:100BE000010B0020010B00150109000C0109000395
:100BF000010800FB000800F3000800EB000700E418
:100C0000000600DE000600D8000600D2000600CC78
:100C1000000500C7000500C2000500BD000400B9C2
:100C2000000400B5000400B1000400AD000400A9F8
:100C3000000400A5000300A20003009F0004009B25
:100C40000003009800030095000200930003009049
:100C50000003008D0002008B000300880002008664
:100C600000020084000300810002007F0002007D7A
:100C70000002007B0002007900020077000100768C
:100C80000002007400020072000100710002006F97
:100C90000002006D0001006C0002006A00010069A2
:100CA00000020067000100660001006500010064A9
:100CB0000002006200010061000100600001005FAD
:100CC0000002005D0001005C0001005B0001005AB1
:100CD00000010059000100580001005700010056B2
:100CE00000010055000100540001005300000053B2
:100CF0000001005200010051000100500001004FAE
:100D00000001004E0000004E0001004D0001004CAB
:100D10000001004B0000004B0001004A00010049A7
:100D200000010048000000480001004700010046A3
:100D3000000000460001004500000045000100449D
:100D40000001004300000043000100420000004297
:100D50000001004100000041000100400001003F8F
:100D60000000003F0001003E0000003E0001003D89
:100D70000000003D0001003C0000003C0000003C81
:100D80000001003B0000003B0001003A0000003A77
:100D9000000100390000003900010038000000386F
:100DA0000000003800010037000000370001003665
:100DB000000000360000003600010035000000355C
:100DC0000000003500010034000000340000003451
:100DD0000001003300000033000000330001003246
:100DE000000000320000003200010031000000313C
:100DF0000000003100010030000000300000003031
:100E00000001002F0000002F0000002F0000002F25
:100E10000001002E0000002E0000002E0001002D19
:100E20000000002D0000002D0000002D0001002C0E
:100E30000000002C0000002C0000002C0001002B02
:100E40000000002B0000002B0000002B0001002AF6
:100E50000000002A0000002A0000002A00010029EA
:100E600000000029000000290000002900000029DE
:100E700000010028000000280000002800000028D1
:100E800000000028000100270000002700000027C4
:100E900000000027000000270001002600000026B7
:100EA00000000026000000260000002600010025AA
:100EB000000000250000002500000025000000259E
:100EC0000000002500010024000000240000002490
:100ED0000000002400000024000100230000002383
:100EE0000000002300000023000000230000002376
:100EF0000000002300010022000000220000002268
:100F00000000002200000022000000220001002159
:100F1000000000210000002100000021000000214D
:100F2000000000210000002100010020000000203E
:100F30000000002000000020000000200000002031
:100F400000000020000000200001001F0000001F22
:100F50000000001F0000001F0000001F0000001F15
:100F60000000001F0001001E0000001E0000001E07
:100F70000000001E00000024F4D43050C38E20C2B4
:100F8000A24017828B7011127A910D816CD90AA838
:100F900061E108C7586607615143061E4B5D05C1F4
:100FA00045A7041A411104093D98037139310340E2
:100FB00036DB0265339102D4305402802E1D026369
:100FC0002CEE01752AC501B028A001102781018FE0
:100FD0002564012B244B01E0223401AC211F018D3B
:100FE000200D01801FFC00841EED00971DDF00B85E
:100FF0001CD200E61BC600201BBC00641AB200B263
:1010000019A8000A19A0006A189900D11791004088
:10101000178B00B516840031167E00B31579003A9F
:10102000157300C7146F0058146A00EE1366008829
:1010300013630025135E00C7125B006C1257001586
:10104000125400C111510070114F0021114B00D6F4
:101050001049008D1047004610440002104200C0A5
:101060000F4000800F3E00420F3C00060F3B00CBBC
:101070000E3800930E37005C0E3500270E3400F357
:101080000D3200C10D3100900D3000600D2E003288
:101090000D2D00050D2C00D90C2B00AE0C29008560
:1010A0000C29005C0C2700350C27000E0C2600E8EC
:1010B0000B2400C40B2400A00B23007D0B23005A3B
:1010C0000B2100390B2100180B2000F80A1F00D952
:1010D0000A1E00BB0A1E009D0A1D00800A1D006337
:1010E0000A1C00470A1B002C0A1B00110A1A00F7F1
:1010F000091A00DD091900C4091900AB0919009289
:101100000917007B091800630917004C09160036FF
:10111000091600200916000A091500F5081500E057
:10112000081400CC081400B8081400A40814009097
:101130000813007D0812006B0813005808120046BF
:1011400008120034081100230811001208110001D0
:10115000081100F0071000E0071000D0071000C0D1
:10116000071000B0070F00A107100091070E0083C1
:10117000070F0074070F0065070E0057070E0049A0
:10118000070E003B070D002E070E0020070D001371
:10119000070D0006070D00F9060C00ED060D00E036
:1011A000060C00D4060C00C8060C00BC060C00B0EF
:1011B000060C00A4060B0099060C008D060B00829D
:1011C000060B0077060B006C060B0061060A005741
:1011D000060B004C060A0042060A0038060A002EDA
:1011E000060A0024060A001A060A0010060900076B
:1011F000060A00FD050900F4050900EB050900E2F7
:10120000050900D9050900D0050900C7050900BE78
:10121000050900B5050800AD050800A50509009CF5
:10122000050800940508008C050800840508007C6A
:10123000050800740508006C050700650508005DD9
:10124000050700560508004E050700470507004042
:1012500005080038050700310507002A05070023A7
:101260000507001C050600160507000F0507000806
:1012700005060002050700FB040600F5040700EE62
:10128000040600E8040600E2040700DB040600D5BB
:10129000040600CF040600C9040600C3040600BD0E
:1012A000040600B7040600B1040500AC040600A65D
:1012B000040600A00405009B0406009504050090A8
:1012C0000406008A04050085040500800406007AEF
:1012D00004050075040500700405006B0405006634
:1012E000040500610405005C040500570405005274
:1012F0000405004D04050048040500430405003EB4
:101300000404003A04050035040500300404002CF0
:1013100004050027040400230405001E0404001A29
:1013200004040016040500110404000D040400095F
:101330000405000404040000040400FC030400F895
:10134000030400F4030400F0030400EC030400E8C9
:10135000030400E4030400E0030400DC030400D8F9
:10136000030400D4030400D0030400CC030400C829
:10137000030300C5030300656E6473746F7073200C
:101380006869743A205A00205A3A00656E64737492
:101390006F7073206869743A20590020593A0065CB
:1013A0006E6473746F7073206869743A20580020FB
:1013B000583A00656E6473746F7073206869743A8C
:1013C00020004572723A204D415854454D502042FC
:1013D00045440054656D706572617475726520686E
:1013E00065617465642062656420737769746368FD
:1013F0006564206F66662E204D415854454D50203F
:101400007472696767657265642021210045727294
:101410003A204D494E54454D50003A20457874725B
:1014200075646572207377697463686564206F669C
:10143000662E204D494E54454D50207472696767A1
:10144000657265642021004572723A204D415854FE
:10145000454D50003A20457874727564657220736A
:1014600077697463686564206F66662E204D415805
:1014700054454D5020747269676765726564202118
:1014800000544845524D414C2052554E4157415908
:101490000062656400546865726D616C2052756EFF
:1014A000617761792C2073797374656D2073746F23
:1014B0007070656421204865617465725F49443AC3
:1014C0002000202D20496E76616C69642065787457
:1014D0007275646572206E756D62657220210010F0
:1014E00000AA03F0013A019002220130031001D05A
:1014F0000302017004F7001005ED00B005E500508F
:1015000006DD00F006D7009007D1003008CC00D0EF
:1015100008C7007009C300100ABE00B00ABB005023
:101520000BB700F00BB300900CB000D00DAA001068
:101530000FA5005010A00090119B00D0129600B093
:1015400014900090168B0070188500501A8000309F
:101550001C7B00B01E750030216F00B02369003085
:1015600026640010285F00902A5A00702C5500F065
:101570002E4F0070314800B0324500F0334100700A
:10158000363900103737005038330090392D00D0ED
:101590003A2700B03C1C00503D1700F03D11009070
:1015A0003E0900D03FE5FF70012C0190012701B0FA
:1015B000012201C0011D01F00118011002130130C8
:1015C000020E016002090190020401C002FF000046
:1015D00003FA004003F5008003F000D003EB002085
:1015E00004E6007004E100E004DC004005D700C020
:1015F00005D2004006CD00D006C8008007C30030E9
:1016000008BE00F008B900C009B400B00AAF00B0CD
:101610000BAA00D00CA500000EA000500F9B00C02C
:101620001096005012910000148C00C0158700B075
:10163000178200B0197D00D01B7800001E73004097
:10164000206E0090226900F024640040275F009023
:10165000295A00E02B5500102E500020304B00106E
:10166000324600E033410090353C001037370070BF
:10167000383200A0392D00B03A2800A03B2300608A
:101680003C1E00103D1900903D1400103E0F0070EC
:101690003E0A00C03E0500003F00004865617469D5
:1016A0006E67206661696C6564005049442041752D
:1016B000746F74756E652066696E69736865642100
:1016C0002050757420746865206C617374204B70B1
:1016D0002C204B6920616E64204B6420636F6E7315
:1016E00074616E74732066726F6D2061626F7665CF
:1016F00020696E746F20436F6E66696775726174DE
:10170000696F6E2E6800504944204175746F74757E
:101710006E65206661696C6564212074696D656F12
:1017200075740020403A006F6B20543A006F6B20B4
:10173000423A00504944204175746F74756E6520BB
:101740006661696C6564212054656D7065726174B1
:1017500075726520746F6F206869676800204B643C
:101760003A2000204B693A2000204B703A2000209C
:10177000436C6173736963205049442000205475A1
:101780003A2000204B753A2000206D61783A200005
:10179000206D696E3A200020643A20002062696161
:1017A000733A20002D2D3A2D2D002D2D2D00534460
:1017B00000012000012000436F6E74726F6C004CBA
:1017C0006576656C20706C6174650046696C616D4E
:1017D000656E7400537065656400466C6F770046F3
:1017E0006C6F770046616E207370656564004661BA
:1017F0006E20737065656400426564004265640034
:101800004E6F7A7A6C65004E6F7A7A6C6500436829
:10181000616E67652066696C616D656E74004E6F00
:101820002053442063617264005072696E742066B4
:10183000726F6D2053440053746F70207072696E24
:101840007400526573756D65207072696E74005016
:1018500061757365207072696E74004261636B001C
:1018600054656D7065726174757265004D38340031
:1018700044697361626C652073746570706572731E
:10188000004D6F76652061786973004732380041FA
:1018900075746F20686F6D65004261636B00436F04
:1018A0006F6C646F776E0046616E2073706565645F
:1018B0000046616E20737065656400426564004295
:1018C0006564004E6F7A7A6C65004E6F7A7A6C654B
:1018D00000436F6E74726F6C004D6F766520302E12
:1018E000316D6D004D6F766520316D6D004D6F76F9
:1018F000652031306D6D0050726570617265004514
:1019000078747275646572004D6F7665205A004D6B
:101910006F76652059004D6F76652058004D6F76C3
:10192000652061786973004578747275646572002A
:101930005A00590058004D6F766520617869730030
:101940004D38300053776974636820706F77657223
:10195000206F6E004D3831005377697463682070D2
:101960006F776572206F666600436F6F6C646F7788
:101970006E00507265686561742041425300507278
:10198000656865617420504C410053657420686F30
:101990006D65206F66667365747300473238004169
:1019A00075746F20686F6D65004D3834004469733D
:1019B00061626C65207374657070657273004D614F
:1019C000696E00507265686561742041425320421F
:1019D000656400507265686561742041425320312E
:1019E000005072657061726500507265686561745F
:1019F00020504C41204265640050726568656174F6
:101A000020504C4120310050726570617265004376
:101A1000616E63656C00596573004E6F00436C65C1
:101A2000616E206E6F7A7A6C653F0077697468200A
:101A3000747765657A6572732E2E00436C65616EEE
:101A4000206E6F7A7A6C6500202020507265737367
:101A500020746F2061626F72740001200054656D04
:101A6000703A0048656174696E67206E6F7A7A6CAF
:101A7000652E2E00202020507265737320746F2015
:101A800061626F72740001200054656D703A004805
:101A9000656174696E67206265642E2E00556E6CF8
:101AA0006F6164004C6F6164004C6F616420284C6E
:101AB0006F616465642129004261636B004D3730BA
:101AC000320001200048656174696E672E2E2E0079
:101AD0004E6F7A7A6C65004E6F7A7A6C650042615F
:101AE000636B004D37303100012000486561746937
:101AF0006E672E2E2E004E6F7A7A6C65004E6F7ACE
:101B00007A6C650041626F727400537065656400A1
:101B100050617573696E672E2E2E00052E2E004DB6
:101B200061696E004D3234004D3233202573004719
:101B300031205A350047323800426C6F636B732096
:101B40006F6E652072656164792E004732382058C7
:101B500020590050617573696E672E2E2E00436107
:101B600072642072656D6F766564004361726420F3
:101B7000696E7365727465640076312E322E3100A1
:101B8000426C6F636B73206F6E6500616E642070D2
:101B90007265737320627574746F6E2E00697320A2
:101BA00070757267656420616E64005761697420A6
:101BB000756E74696C2066696C616D656E74005039
:101BC0007265737320746F207265686561742E008E
:101BD000436F6F6C696E67206E6F7A7A6C652E2E1C
:101BE0000074696D6564206F75742E004368616EC2
:101BF00067652066696C616D656E74007072696EF0
:101C0000742070617573652E2E00576169742066AB
:101C10006F720046696C616D656E7420756E6C6FD5
:101C20006164656421006E6F7A7A6C652068656115
:101C3000742075702E2E005761697420666F7200D3
:101C40006368616E67652066696C616D656E742E90
:101C500000507265737320746F00556E6C6F616411
:101C6000696E672066696C616D656E742E2E00501A
:101C70006C6561736520776169742E0046696C61DB
:101C80006D656E74206C6F616465642100616E64C3
:101C900020707265737320627574746F6E2E0047C6
:101CA00072616220626C6F622028747765657A6564
:101CB000727329006973207075726765642E00570E
:101CC00061697420756E74696C2066696C616D65FC
:101CD0006E74004C6F6164696E672066696C616D3B
:101CE000656E742E2E00506C656173652077616996
:101CF000742E00616E642070726573732062757457
:101D0000746F6E2E00496E73657274206E65772055
:101D100066696C616D656E740020506C617465203D
:101D20006C6576656C656421002020202020497355
:101D3000206974206F6B3F2020202020202020204D
:101D4000507265737320746F20656E640041646A1D
:101D500075737420666F7572746820706F696E7425
:101D600020202026205072657373207468652062DD
:101D70007574746F6E0041646A7573742074686959
:101D8000726420706F696E74202020262050726566
:101D900073732074686520627574746F6E0041649B
:101DA0006A757374207365636F6E6420706F696EFB
:101DB0007420202620507265737320746865206239
:101DC0007574746F6E002041646A7573742066695F
:101DD00072737420706F696E7420202620507265B3
:101DE00073732074686520627574746F6E002020B0
:101DF0004C6576656C696E6720706C6174652E2E1B
:101E00002E20202020507265737320746F2073740D
:101E1000617274202020002020205072657373208E
:101E2000746F2061626F72740001200054656D70E0
:101E30003A00436F6F6C696E672E2E2E004D37305F
:101E400030004D3330302053363938205032303066
:101E5000004D333030205336353920503230300089
:101E600000002100240027002A002D00300033004C
:101E700001010000040107010A0100002200250001
:101E800028002B002E003100340002010000050163
:101E900008010B01000020002300260029002C006F
:101EA0002F003200000100000301060109010505B1
:101EB0000505070508080808020202020A0A0808C0
:101EC00004040404010101010101010103030303EE
:101ED00003030303040707070C0C0C0C0C0C0C0C7D
:101EE0000202020206060606060606060B0B0B0B8E
:101EF0000B0B0B0B010210202008081020401020B3
:101F000040800201020108040201010204081020BD
:101F100040808040201008040201800402018040BB
:101F20002010080402010804020101020408102024
:101F3000408001020408102040800000090A0208C5
:101F40000B0C0D0706030401000000000000000058
:101F50000000000000000000000000000000000081
:101F600000000000000011100F0000000000000041
:101F70000000000000000000000000000000000061
:101F800002494E46494E4954594E414ECDCCCC3D66
:101F90000AD7233C17B7D13877CC2B329595E62456
:101FA0001FB14F0A000020410000C84200401C46FB
:101FB00020BCBE4CCA1B0E5AAEC59D74672D203086
:101FC000F7B818CD1B3011241FBECFEFD1E2DEBF12
:101FD000CDBF00E00CBF15E0A0E0B2E0ECEFF0EC0C
:101FE00001E00BBF02C007900D92AA37B107D9F7E5
:101FF0001BBE14E1AAE7B5E001C01D92AB39B107E1
:10200000E1F71FE1C4ECDFE104C02297FE010E946A
:1020100024E0CC3BD107C9F70E9465D50C9472E04F
:102020000C940000A0E0B0E0E8E1F0E10C9441E0A5
:10203000EC015B016115710519F0FB01918380834F
:10204000F9908F2D90E00E9428E0892BC9F7FDE2DE
:10205000FF1621F4F990EE24E39405C02BE2F2166A
:1020600009F4F990EE248E0101501040C80161E896
:102070007FE143E050E069D2892BF9F48E010E5FD5
:102080001F4FC80164E87FE145E050E05ED2892B34
:1020900019F48E01095F1F4FA114B10419F0F50165
:1020A00011830083E0FC04C070E090E080E813C07E
:1020B00070E090E080E86FEF07C1C80169E87FE158
:1020C00043E050E042D2892B69F4A114B10429F411
:1020D00070E090E080EC6FE7F7C02296F501D183C5
:1020E000C083F6CF8824992440E050E060E070E09F
:1020F000EF2DE053EA30A0F5F2E0EF2A8E2D90E0CC
:102100009C0128703070E2FE06C0232B79F50894FC
:10211000811C911C2BC0232B19F008948108910875
:10212000DB01CA0112E0880F991FAA1FBB1F1A9575
:10213000D1F7480F591F6A1F7B1F440F551F661F99
:10214000771F4E0F511D611D711D483929E9520736
:1021500029E9620729E1720748F084E0E82A06C00D
:10216000EE3F31F4E3FC39C098E0E92AF990C0CFA2
:10217000E53311F0E53189F529912D3219F4E0E1CB
:10218000EE2A05C02B3219F081E090E003C02991BE
:1021900082E090E0E22FE053EA3018F0C81BD90B40
:1021A0001CC020E030E0FCE020383F075CF4C901AF
:1021B000880F991F880F991F280F391F220F331F6F
:1021C0002E0F311DE991E053EA3068F3E4FE03C0BD
:1021D000309521953F4F820E931ECE2CDD24E1FEDB
:1021E00007C0A114B10421F02197F501D183C08368
:1021F000CB01BA010E9481DC7B018C01F3E0CF228C
:10220000DD2423E0C216D10421F417FB109517F941
:10221000109557016801C801B70120E030E040E0A7
:1022200050E00E94E1DB882309F44AC097FE0DC00C
:1022300020EAE22E2FE1F22E90948194910893945B
:10224000C0E2D0E000E010E012C098EBE92E9FE180
:10225000F92EF6CFF7012591359145915491C6019C
:10226000B5010E94C1DE5B016C018C1A9D0A8C16BF
:102270009D0684F7D595C7950F5F1F4F0630110552
:1022800029F08CEF9FEFE80EF91EF1CFC501D601C2
:102290007C018D018C2D880F8D2D881F8F3F51F073
:1022A000C601B50120E030E040E050E00E94E1DBF3
:1022B000882331F482E290E090939A1480939914E9
:1022C0007E2D9F2D802F612F272F392F482F562F9E
:1022D000B901CA01CDB7DEB7ECE00C945DE02F92F6
:1022E0003F925F926F927F928F929F92AF92BF9236
:1022F000CF92DF92EF92FF920F931F93CF93DF93D2
:102300008C011B01EA016115710519F0FB01918334
:102310008083209749F0CE010297839728F020E030
:1023200030E040E050E0F6C0F801A1908F018A2D26
:1023300090E00E9428E0892BB9F7FDE2AF1631F456
:10234000F801A1908F015524539407C0FBE2AF160A
:1023500019F4F801A1908F015524209719F0C0318C
:10236000D105C1F4F0E3AF1679F4F8018081883724
:1023700011F0883549F4F801A1800E5F1F4FF2E09B
:102380005F2AC0E1D0E006C0209721F480E3A816C0
:10239000E9F427C0C830D10531F1C930D10524F4A2
:1023A000C230D10531F50CC0CA30D10589F0C03139
:1023B000D105F9F4C12CD12CE12CB8E0FB2E28C0BA
:1023C000C12CD12CE12CA0E4FA2E22C0CAE0D0E02E
:1023D000FCECCF2EFCECDF2EFCECEF2EFCE0FF2E15
:1023E00017C0C8E0D0E0C12CD12CE12CE0E1FE2EDA
:1023F0000FC09E01442737FD4095542F60E070E0E8
:1024000080E090E80E94E5DFC901DA016C017D01FE
:1024100020E030E040E050E060E03E01882477FCBE
:102420008094982C70EDB72EBA0CE9E0EB1570F49F
:102430008A2D81548A3118F499ECB92E06C08A2D60
:1024400081568A3150F589EAB82EBA0C8B2D90E06E
:102450008C179D0714F56F3FE1F0C216D306E40612
:10246000F506B0F0CA01B901A40193010E9493DFFF
:102470009B01AC012B0D311D411D511D2130F0E0A0
:102480003F07F0E04F07F0E85F0710F461E001C09C
:102490006FEFF801A1908F01C5CF2114310481F0B5
:1024A000662331F001501040F1011183008308C010
:1024B00051FE1AC002501040F1011183008314C074
:1024C00067FF12C050FC05C02FEF3FEF4FEF5FE7F3
:1024D00004C020E030E040E050E882E290E09093D9
:1024E0009A148093991416C050FE08C050954095D8
:1024F000309521953F4F4F4F5F4F0CC057FF0AC09B
:1025000082E290E090939A14809399142FEF3FEF1A
:102510004FEF5FE7B901CA01DF91CF911F910F9192
:10252000FF90EF90DF90CF90BF90AF909F908F90F3
:102530007F906F905F903F902F900895FB01DC019A
:1025400005900D920020E1F70895FB01DC01415058
:10255000504088F08D9181341CF08B350CF4805EF6
:10256000659161341CF06B350CF4605E861B611163
:1025700071F3990B0895881BFCCFFB01DC014150DE
:10258000504048F005900D920020C9F701C01D92FF
:1025900041505040E0F70895FB0155915523A9F0B3
:1025A000BF01DC014D9145174111E1F759F4CD010F
:1025B0000590002049F04D9140154111C9F3FB01F0
:1025C0004111EFCF81E090E001970895FB01DC011C
:1025D00004C08D910190801921F441505040C8F7FA
:1025E000881B990B0895FB01DC0102C001900D923C
:1025F00041505040D8F70895FB01DC018D918134A2
:102600001CF08B350CF4805E619161341CF06B35ED
:102610000CF4605E861B611189F3990B0895FB0130
:10262000DC010D900020E9F7119701900D92002038
:10263000E1F70895FC018191861721F08823D9F7ED
:10264000992708953197CF010895FB01DC018D9101
:10265000019080190110D9F3990B0895FB01DC0159
:1026600001900D920020E1F70895FB01DC0141503B
:10267000504030F08D910190801919F40020B9F785
:10268000881B990B0895FB01DC014150504048F034
:1026900001900D920020C9F701C01D924150504099
:1026A000E0F70895AEE0B0E0E8E5F3E10C9449E02E
:1026B0000E891F898EE08C831A8309838FEF9FE731
:1026C0009E838D839E01265E3F4FCE010196688DCD
:1026D000798DA9010AD02F813885020F131FF801C7
:1026E00010822E96E4E00C9465E0ABE0B0E0EBE7FE
:1026F000F3E10C943BE03C012B015A01FC011782F1
:102700001682838181FD03C06FEF7FEFB9C19AE02C
:10271000892E1E010894211C311CF3012381F20132
:1027200023FD859123FF81912F01882309F4A5C101
:10273000853239F423FD859123FF81912F01853264
:1027400021F490E0B301B7D1E8CF982FFF24EE2415
:102750009924FFE1FF15D0F09B3269F09C3228F4F8
:10276000903259F0933291F40EC09D3249F090337B
:1027700069F441E024C052E0F52A84E0F82A28C038
:1027800098E0F92A25C0E0E1FE2A22C0F7FC29C022
:10279000892F80538A3070F4F6FE05C0989C902CE7
:1027A0001124980E15C0E89CE02C1124E80EF0E2EC
:1027B000FF2A0EC09E3229F4F6FC5FC140E4F42AE1
:1027C00007C09C3619F450E8F52A02C0983649F43F
:1027D000F20123FD959123FF91912F01992309F097
:1027E000B8CF892F8554833018F08052833038F465
:1027F00044E050E0A40EB51E5FE359830FC093364A
:1028000031F0933779F0933509F052C01FC0F501CC
:102810008081898342E050E0A40EB51E610101E091
:1028200010E011C0F501C080D180F6FC03C06FEF4D
:102830007FEF02C0692D70E042E050E0A40EB51EAB
:10284000C6012ED18C015FE7F52213C0F501C080CF
:10285000D180F6FC03C06FEF7FEF02C0692D70E0FE
:1028600042E050E0A40EB51EC6010FD18C0150E825
:10287000F52AF3FE06C018C080E290E0B3011BD138
:10288000EA948E2D90E008171907B0F30DC0F601F9
:10289000F7FC8591F7FE81916F0190E0B3010BD1B8
:1028A000E110EA94015010400115110581F7E2C0D2
:1028B000943611F0993661F5F7FE08C0F5012081D4
:1028C00031814281538184E090E00AC0F50180812A
:1028D00091819C01442737FD4095542F82E090E080
:1028E000A80EB91E9FE6F92257FF09C050954095E2
:1028F000309521953F4F4F4F5F4FE0E8FE2ACA01C8
:10290000B901A1012AE030E002D1D82ED2183FC08F
:10291000953729F41F2D1F7E2AE030E01DC01F2DA2
:10292000197F9F3661F0903720F4983509F0A5C0E3
:102930000FC0903739F0983709F09FC004C028E0E5
:1029400030E00AC0106114FD146020E130E004C0E2
:1029500014FD166020E132E017FF08C0F501608128
:1029600071818281938144E050E008C0F50180814B
:102970009181BC0180E090E042E050E0A40EB51EE1
:10298000A101C5D0D82ED2188FE7F82EF122F6FE7D
:102990000BC05EEFF522D91438F4F4FE07C0F2FC48
:1029A00005C08FEEF82202C01D2D01C0192DF4FEC6
:1029B0000DC0FE01ED0DF11D8081803319F499EEFB
:1029C000F92208C01F5FF2FE05C003C08F2D867874
:1029D00009F01F5F0F2DF3FC13C0F0FE0EC01E1593
:1029E00010F09D2C0AC09D2C9E0C911A1E2D05C026
:1029F00080E290E0B3015FD01F5F1E15C8F304C0F2
:102A00001E1510F4E11A01C0EE2404FF0EC080E38D
:102A100090E0B30150D002FF1BC001FD03C088E766
:102A200090E00EC088E590E00BC0802F867881F0A2
:102A300001FF02C08BE201C080E2F7FC8DE290E072
:102A4000B30139D005C080E390E0B30134D09A944B
:102A5000D914C8F3DA94F101ED0DF11D808190E0F5
:102A6000B30129D0DD20B1F705C080E290E0B301C9
:102A700022D0EA94EE20C9F750CEF3016681778127
:102A8000CB012B96E2E10C9457E0FC0105906150DC
:102A900070400110D8F7809590958E0F9F1F089574
:102AA000FC016150704001900110D8F7809590951D
:102AB0008E0F9F1F08950F931F93CF93DF938C0169
:102AC000EB018B8181FF1BC082FF0DC02E813F81F6
:102AD0008C819D812817390764F4E881F98101937D
:102AE000F983E88306C0E885F985802F1995892B3D
:102AF00031F48E819F8101969F838E8302C00FEFF8
:102B00001FEFC801DF91CF911F910F910895FA0136
:102B1000AA27283051F1203181F1E8946F936E7F1C
:102B20006E5F7F4F8F4F9F4FAF4FB1E03ED0B4E00D
:102B30003CD0670F781F891F9A1FA11D680F791F4E
:102B40008A1F911DA11D6A0F711D811D911DA11D5F
:102B500020D009F468943F912AE0269F112430196F
:102B6000305D3193DEF6CF010895462F4770405D0A
:102B70004193B3E00FD0C9F7F6CF462F4F70405DB9
:102B80004A3318F0495D31FD4052419302D0A9F714
:102B9000EACFB4E0A6959795879577956795BA950E
:102BA000C9F700976105710508959B01AC010A2ED4
:102BB00006945795479537952795BA95C9F7620FAB
:102BC000731F841F951FA01D0895FC01128213829C
:102BD0000895FC018381882311F081E082830895A8
:102BE000CF93DF93DC01FC01EB55FE4F8081918197
:102BF0000097C9F1019791838083ED01CC5ADF4F93
:102C0000FD01ED58FF4F8BE1019009928150E1F7F2
:102C1000FD01EE5AFF4FAF58BF4F8D919C91119718
:102C2000A157B04091838083FD01ED58FF4F20E014
:102C300030E0AD014B555E4F10C02F5F3F4FEF01AD
:102C4000DF015F968BE10D9009928150E1F7858D50
:102C5000968D329791838083B196DA018D919C9104
:102C60002817390750F3DF91CF910895FC0186E0D2
:102C700095E0918380838781882321F0CF0104969A
:102C80000C9464790895CF92DF92EF92FF920F93A4
:102C90001F93DF93CF93CDB7DEB76F970FB6F8943E
:102CA000DEBF0FBECDBF8C016B01095A1F4FD8018B
:102CB0008C9107551040882321F42FE2E22EF12C4D
:102CC00003C090E5E92EF12CE00EF11E86E095E0C0
:102CD0009A8389831C821B8218861D82B7016C5FD0
:102CE0007F4FCE010596A60121E00E9450808823E7
:102CF00091F5EEE5F5E0949108C08091C00085FF64
:102D0000FCCF9093C600319694919923B1F7EFE5EB
:102D1000F1E0949108C08091C00085FFFCCF9093B2
:102D2000C600319694919923B1F709C08091C000F3
:102D300085FFFCCF0894C11CD11C9093C600F601FE
:102D40009081992399F78091C00085FFFCCF8AE09C
:102D50008093C6005AC0F801EB55FE4F20813181A7
:102D60002A30310508F040C02F5F3F4F3183208368
:102D700021503040F90185E0EE0FFF1F8A95E1F701
:102D8000E21BF30BED58FF4FE00FF11F13C0AF0133
:102D9000415E5F4FBF018BE1DB010D90BD01DA01A8
:102DA0000D92AD018150C1F7929182913296968F2A
:102DB000858F7F9721503040BFEF2E3F3B0739F77B
:102DC000D801AD58BF4FF70134968BE101900D92B9
:102DD0008150E1F70F581F4FF70182819381D8018D
:102DE0008D939C9301571040D801AC5ABF4FFE0100
:102DF00035968BE101900D928150E1F70E5A1F4FED
:102E00008B819C81F80191838083CE0101962EDF16
:102E10006F960FB6F894DEBF0FBECDBFCF91DF9196
:102E20001F910F91FF90EF90DF90CF900895EF9258
:102E3000FF920F931F938C013EECE32E31E0F32EB3
:102E4000E80EF91EC7010E941779C7010E94647934
:102E5000F801108211821F910F91FF90EF90089559
:102E6000CF92DF92EF92FF920F931F93CF93DF9356
:102E70007C016B01DB010D900020E9F78D01015011
:102E80001040061B170BEEECF1E0EE0EFF1ED70113
:102E90001C92E2E3FEEFEE0EFF1ECB016EE470E04B
:102EA000C9DBEC01009731F4F8013197EC0DFD1D01
:102EB00086010CC060E270E0BDDB8C010F5F1F4F2C
:102EC000CE016AE270E0B6DBFC0131978DE08183D0
:102ED0008AE082831382C70186539E4FB8010E9405
:102EE00061818EEC91E0E80EF91ED7018C91882368
:102EF00019F1E7E5F5E0949108C08091C00085FFE5
:102F0000FCCF9093C600319694919923B1F7E9E8EC
:102F1000F1E0949108C08091C00085FFFCCF9093B0
:102F2000C600319694919923B1F78091C00085FF36
:102F3000FCCF8AE08093C600DF91CF911F910F9163
:102F4000FF90EF90DF90CF900895CF93DF93EC0147
:102F50008B81882309F43BC0E1EBF1E0949108C038
:102F60008091C00085FFFCCF9093C600319694916C
:102F70009923B1F7CD57DD4F488159816A817B8113
:102F8000C358D2408EEF95E02AE030E00E94002E38
:102F9000EFEAF1E0949108C08091C00085FFFCCF7A
:102FA0009093C600319694919923B1F7C558DD4F9F
:102FB000488159816A817B818EEF95E02AE030E07B
:102FC0000E94002E8091C00085FFFCCF12C0EFE967
:102FD000F1E0949108C08091C00085FFFCCF9093F0
:102FE000C600319694919923B1F78091C00085FF76
:102FF000FCCF8AE08093C600DF91CF9108952F9295
:103000003F924F925F926F927F928F929F92AF9278
:10301000BF92CF92DF92EF92FF920F931F93DF93B5
:10302000CF93CDB7DEB7AC970FB6F894DEBF0FBE27
:10303000CDBF5C014B01FC018381882309F43BC1B6
:10304000C50182539E4F0E946479F50112821A8A4B
:103050001D8A198A188A86E095E09F878E875EE42C
:10306000C52ED12CCA0CDB1C2FE230E0A20EB31E01
:10307000F601B182A08221ED3FEFA20EB31EF40152
:1030800080818F3209F08DC0C4016FE270E0D2DA26
:103090007C010894E11CF11C3E010894611C711C28
:1030A000260142E1242E312C2C0E3D1E75C0C70195
:1030B0006FE270E0BFDA6C01009709F480C0E81697
:1030C000F90608F07CC08C010E191F09C301B70175
:1030D000A801D9DA060D171DF8011082F30107C007
:1030E0008091C00085FFFCCF31969093C6009081FF
:1030F0009923B1F78091C00085FFFCCFFAE0F093EF
:10310000C600F201608171816115710519F460E0FA
:1031100070E002C06C5F7F4FC101A30121E00E94FB
:103120005080882371F5EDEEF1E0949108C0809114
:10313000C00085FFFCCF9093C600319694919923EF
:10314000B1F7FE01319607C08091C00085FFFCCF2A
:1031500031969093C60090819923B1F7EBEEF1E0A0
:10316000949108C08091C00085FFFCCF9093C60069
:10317000319694919923B1F78091C00085FFFCCFDF
:1031800094C02EE030E02C0F3D1FF20131832083EC
:1031900076010894E11CF11CE114F10409F087CFD9
:1031A0000BC080E590E0A80EB91EF601B182A082A6
:1031B00020EB3FEFA20EB31ED82C092D02C0DE2C4F
:1031C0000F2D8EE490E0A80EB91EF501808191814B
:1031D00022EB3FEFA20EB31E009719F480E090E0BF
:1031E00001C004966D2D702F0E941C81882371F1FF
:1031F000EDEDF1E0949108C08091C00085FFFCCF17
:103200009093C600319694919923B1F78D2D902F0C
:103210009C01F90107C08091C00085FFFCCF319669
:103220009093C60090819923B1F78091C00085FFEB
:10323000FCCF8AE08093C60083E892E0A80EB91E16
:10324000F501108211821282138232C0E5ECF1E0A6
:10325000949108C08091C00085FFFCCF9093C60078
:10326000319694919923B1F78D2D902F9C01F901FE
:1032700007C08091C00085FFFCCF31969093C600B7
:1032800090819923B1F7E3ECF1E0949108C080912B
:10329000C00085FFFCCF9093C6003196949199238E
:1032A000B1F78091C00085FFFCCF8AE08093C60013
:1032B000CE010E96DBDCAC960FB6F894DEBF0FBEE7
:1032C000CDBFCF91DF911F910F91FF90EF90DF90D5
:1032D000CF90BF90AF909F908F907F906F905F90B6
:1032E0004F903F902F900895BF92CF92DF92EF9230
:1032F000FF920F931F93CF93DF938C01EB018FE22B
:103300008993EE24E394FF2475EAC72E71E0D72E4B
:10331000C00ED11E6FE1B62E14C0FB9CC00111245B
:103320008D589F4F800F911FBE010E94747902C07B
:103330002196E3948881882319F08CE88E15C0F7D4
:10334000F3942F2D30E0F601808191812817390701
:1033500020F3E7FC07C0C80182539E4FBE010E94C4
:10336000747901C01882DF91CF911F910F91FF9066
:10337000EF90DF90CF90BF900895EF92FF920F9360
:103380001F93CF93DF938C01FC01138286A98823BE
:1033900021F0C801C3960E946479E7EAEE2EE1E0CD
:1033A000FE2EE00EF11EC70160E045E30E94137798
:1033B000882309F5EEE5F5E0949108C08091C000FE
:1033C00085FFFCCF9093C600319694919923B1F775
:1033D000E6E3F3E0949108C08091C00085FFFCCF44
:1033E0009093C600319694919923B1F78091C000D3
:1033F00085FFFCCF7DC0E801C455DE4FCE01B7018B
:1034000041E00E94F281882341F5CE01B70140E0FE
:103410000E94F281882309F5E7E5F5E0949108C060
:103420008091C00085FFFCCF9093C60031969491A7
:103430009923B1F7E3E2F3E0949108C08091C000D2
:1034400085FFFCCF9093C600319694919923B1F7F4
:103450008091C00085FFFCCF4BC0C801C396BE0160
:103460000E94567C882309F5E7E5F5E0949108C0B1
:103470008091C00085FFFCCF9093C6003196949157
:103480009923B1F7E3E1F3E0949108C08091C00083
:1034900085FFFCCF9093C600319694919923B1F7A4
:1034A0008091C00085FFFCCF23C081E0F8018383B9
:1034B000EEE5F5E0949108C08091C00085FFFCCF57
:1034C0009093C600319694919923B1F7E8E0F3E028
:1034D000949108C08091C00085FFFCCF9093C600F6
:1034E000319694919923B1F78091C00085FFFCCF6C
:1034F0008AE08093C600D801AC5ABF4FF801F3961A
:103500008BE101900D928150E1F7F80181A992A918
:103510000E5A1F4FF8019183808302551040C80155
:103520008F96025B1F4FF80191838083DF91CF91CB
:103530001F910F91FF90EF9008952F923F924F921D
:103540005F926F927F929F92AF92BF92CF92DF92E3
:10355000EF92FF920F931F93DF93CF93CDB7DEB718
:10356000CC55D0400FB6F894DEBF0FBECDBF6C0176
:10357000662311F527E832E0C20ED31ED6018C91E6
:10358000E9E7FDEFCE0EDF1E882309F4E2C02FE746
:1035900032E0C20ED31ED601ED90FD900D911C912C
:1035A000E1E8FDEFCE0EDF1E0E949FD2E616F70681
:1035B0000807190708F4CDC027E832E0C20ED31E71
:1035C000D6011C92E9E7FDEFCE0EDF1ED601139661
:1035D0008C91882339F4C601D0DEF60183818823DB
:1035E00009F4B7C000D000D0EDB7FEB731967E0128
:1035F0000894E11CF11CADB7BEB71296FC92EE9296
:10360000119780E891E093838283D6019D968D91F6
:103610009C919E979583848345D88701EDB7FEB72B
:1036200036960FB6F894FEBF0FBEEDBF57010AC025
:10363000D8018C91992787FD90950E9430E0F80180
:1036400081938F01F50101900020E9F73197EA1984
:10365000FB09802F8E198E175CF313E3A12EB12C7A
:10366000AC0CBD1CC50140E050E060E070E00E9481
:103670004D789924BDE3EB2EF12CEC0EFD1E2E01AE
:103680000894411C511CAFE16A2E712C6C0E7D1EFA
:10369000F9E72F2EF1E03F2E42C0D8018C9190E047
:1036A0000E9430E0F80181938F01D7010D90002036
:1036B000E9F71197AE19BF09802F8E198A176CF39D
:1036C00027968FAD27978E3751F1C701B20145E09C
:1036D00050E00E943513009711F500D000D0EDB7EF
:1036E000FEB73196ADB7BEB712967C926E92119727
:1036F00033822282558244820E945213EDB7FEB774
:1037000036960FB6F894FEBF0FBEEDBFC3010E9400
:103710003A5D85E791E00E941C5C99249394C50171
:10372000B70140E050E00E94757B181614F4870141
:10373000BCCF992041F48FEF9FEFD6019E969C93CA
:103740008E939D9706C0F60185A596A5019696A72E
:1037500085A7C45ADF4F0FB6F894DEBF0FBECDBFAA
:10376000CF91DF911F910F91FF90EF90DF90CF905D
:10377000BF90AF909F907F906F905F904F903F90E1
:103780002F9008952F923F924F925F926F927F9267
:103790008F929F92AF92BF92CF92DF92EF92FF9261
:1037A0000F931F93DF93CF93CDB7DEB7CF58D040A1
:1037B0000FB6F894DEBF0FBECDBF8C012B016A019E
:1037C000C757DF4F39832883C958D04084E090E041
:1037D000C80ED91EF8017196C957DF4FF983E883E7
:1037E000C758D04044E0642E712C600E711ECA5739
:1037F000DF4F1882C658D04036E6E32EF12CEC0E8F
:10380000FD1EC7010B96C557DF4F99838883CB58A0
:10381000D04028E8822E22E0922E800E911E9AE857
:10382000A92E92E0B92EA00EB11E87E4282E312CCD
:103830002C0E3D1EF1013496C357DF4FF983E88308
:10384000CD58D040EEE5F5E08491C157DF4F888335
:10385000CF58D04053C1F7018385482F50E0BA01BB
:10386000687170706031710509F056C1F4012081F2
:1038700031812130310509F44FC12230310509F47D
:103880004BC1F701DE0111969081903239F08E2FF5
:103890008E19883011F48EE28D939D933196C55721
:1038A000DF4F88819981CB58D040E817F90761F73D
:1038B0001C921E86F2018081882331F4CE010E967F
:1038C00060E072E00E940F13CE010E96B2010E94DA
:1038D0000F13CE010E96BE016F5F7F4F0E940F1334
:1038E000CE010E9660E072E00E940F131CA61FA688
:1038F0001BA61AA686E095E099A788A7CE018C960C
:10390000B601AE014F5F5F4F21E00E9450808823D7
:1039100009F03FC0F40180819181892BD1F5C15715
:10392000DF4F9881CF58D040EEE5F5E008C0809198
:10393000C00085FFFCCF9093C600319694919923E7
:10394000B1F7E2E0F2E007C08091C00085FFFCCF54
:1039500031969093C60090819923B1F78091C00071
:1039600085FFFCCFFAE0F093C600FE01319607C058
:103970008091C00085FFFCCF31969093C600908166
:103980009923B1F78091C00085FFFCCF8AE0809336
:10399000C600C357DF4FA881B981CD58D040FE0182
:1039A000BC968BE101900D928150E1F78AA59BA511
:1039B000F1019383828386E095E091838083C8013F
:1039C000BE01625F7F4FA10120E030E0DBDEC1017C
:1039D0004DD9CE0188964AD991C09E3209F48EC045
:1039E0009F3509F48BC0F80191899E3209F486C095
:1039F0009F3509F483C043FD81C080E060317105CB
:103A000009F481E0F80184A7882349F4F70180854F
:103A1000873409F073C081858E3709F46FC0D301F4
:103A2000F7018081803241F08E2F8E19883011F499
:103A30008EE28D9380818D933196C557DF4F8881BB
:103A40009981CB58D040E817F90759F71C92F40137
:103A500080819181009701F5F20107C08091C0003B
:103A600085FFFCCF31969093C60090819923B1F7E2
:103A7000F30107C08091C00085FFFCCF3196909381
:103A8000C60090819923B1F78091C00085FFFCCFDB
:103A9000FAE0F093C60032C08130910539F4F501A7
:103AA0008081918101969183808328C0029731F5AE
:103AB000C757DF4F88819981C958D040009731F0AE
:103AC000B3010E94FC12892B71F42BC0CA57DF4F3F
:103AD0009881C658D040292F30E0F501808191812E
:103AE00028173907F1F0CA57DF4FF881C658D04080
:103AF000FF5FCA57DF4FF883C658D040C601B701F1
:103B0000C957DF4F48815981C758D0400E94757B03
:103B100018160CF4A0CE05C0F7019081992309F086
:103B20005CCFC157DF4F0FB6F894DEBF0FBECDBFDD
:103B3000CF91DF911F910F91FF90EF90DF90CF9089
:103B4000BF90AF909F908F907F906F905F904F90BD
:103B50003F902F900895EF92FF920F931F93DF9362
:103B6000CF93CDB7DEB76F970FB6F894DEBF0FBE19
:103B7000CDBF7C018C01025B1F4F805B9F4FF80122
:103B80009183808328E832E0E20EF31E21E030E0EA
:103B9000F701219331937F011182108226E73DEFD7
:103BA000E20EF31E049640E050E060E070E00E94F8
:103BB0004D78F80120813181DE011596F9013496A6
:103BC0008BE101900D928150E1F7F901828193819F
:103BD0009C838B8386E095E09A838983C70165E1A6
:103BE00072E08E010F5F1F4FA80120E030E0CADDB8
:103BF000C8013CD8F701E657FD4F808191816F964F
:103C00000FB6F894DEBF0FBECDBFCF91DF911F91ED
:103C10000F91FF90EF900895CF92DF92EF92FF9275
:103C20000F931F93DF93CF93CDB7DEB76F970FB688
:103C3000F894DEBF0FBECDBF7C016A018C01025B30
:103C40001F4F805B9F4FF8019183808328E832E00B
:103C5000E20EF31E22E030E0F701219331937F0161
:103C60007183608326E73DEFE20EF31E049640E089
:103C700050E060E070E00E944D78F80120813181D1
:103C8000DE011596F90134968BE101900D92815079
:103C9000E1F7F901828193819C838B8386E095E033
:103CA0009A838983C70165E172E08E010F5F1F4F20
:103CB000A801960167DDC8010E9436166F960FB6FF
:103CC000F894DEBF0FBECDBFCF91DF911F910F9152
:103CD000FF90EF90DF90CF9008952F923F924F92F8
:103CE0005F926F927F928F929F92AF92BF92CF928C
:103CF000DF92EF92FF920F931F93DF93CF93CDB795
:103D0000DEB7AD970FB6F894DEBF0FBECDBF7C0116
:103D10003B014DA7DC0113968C91882309F450C315
:103D2000E1EDF1E0EE0EFF1ED7018C91EFE2FEEF28
:103D3000EE0EFF1E882309F418C1222309F0E0C00B
:103D400029EE31E0E20EF31ED7018C91E7E1FEEFA0
:103D5000EE0EFF1E882371F1E7E5F5E0949108C0AF
:103D60008091C00085FFFCCF9093C600319694915E
:103D70009923B1F7E5ECF2E0949108C08091C0007E
:103D800085FFFCCF9093C600319694919923B1F7AB
:103D90008EEF95E061E070E04AE050E00E944F2E27
:103DA0008091C00085FFFCCF8AE08093C6000E940E
:103DB000B63006C3EEE5F5E0949108C08091C000EE
:103DC00085FFFCCF9093C600319694919923B1F76B
:103DD000ECEAF2E0949108C08091C00085FFFCCF2E
:103DE0009093C600319694919923B1F7F30107C0DF
:103DF0008091C00085FFFCCF31969093C6009081E2
:103E00009923B1F7E1EAF2E0949108C08091C000F3
:103E100085FFFCCF9093C600319694919923B1F71A
:103E2000C7012EEE31E0E20EF31EB7015DDA4BEF73
:103E30005FEFE40EF51ED7019C91E7E1FEEFEE0E79
:103E4000FF1E8DE8989FF0011124E251FE4FEE0D08
:103E5000FF1D07C08091C00085FFFCCF3196909375
:103E6000C60090819923B1F7EBE9F2E0949108C084
:103E70008091C00085FFFCCF9093C600319694914D
:103E80009923B1F723E832E0E20EF31ED7014D91FA
:103E90005D916D917C91EDE7FDEFEE0EFF1E8EEFD3
:103EA00095E02AE030E00E94002E8091C00085FF5E
:103EB000FCCF8AE08093C600A70147515E4FDA012C
:103EC0002C91E22FF0E0EE0FFF1FEE0FFF1FEE0D23
:103ED000FF1DE651FE4F83E892E0E80EF91ED70180
:103EE000AD90BD90CD90DC908DE79DEFE80EF91E72
:103EF000A082B182C282D3822F5FDA012C932FC0BD
:103F0000EEE5F5E0949108C08091C00085FFFCCFFC
:103F10009093C600319694919923B1F7EAE8F2E0C4
:103F2000949108C08091C00085FFFCCF9093C6009B
:103F3000319694919923B1F7F30107C08091C000A5
:103F400085FFFCCF31969093C60090819923B1F7FD
:103F50008091C00085FFFCCF8AE08093C600C70136
:103F600082539E4F0E94647939C0E9EEF1E0EE0E73
:103F7000FF1ED7011C92E7E1FEEFEE0EFF1EEEE5FD
:103F8000F5E0949108C08091C00085FFFCCF90932C
:103F9000C600319694919923B1F7E9E7F2E0949144
:103FA00008C08091C00085FFFCCF9093C600319679
:103FB00094919923B1F7F30107C08091C00085FF68
:103FC000FCCF31969093C60090819923B1F78091F0
:103FD000C00085FFFCCF8AE08093C600D70112960F
:103FE0001C921A8A1D8A198A188A86E095E09F8792
:103FF0008E876EE4A62EB12CAE0CBF1CEFE2F0E073
:10400000EE0EFF1ED501ED92FC92E1EDFFEFEE0EFC
:10401000FF1ED3018C918F3209F090C0C3016FE273
:1040200070E00E941A136C010894C11CD11C4E014F
:104030000894811C911C250152E1252E312C2C0E57
:104040003D1E77C0C6016FE270E00E941A135C014A
:10405000009709F480C0C816D90608F07CC08C010E
:104060000C191D09C401B601A8010E944313080DD3
:10407000191DF8011082F40107C08091C00085FF6E
:10408000FCCF31969093C60090819923B1F780912F
:10409000C00085FFFCCFFAE0F093C600D2016D911D
:1040A0007C916115710519F460E070E002C06C5FED
:1040B0007F4FC101A40121E00E945080882371F547
:1040C000E5E6F2E0949108C08091C00085FFFCCF46
:1040D0009093C600319694919923B1F7FE013196E1
:1040E00007C08091C00085FFFCCF31969093C60039
:1040F00090819923B1F7E3E6F2E0949108C08091B2
:10410000C00085FFFCCF9093C6003196949199230F
:10411000B1F78091C00085FFFCCF23C12EE030E0D5
:104120002C0F3D1FF2013183208365010894C11CCF
:10413000D11CC114D10409F085CF0BC040E550E07B
:10414000E40EF51ED501ED92FC92E0EBFFEFEE0ED2
:10415000FF1E830101C08601F701E25BFF4F2DA521
:10416000222309F4BFC0608171816115710519F4C2
:1041700060E070E002C06C5F7F4FC70182539E4FCA
:10418000A80121E00E945080882309F47EC04FEDF1
:1041900051E0E40EF51ED7014D915D916D917C913A
:1041A000ECE9F0E0EE0EFF1ED7014D935D936D93A9
:1041B0007C931397E5E8FDEFEE0EFF1EE5E5F2E0D8
:1041C000949108C08091C00085FFFCCF9093C600F9
:1041D000319694919923B1F7F80107C08091C000FE
:1041E00085FFFCCF31969093C60090819923B1F75B
:1041F000EDE4F2E0949108C08091C00085FFFCCF0F
:104200009093C600319694919923B1F78EEF95E083
:104210002AE030E00E94002E8091C00085FFFCCF94
:104220008AE08093C60023E832E0E20EF31ED70155
:104230001D921D921D921C921397EDE7FDEFEE0E5D
:10424000FF1EEFE3F2E0949108C08091C00085FF6B
:10425000FCCF9093C600319694919923B1F7809149
:10426000C00085FFFCCF8AE08093C600C70160E0F4
:1042700070E0A801D1DCD70151968C91882309F414
:1042800098C087010F5E1F4F94C0EBE2F2E094915B
:1042900008C08091C00085FFFCCF9093C600319686
:1042A00094919923B1F7F80107C08091C00085FF70
:1042B000FCCF31969093C60090819923B1F7E9E243
:1042C000F2E0949108C08091C00085FFFCCF9093EC
:1042D000C600319694919923B1F78091C00085FF73
:1042E000FCCF3FC0608171816115710519F460E0F8
:1042F00070E002C06C5F7F4FC70182539E4FA801E0
:1043000026E50E945080882381F5E5E1F2E0949152
:1043100008C08091C00085FFFCCF9093C600319605
:1043200094919923B1F7F80107C08091C00085FFEF
:10433000FCCF31969093C60090819923B1F7E3E1C9
:10434000F2E0949108C08091C00085FFFCCF90936B
:10435000C600319694919923B1F78091C00085FFF2
:10436000FCCF8AE08093C60027C081E0F7018083FC
:10437000E1E0F2E0949108C08091C00085FFFCCF9D
:104380009093C600319694919923B1F7F30107C039
:104390008091C00085FFFCCF31969093C60090813C
:1043A0009923B1F78091C00085FFFCCF8AE080930C
:1043B000C600C8010E941EB9CE010E960E94361694
:1043C000AD960FB6F894DEBF0FBECDBFCF91DF9193
:1043D0001F910F91FF90EF90DF90CF90BF90AF9023
:1043E0009F908F907F906F905F904F903F902F9015
:1043F0000895EF92FF920F931F93CF93DF93EC01F9
:104400000E94508A8E0107511E4FD8018C91BEEC3C
:10441000EB2EB1E0FB2EEC0EFD1E882399F1C701B7
:104420000E946479F8016081615060838DE8689F23
:10443000B001112462517E4F6C0F7D1FCE0141E00F
:1044400021E04BDCD801EC91F0E0EE0FFF1FEE0F06
:10445000FF1FEC0FFD1FE651FE4F4081518162812D
:104460007381CD57DD4F488359836A837B83C3585B
:10447000D240C7010E944D788B81882389F181E069
:104480008A832EC00E942E8AC7010E9464791A82F4
:1044900083E591E00E941C5C80911A0B882301F156
:1044A00010921A0B8091C308C82FD0E0CC0FDD1FEB
:1044B000CF52DD4E68817981882777FD8095982FCE
:1044C0000E9483DC209150043091510440915204A9
:1044D000509153040E94EFDD181614F419821882CB
:1044E000DF91CF911F910F91FF90EF900895FC0104
:1044F00081E08183CF0140E021E0EFCBEF92FF929A
:104500000F931F93DF93CF93CDB7DEB76F970FB69F
:10451000F894DEBF0FBECDBF7C0188E892E0E80EC4
:10452000F91EF7011182108288E79DEFE80EF91E4F
:1045300087010D5C1F4FC80140E050E060E070E073
:104540000E944D78DE011596F8018BE101900D92E5
:104550008150E1F7F70181A992A99C838B8386E0C2
:1045600095E09A838983C70165E172E08E010F5F50
:104570001F4FA80120E030E005D9C8010E9436167F
:104580006F960FB6F894DEBF0FBECDBFCF91DF910F
:104590001F910F91FF90EF9008950F931F93CF936A
:1045A000DF93DC01D3961C92D397D6961C92D697B4
:1045B000D2961C921E92D19786E095E0D0969C935D
:1045C0008E939F97AC5ABF4F1C9213961C92A7557F
:1045D000B040FD01E05BFF4FAE5ABF4F11961C92F9
:1045E0001E92A255B04091838083ED01C159DF4FE7
:1045F000FE0120E030E0482F1482178213821282DD
:1046000040839183215E3F4F7F9681E026333807B8
:1046100099F7A855BE4F89E18C9313961C92589632
:104620001C921B961C9213961C92A15DB140FD0139
:10463000E653FE4FA453BE4F11961C921E92408328
:104640009183A155BF4F1D921D921D921C921397ED
:1046500018961D921D921D921C921397A358B2405A
:1046600012961C92129713961C9213971C921196F5
:104670001C9211978D0101581D4FF8011082118273
:1046800012821382AB55BE4F11961C921E92AC5BE8
:10469000BF4F1C92FE01C90111920197E9F7A25682
:1046A000BF4F81E08C93A758B2409E961C921E92F9
:1046B0009D970E949FD268577C4E8F4F9F4FF80165
:1046C0006083718382839383DF91CF911F910F91D8
:1046D0000895DF93CF93CDB7DEB72A970FB6F8943E
:1046E000DEBF0FBECDBF8091160290911702A09140
:1046F0001802B09119028B839C83AD83BE83FE01A7
:10470000339624E630E08081F999FECF1FBA32BD9E
:1047100021BD80BD0FB6F894FA9AF99A0FBE2F5FAB
:104720003F4F2836310511F03196EDCFEEEBFAE030
:104730008081F999FECF1FBA32BD21BD80BD0FB671
:10474000F894FA9AF99A0FBE2F5F3F4F2837310538
:1047500011F03196EDCFEEEAFAE08081F999FECFC3
:104760001FBA32BD21BD80BD0FB6F894FA9AF99AEE
:104770000FBE2F5F3F4F2838310511F03196EDCF36
:10478000EEECFAE08081F999FECF1FBA32BD21BD6F
:1047900080BD0FB6F894FA9AF99A0FBE2F5F3F4F7B
:1047A0002839310511F03196EDCFE2EEFAE0808143
:1047B000F999FECF1FBA32BD21BD80BD0FB6F89466
:1047C000FA9AF99A0FBE2F5F3F4F2C39310511F03D
:1047D0003196EDCFE6EEFAE08081F999FECF1FBA6F
:1047E00032BD21BD80BD0FB6F894FA9AF99A0FBE7A
:1047F0002F5F3F4F203A310511F03196EDCFEEEDAE
:10480000FAE08081F999FECF1FBA32BD21BD80BD8B
:104810000FB6F894FA9AF99A0FBE2F5F3F4F243AD9
:10482000310511F03196EDCFE6EFFAE08081F9998C
:10483000FECF1FBA32BD21BD80BD0FB6F894FA9AE3
:10484000F99A0FBE2F5F3F4F283A310511F031968C
:10485000EDCFEAEAFAE08081F999FECF1FBA32BDC6
:1048600021BD80BD0FB6F894FA9AF99A0FBE2F5F5A
:104870003F4F2C3A310511F03196EDCFEAEEFAE0D8
:104880008081F999FECF1FBA32BD21BD80BD0FB620
:10489000F894FA9AF99A0FBE2F5F3F4F203B3105EB
:1048A00011F03196EDCFEEEEFAE08081F999FECF6E
:1048B0001FBA32BD21BD80BD0FB6F894FA9AF99A9D
:1048C0000FBE2F5F3F4F243B310511F03196EDCFE6
:1048D000E2EFFAE08081F999FECF1FBA32BD21BD27
:1048E00080BD0FB6F894FA9AF99A0FBE2F5F3F4F2A
:1048F000283B310511F03196EDCFE4EAF8E08081F4
:10490000F999FECF1FBA32BD21BD80BD0FB6F89414
:10491000FA9AF99A0FBE2F5F3F4F243C310511F0F0
:104920003196EDCFE2E4F3E18081F999FECF1FBA31
:1049300032BD21BD80BD0FB6F894FA9AF99A0FBE28
:104940002F5F3F4F263C310511F03196EDCFE4E467
:10495000F3E18081F999FECF1FBA32BD21BD80BD40
:104960000FB6F894FA9AF99A0FBE2F5F3F4F283C82
:10497000310511F03196EDCFE6E4F3E18081F9994C
:10498000FECF1FBA32BD21BD80BD0FB6F894FA9A92
:10499000F99A0FBE2F5F3F4F2A3C310511F0319637
:1049A000EDCFE8E4F3E18081F999FECF1FBA32BD83
:1049B00021BD80BD0FB6F894FA9AF99A0FBE2F5F09
:1049C0003F4F2C3C310511F03196EDCFEAE4F3E195
:1049D0008081F999FECF1FBA32BD21BD80BD0FB6CF
:1049E000F894FA9AF99A0FBE2F5F3F4F2E3C31058B
:1049F00011F03196EDCFECE4F3E18081F999FECF2F
:104A00001FBA32BD21BD80BD0FB6F894FA9AF99A4B
:104A10000FBE2F5F3F4F203D310511F03196EDCF96
:104A2000EFEBF8E08081F999FECF1FBA32BD21BDCE
:104A300080BD0FB6F894FA9AF99A0FBE2F5F3F4FD8
:104A4000243D310511F03196EDCFE1E6F4E08081AF
:104A5000F999FECF1FBA32BD21BD80BD0FB6F894C3
:104A6000FA9AF99A0FBE2F5F3F4F283D310511F09A
:104A70003196EDCFE5E6F4E08081F999FECF1FBADB
:104A800032BD21BD80BD0FB6F894FA9AF99A0FBED7
:104A90002F5F3F4F2C3D310511F03196EDCFE9E608
:104AA000F4E08081F999FECF1FBA32BD21BD80BDEF
:104AB0000FB6F894FA9AF99A0FBE2F5F3F4F203E37
:104AC000310511F03196EDCF80E290E09A83898331
:104AD000FE0131968081F999FECF1FBA32BD21BD0A
:104AE00080BD0FB6F894FA9AF99A0FBE213E3105AF
:104AF00021F0319621EE30E0EDCF20919308F99925
:104B0000FECF1FBA82EE90E092BD81BD20BD0FB6F0
:104B1000F894FA9AF99A0FBEEFE1F4E083EE90E090
:104B20002081F999FECF1FBA92BD81BD20BD0FB67D
:104B3000F894FA9AF99A0FBE863E910519F00196FB
:104B40003196EECF80911A0290911B02A0911C0227
:104B5000B0911D028F839887A987BA87FE01379687
:104B600084E690E02081F999FECF1FBA92BD81BD05
:104B700020BD0FB6F894FA9AF99A0FBE87369105C0
:104B800019F001963196EECFEEE5F5E0949108C06C
:104B90008091C00085FFFCCF9093C6003196949120
:104BA0009923B1F7E7E4F5E0949108C08091C00043
:104BB00085FFFCCF9093C600319694919923B1F76D
:104BC0008091C00085FFFCCF8AE08093C6002A96C2
:104BD0000FB6F894DEBF0FBECDBFCF91DF91089521
:104BE000DF93CF93CDB7DEB7E0970FB6F894DEBF73
:104BF0000FBECDBFDE011196E6EBF4E080E101903F
:104C00000D928150E1F7DE015196E6EAF4E080E191
:104C100001900D928150E1F7DE019196E6E9F4E012
:104C200080E101900D928150E1F789819A81AB81F9
:104C3000BC818093BE0A9093BF0AA093C00AB09330
:104C4000C10A89899A89AB89BC898093AE0A9093FD
:104C5000AF0AA093B00AB093B10A89A19AA1ABA1FF
:104C6000BCA18093CE0A9093CF0AA093D00AB093B0
:104C7000D10A8D819E81AF81B8858093C20A9093BD
:104C8000C30AA093C40AB093C50A8D899E89AF89CF
:104C9000B88D8093B20A9093B30AA093B40AB093EC
:104CA000B50A8DA19EA1AFA1B8A58093D20A909319
:104CB000D30AA093D40AB093D50A89859A85AB8587
:104CC000BC858093C60A9093C70AA093C80AB09384
:104CD000C90A898D9A8DAB8DBC8D8093B60A90934D
:104CE000B70AA093B80AB093B90A89A59AA5ABA54B
:104CF000BCA58093D60A9093D70AA093D80AB09304
:104D0000D90A8D859E85AF85B8898093CA0A90930C
:104D1000CB0AA093CC0AB093CD0A8D8D9E8DAF8D1A
:104D2000B8A18093BA0A9093BB0AA093BC0AB0932F
:104D3000BD0A8DA59EA5AFA5B8A98093DA0A909368
:104D4000DB0AA093DC0AB093DD0A0E945B6480E07A
:104D500090E0AAEFB4E48093E20A9093E30AA09370
:104D6000E40AB093E50A80E090E0AAE7B4E4809317
:104D7000E60A9093E70AA093E80AB093E90A20E0D4
:104D800030E040E050E02093DE0A3093DF0A4093A9
:104D9000E00A5093E10A80E29EE4A0E0B0E0809354
:104DA000AA0A9093AB0AA093AC0AB093AD0A2093E1
:104DB000F60A3093F70A4093F80A5093F90A80E014
:104DC00090E0A0EAB1E48093EA0A9093EB0AA09302
:104DD000EC0AB093ED0A8DEC9CECACECBEE3809356
:104DE000EE0A9093EF0AA093F00AB093F10A80E0E4
:104DF00090E0A0EAB0E48093F20A9093F30AA093C3
:104E0000F40AB093F50A2093AC083093AD084093B0
:104E1000AE085093AF082093A8083093A908409398
:104E2000AA085093AB082093A4083093A508409398
:104E3000A6085093A70884EB90E0909343138093C7
:104E4000421386E490E090934513809344132FEF30
:104E500030E0309347132093461380EF90E0909317
:104E600049138093481384E690E090934B1380930A
:104E70004A1330934D1320934C138AE999E9A1EB1F
:104E8000B1E48093610490936204A0936304B093AF
:104E9000640461E77DE38AE89FE30E94789260936F
:104EA000650470936604809367049093680460E0DF
:104EB00070E084EE92E40E9484926093690470939F
:104EC0006A0480936B0490936C040E94909180E03C
:104ED00090E0A0E8BFE380936D0490936E04A093EC
:104EE0006F04B09370041092930880E090E0A0E407
:104EF000B0E480931F0490932004A0932104B09306
:104F000022040E946230EEE5F5E0949108C08091A1
:104F1000C00085FFFCCF9093C600319694919923F1
:104F2000B1F7E3E4F3E0949108C08091C00085FFFD
:104F3000FCCF9093C600319694919923B1F780915C
:104F4000C00085FFFCCF8AE08093C600E0960FB6D4
:104F5000F894DEBF0FBECDBFCF91DF9108950F93C0
:104F60001F93DF93CF93CDB7DEB72A970FB6F89490
:104F7000DEBF0FBECDBF80911A0290911B02A0919F
:104F80001C02B0911D028F839887A987BA87FE0102
:104F9000339604E610E0F999FECF12BD01BDF89AF0
:104FA00080B580830F5F1F4F0836110511F03196D1
:104FB000F2CFCE010796BE016D5F7F4F43E050E018
:104FC0000E943513009709F0B5C1EEEBFAE0F999AC
:104FD000FECF12BD01BDF89A80B580830F5F1F4FD1
:104FE0000837110511F03196F2CFEEEAFAE0F9999F
:104FF000FECF12BD01BDF89A80B580830F5F1F4FB1
:105000000838110511F03196F2CFEEECFAE0F9997B
:10501000FECF12BD01BDF89A80B580830F5F1F4F90
:105020000839110511F03196F2CF0E945B64E2EE6F
:10503000FAE0F999FECF12BD01BDF89A80B58083E0
:105040000F5F1F4F0C39110511F03196F2CFE6EECC
:10505000FAE0F999FECF12BD01BDF89A80B58083C0
:105060000F5F1F4F003A110511F03196F2CFEEEDB0
:10507000FAE0F999FECF12BD01BDF89A80B58083A0
:105080000F5F1F4F043A110511F03196F2CFE6EF92
:10509000FAE0F999FECF12BD01BDF89A80B5808380
:1050A0000F5F1F4F083A110511F03196F2CFEAEA6F
:1050B000FAE0F999FECF12BD01BDF89A80B5808360
:1050C0000F5F1F4F0C3A110511F03196F2CFEAEE47
:1050D000FAE0F999FECF12BD01BDF89A80B5808340
:1050E0000F5F1F4F003B110511F03196F2CFEEEE2E
:1050F000FAE0F999FECF12BD01BDF89A80B5808320
:105100000F5F1F4F043B110511F03196F2CFE2EF14
:10511000FAE0F999FECF12BD01BDF89A80B58083FF
:105120000F5F1F4F083B110511F03196F2CFE4EAF3
:10513000F8E0F999FECF12BD01BDF89A80B58083E1
:105140000F5F1F4F043C110511F03196F2CFE2E4DE
:10515000F3E1F999FECF12BD01BDF89A80B58083C5
:105160000F5F1F4F063C110511F03196F2CFE4E4BA
:10517000F3E1F999FECF12BD01BDF89A80B58083A5
:105180000F5F1F4F083C110511F03196F2CFE6E496
:10519000F3E1F999FECF12BD01BDF89A80B5808385
:1051A0000F5F1F4F0A3C110511F03196F2CFE8E472
:1051B000F3E1F999FECF12BD01BDF89A80B5808365
:1051C0000F5F1F4F0C3C110511F03196F2CFEAE44E
:1051D000F3E1F999FECF12BD01BDF89A80B5808345
:1051E0000F5F1F4F0E3C110511F03196F2CFECE42A
:1051F000F3E1F999FECF12BD01BDF89A80B5808325
:105200000F5F1F4F003D110511F03196F2CFEFEB0C
:10521000F8E0F999FECF12BD01BDF89A80B5808300
:105220000F5F1F4F043D110511F03196F2CFE1E6FB
:10523000F4E0F999FECF12BD01BDF89A80B58083E4
:105240000F5F1F4F083D110511F03196F2CFE5E6D3
:10525000F4E0F999FECF12BD01BDF89A80B58083C4
:105260000F5F1F4F0C3D110511F03196F2CFE9E6AB
:10527000F4E0F999FECF12BD01BDF89A80B58083A4
:105280000F5F1F4F003E110511F03196F2CFFE0166
:105290003196F999FECF12BD01BDF89A80B5808391
:1052A000013E110521F0319601EE10E0F2CFF9999F
:1052B000FECF82EE90E092BD81BDF89A80B58093DA
:1052C0009308EFE1F4E023EE30E0F999FECF32BD30
:1052D00021BDF89A80B58083263E310521F02F5FED
:1052E0003F4F3196F2CFEED60E949091EEE5F5E079
:1052F000949108C08091C00085FFFCCF9093C600B8
:10530000319694919923B1F7E5E6F3E0949108C0C2
:105310008091C00085FFFCCF9093C6003196949198
:105320009923B1F78091C00085FFFCCF8AE080937C
:10533000C60001C055DC2A960FB6F894DEBF0FBE3A
:10534000CDBFCF91DF911F910F910895CF93DF9340
:10535000CEE5D5E0FE01949108C08091C00085FFA4
:10536000FCCF9093C600319694919923B1F7E7E36F
:10537000F5E0949108C08091C00085FFFCCF909328
:10538000C600319694919923B1F78091C00085FFB2
:10539000FCCF8AE08093C600FE019491EEE5F5E033
:1053A00008C08091C00085FFFCCF9093C600319665
:1053B00094919923B1F74091BE0A5091BF0A609130
:1053C000C00A7091C10A8FE295E00E94CC334091EF
:1053D000C20A5091C30A6091C40A7091C50A8CE256
:1053E00095E00E94CC334091C60A5091C70A609163
:1053F000C80A7091C90A89E295E00E94CC334091B5
:10540000CA0A5091CB0A6091CC0A7091CD0A86E20B
:1054100095E00E94CC33EEE1F2E007C08091C0003D
:1054200085FFFCCF31969093C60090819923B1F708
:105430008091C00085FFFCCF8AE08093C600FE010A
:105440009491EEE5F5E008C08091C00085FFFCCFA7
:105450009093C600319694919923B1F7ECE0F5E072
:10546000949108C08091C00085FFFCCF9093C60046
:10547000319694919923B1F78091C00085FFFCCFBC
:105480008AE08093C600FE019491EEE5F5E008C045
:105490008091C00085FFFCCF9093C6003196949117
:1054A0009923B1F74091AE0A5091AF0A6091B00ACA
:1054B0007091B10A83E095E00E94CC334091B20A2A
:1054C0005091B30A6091B40A7091B50A80E095E0FA
:1054D0000E94CC334091B60A5091B70A6091B80A45
:1054E0007091B90A8DEF94E00E94CC334091BA0AD2
:1054F0005091BB0A6091BC0A7091BD0A8AEF94E09A
:105500000E94CC33EEE1F2E007C08091C00085FF3D
:10551000FCCF31969093C60090819923B1F780918A
:10552000C00085FFFCCF8AE08093C600FE01949105
:10553000EEE5F5E008C08091C00085FFFCCF9093B8
:10554000C600319694919923B1F7ECEDF4E0949173
:1055500008C08091C00085FFFCCF9093C6003196B3
:1055600094919923B1F78091C00085FFFCCF8AE028
:105570008093C600FE019491EEE5F5E008C08091AD
:10558000C00085FFFCCF9093C6003196949199237B
:10559000B1F74091CE0A5091CF0A6091D00A709134
:1055A000D10A83ED94E00E94DE334091D20A5091FB
:1055B000D30A6091D40A7091D50A80ED94E00E94DC
:1055C000DE334091D60A5091D70A6091D80A709183
:1055D000D90A8DEC94E00E94DE334091DA0A5091B2
:1055E000DB0A6091DC0A7091DD0A8AEC94E00E948B
:1055F000DE33EEE1F2E007C08091C00085FFFCCF12
:1056000031969093C60090819923B1F78091C000A4
:1056100085FFFCCF8AE08093C600FE019491EEE501
:10562000F5E008C08091C00085FFFCCF9093C600D4
:10563000319694919923B1F7E5E9F4E0949108C08B
:105640008091C00085FFFCCF9093C6003196949165
:105650009923B1F78091C00085FFFCCF8AE0809349
:10566000C600FE019491EEE5F5E008C08091C0000F
:1056700085FFFCCF9093C600319694919923B1F7A2
:105680004091E20A5091E30A6091E40A7091E50AC0
:105690008CE894E00E94CC334091E60A5091E70AEE
:1056A0006091E80A7091E90A89E894E00E94CC339D
:1056B000EEE1F2E007C08091C00085FFFCCF31969B
:1056C0009093C60090819923B1F78091C00085FF27
:1056D000FCCF8AE08093C600FE019491EEE5F5E0F0
:1056E00008C08091C00085FFFCCF9093C600319622
:1056F00094919923B1F7E6EDF3E0949108C080917D
:10570000C00085FFFCCF9093C600319694919923F9
:10571000B1F78091C00085FFFCCF8AE08093C6007E
:10572000FE019491EEE5F5E008C08091C00085FF90
:10573000FCCF9093C600319694919923B1F7409194
:10574000DE0A5091DF0A6091E00A7091E10A8DEC67
:1057500093E00E94CC334091F60A5091F70A609191
:10576000F80A7091F90A8AEC93E00E94CC334091D8
:10577000AA0A5091AB0A6091AC0A7091AD0A87EC0D
:1057800093E00E94DE334091EA0A5091EB0A609167
:10579000EC0A7091ED0A84EC93E0FED74091EE0A9A
:1057A0005091EF0A6091F00A7091F10A81EC93E058
:1057B000F3D74091F20A5091F30A6091F40A709184
:1057C000F50A8EEB93E0E8D7EEE1F2E007C08091B6
:1057D000C00085FFFCCF31969093C600908199233D
:1057E000B1F78091C00085FFFCCF8AE08093C600AE
:1057F000FE019491EEE5F5E008C08091C00085FFC0
:10580000FCCF9093C600319694919923B1F7ECEABE
:10581000F3E0949108C08091C00085FFFCCF909385
:10582000C600319694919923B1F78091C00085FF0D
:10583000FCCF8AE08093C600FE019491EEE5F5E08E
:1058400008C08091C00085FFFCCF9093C6003196C0
:1058500094919923B1F74091A4085091A5086091C3
:10586000A6087091A70883EA93E096D74091A8080C
:105870005091A9086091AA087091AB0880EA93E062
:105880008BD74091AC085091AD086091AE087091F3
:10589000AF088DE993E080D7EEE1F2E007C0809198
:1058A000C00085FFFCCF31969093C600908199236C
:1058B000B1F78091C00085FFFCCF8AE08093C600DD
:1058C000FE019491EEE5F5E008C08091C00085FFEF
:1058D000FCCF9093C600319694919923B1F7EFE8ED
:1058E000F3E0949108C08091C00085FFFCCF9093B5
:1058F000C600319694919923B1F78091C00085FF3D
:10590000FCCF8AE08093C600FE019491EEE5F5E0BD
:1059100008C08091C00085FFFCCF9093C6003196EF
:1059200094919923B1F74091610450916204609180
:1059300063047091640485E893E02ED76091650458
:105940007091660480916704909168040E947E9231
:10595000AB01BC0182E893E01FD7609169047091AC
:105960006A0480916B0490916C040E948A92AB014E
:10597000BC018FE793E010D7EEE1F2E007C0809121
:10598000C00085FFFCCF31969093C600908199238B
:10599000B1F78091C00085FFFCCF8AE08093C600FC
:1059A000DF91CF9108951F920F920FB60F920BB611
:1059B0000F9211242F933F934F938F939F93EF93C5
:1059C000FF934091C600E091FA05F091FB053196F6
:1059D0009F012F77307031978091FC059091FD05E4
:1059E0002817390739F0E658FA4F40833093FB0502
:1059F0002093FA05FF91EF919F918F914F913F91E5
:105A00002F910F900BBE0F900FBE0F901F90189507
:105A10009A01AB01203081EE380780E0480780E032
:105A2000580749F182E08093C00060E079E08DE39F
:105A300090E00E9407E02150304040405040CA01B1
:105A4000B90122E030E040E050E00E9407E03093EE
:105A5000C5002093C4008091C10080618093C10083
:105A60008091C10088608093C1008091C1008068EE
:105A70008093C10008951092C00020E130E0E7CF8C
:105A80002091FC053091FD058091FA059091FB0570
:105A90008217930719F42FEF3FEF0EC0F901E65874
:105AA000FA4F80812F5F3F4F2F7730703093FD0585
:105AB0002093FC05282F30E0C90108958091FC0552
:105AC0009091FD059093FB058093FA050895089544
:105AD0002F923F924F925F926F927F928F929F92FE
